{
  "_format": "hh-sol-artifact-1",
  "contractName": "Shaeps",
  "sourceName": "contracts/Shaeps.sol",
  "abi": [
    {
      "inputs": [
        {
          "internalType": "string",
          "name": "_name",
          "type": "string"
        },
        {
          "internalType": "string",
          "name": "_symbol",
          "type": "string"
        },
        {
          "internalType": "address payable",
          "name": "_collector",
          "type": "address"
        }
      ],
      "stateMutability": "nonpayable",
      "type": "constructor"
    },
    {
      "anonymous": false,
      "inputs": [
        {
          "indexed": true,
          "internalType": "address",
          "name": "owner",
          "type": "address"
        },
        {
          "indexed": true,
          "internalType": "address",
          "name": "approved",
          "type": "address"
        },
        {
          "indexed": true,
          "internalType": "uint256",
          "name": "tokenId",
          "type": "uint256"
        }
      ],
      "name": "Approval",
      "type": "event"
    },
    {
      "anonymous": false,
      "inputs": [
        {
          "indexed": true,
          "internalType": "address",
          "name": "owner",
          "type": "address"
        },
        {
          "indexed": true,
          "internalType": "address",
          "name": "operator",
          "type": "address"
        },
        {
          "indexed": false,
          "internalType": "bool",
          "name": "approved",
          "type": "bool"
        }
      ],
      "name": "ApprovalForAll",
      "type": "event"
    },
    {
      "anonymous": false,
      "inputs": [
        {
          "indexed": true,
          "internalType": "address",
          "name": "previousOwner",
          "type": "address"
        },
        {
          "indexed": true,
          "internalType": "address",
          "name": "newOwner",
          "type": "address"
        }
      ],
      "name": "OwnershipTransferred",
      "type": "event"
    },
    {
      "anonymous": false,
      "inputs": [
        {
          "indexed": true,
          "internalType": "address",
          "name": "from",
          "type": "address"
        },
        {
          "indexed": true,
          "internalType": "address",
          "name": "to",
          "type": "address"
        },
        {
          "indexed": true,
          "internalType": "uint256",
          "name": "tokenId",
          "type": "uint256"
        }
      ],
      "name": "Transfer",
      "type": "event"
    },
    {
      "inputs": [
        {
          "internalType": "address",
          "name": "to",
          "type": "address"
        },
        {
          "internalType": "uint256",
          "name": "tokenId",
          "type": "uint256"
        }
      ],
      "name": "approve",
      "outputs": [],
      "stateMutability": "nonpayable",
      "type": "function"
    },
    {
      "inputs": [
        {
          "internalType": "address",
          "name": "owner",
          "type": "address"
        }
      ],
      "name": "balanceOf",
      "outputs": [
        {
          "internalType": "uint256",
          "name": "",
          "type": "uint256"
        }
      ],
      "stateMutability": "view",
      "type": "function"
    },
    {
      "inputs": [
        {
          "internalType": "uint256",
          "name": "tokenId",
          "type": "uint256"
        }
      ],
      "name": "burn",
      "outputs": [],
      "stateMutability": "nonpayable",
      "type": "function"
    },
    {
      "inputs": [],
      "name": "collector",
      "outputs": [
        {
          "internalType": "address payable",
          "name": "",
          "type": "address"
        }
      ],
      "stateMutability": "view",
      "type": "function"
    },
    {
      "inputs": [
        {
          "internalType": "uint256",
          "name": "tokenId",
          "type": "uint256"
        }
      ],
      "name": "generateMetadata",
      "outputs": [
        {
          "internalType": "string",
          "name": "",
          "type": "string"
        }
      ],
      "stateMutability": "view",
      "type": "function"
    },
    {
      "inputs": [
        {
          "internalType": "uint256",
          "name": "tokenId",
          "type": "uint256"
        }
      ],
      "name": "generateSvg",
      "outputs": [
        {
          "internalType": "string",
          "name": "",
          "type": "string"
        }
      ],
      "stateMutability": "view",
      "type": "function"
    },
    {
      "inputs": [
        {
          "internalType": "uint256",
          "name": "tokenId",
          "type": "uint256"
        }
      ],
      "name": "getApproved",
      "outputs": [
        {
          "internalType": "address",
          "name": "",
          "type": "address"
        }
      ],
      "stateMutability": "view",
      "type": "function"
    },
    {
      "inputs": [
        {
          "internalType": "address",
          "name": "owner",
          "type": "address"
        },
        {
          "internalType": "address",
          "name": "operator",
          "type": "address"
        }
      ],
      "name": "isApprovedForAll",
      "outputs": [
        {
          "internalType": "bool",
          "name": "",
          "type": "bool"
        }
      ],
      "stateMutability": "view",
      "type": "function"
    },
    {
      "inputs": [],
      "name": "maxSupply",
      "outputs": [
        {
          "internalType": "uint256",
          "name": "",
          "type": "uint256"
        }
      ],
      "stateMutability": "view",
      "type": "function"
    },
    {
      "inputs": [
        {
          "internalType": "address",
          "name": "to",
          "type": "address"
        }
      ],
      "name": "mint",
      "outputs": [],
      "stateMutability": "payable",
      "type": "function"
    },
    {
      "inputs": [],
      "name": "mintedSupply",
      "outputs": [
        {
          "internalType": "uint256",
          "name": "",
          "type": "uint256"
        }
      ],
      "stateMutability": "view",
      "type": "function"
    },
    {
      "inputs": [],
      "name": "name",
      "outputs": [
        {
          "internalType": "string",
          "name": "",
          "type": "string"
        }
      ],
      "stateMutability": "view",
      "type": "function"
    },
    {
      "inputs": [],
      "name": "owner",
      "outputs": [
        {
          "internalType": "address",
          "name": "",
          "type": "address"
        }
      ],
      "stateMutability": "view",
      "type": "function"
    },
    {
      "inputs": [
        {
          "internalType": "uint256",
          "name": "tokenId",
          "type": "uint256"
        }
      ],
      "name": "ownerOf",
      "outputs": [
        {
          "internalType": "address",
          "name": "",
          "type": "address"
        }
      ],
      "stateMutability": "view",
      "type": "function"
    },
    {
      "inputs": [],
      "name": "price",
      "outputs": [
        {
          "internalType": "uint256",
          "name": "",
          "type": "uint256"
        }
      ],
      "stateMutability": "view",
      "type": "function"
    },
    {
      "inputs": [],
      "name": "renounceOwnership",
      "outputs": [],
      "stateMutability": "nonpayable",
      "type": "function"
    },
    {
      "inputs": [
        {
          "internalType": "address",
          "name": "from",
          "type": "address"
        },
        {
          "internalType": "address",
          "name": "to",
          "type": "address"
        },
        {
          "internalType": "uint256",
          "name": "tokenId",
          "type": "uint256"
        }
      ],
      "name": "safeTransferFrom",
      "outputs": [],
      "stateMutability": "nonpayable",
      "type": "function"
    },
    {
      "inputs": [
        {
          "internalType": "address",
          "name": "from",
          "type": "address"
        },
        {
          "internalType": "address",
          "name": "to",
          "type": "address"
        },
        {
          "internalType": "uint256",
          "name": "tokenId",
          "type": "uint256"
        },
        {
          "internalType": "bytes",
          "name": "_data",
          "type": "bytes"
        }
      ],
      "name": "safeTransferFrom",
      "outputs": [],
      "stateMutability": "nonpayable",
      "type": "function"
    },
    {
      "inputs": [
        {
          "internalType": "address",
          "name": "operator",
          "type": "address"
        },
        {
          "internalType": "bool",
          "name": "approved",
          "type": "bool"
        }
      ],
      "name": "setApprovalForAll",
      "outputs": [],
      "stateMutability": "nonpayable",
      "type": "function"
    },
    {
      "inputs": [
        {
          "internalType": "bytes4",
          "name": "interfaceId",
          "type": "bytes4"
        }
      ],
      "name": "supportsInterface",
      "outputs": [
        {
          "internalType": "bool",
          "name": "",
          "type": "bool"
        }
      ],
      "stateMutability": "view",
      "type": "function"
    },
    {
      "inputs": [],
      "name": "symbol",
      "outputs": [
        {
          "internalType": "string",
          "name": "",
          "type": "string"
        }
      ],
      "stateMutability": "view",
      "type": "function"
    },
    {
      "inputs": [
        {
          "internalType": "uint256",
          "name": "tokenId",
          "type": "uint256"
        }
      ],
      "name": "tokenURI",
      "outputs": [
        {
          "internalType": "string",
          "name": "",
          "type": "string"
        }
      ],
      "stateMutability": "view",
      "type": "function"
    },
    {
      "inputs": [
        {
          "internalType": "address",
          "name": "from",
          "type": "address"
        },
        {
          "internalType": "address",
          "name": "to",
          "type": "address"
        },
        {
          "internalType": "uint256",
          "name": "tokenId",
          "type": "uint256"
        }
      ],
      "name": "transferFrom",
      "outputs": [],
      "stateMutability": "nonpayable",
      "type": "function"
    },
    {
      "inputs": [
        {
          "internalType": "address",
          "name": "newOwner",
          "type": "address"
        }
      ],
      "name": "transferOwnership",
      "outputs": [],
      "stateMutability": "nonpayable",
      "type": "function"
    },
    {
      "inputs": [],
      "name": "withdraw",
      "outputs": [],
      "stateMutability": "nonpayable",
      "type": "function"
    }
  ],
  "bytecode": "0x60806040526040518061012001604052806040518060400160405280600781526020017f234542353735370000000000000000000000000000000000000000000000000081525081526020016040518060400160405280600781526020017f234632393934410000000000000000000000000000000000000000000000000081525081526020016040518060400160405280600781526020017f234632433934430000000000000000000000000000000000000000000000000081525081526020016040518060400160405280600781526020017f233646434639370000000000000000000000000000000000000000000000000081525081526020016040518060400160405280600781526020017f233536434346320000000000000000000000000000000000000000000000000081525081526020016040518060400160405280600781526020017f233246383045440000000000000000000000000000000000000000000000000081525081526020016040518060400160405280600781526020017f233942353145300000000000000000000000000000000000000000000000000081525081526020016040518060400160405280600481526020017f234646460000000000000000000000000000000000000000000000000000000081525081526020016040518060400160405280600481526020017f2331313100000000000000000000000000000000000000000000000000000000815250815250600b9060096200023392919062000605565b506040518061012001604052806040518060400160405280600381526020017f526564000000000000000000000000000000000000000000000000000000000081525081526020016040518060400160405280600681526020017f4f72616e6765000000000000000000000000000000000000000000000000000081525081526020016040518060400160405280600681526020017f59656c6c6f77000000000000000000000000000000000000000000000000000081525081526020016040518060400160405280600581526020017f477265656e00000000000000000000000000000000000000000000000000000081525081526020016040518060400160405280600a81526020017f4c6967687420426c75650000000000000000000000000000000000000000000081525081526020016040518060400160405280600481526020017f426c75650000000000000000000000000000000000000000000000000000000081525081526020016040518060400160405280600681526020017f507572706c65000000000000000000000000000000000000000000000000000081525081526020016040518060400160405280600581526020017f576869746500000000000000000000000000000000000000000000000000000081525081526020016040518060400160405280600581526020017f426c61636b00000000000000000000000000000000000000000000000000000081525081525060149060096200046392919062000605565b503480156200047157600080fd5b5060405162005b6938038062005b69833981810160405281019062000497919062000806565b82828160009080519060200190620004b19291906200065f565b508060019080519060200190620004ca9291906200065f565b505050620004ed620004e16200053760201b60201c565b6200053f60201b60201c565b80600960006101000a81548173ffffffffffffffffffffffffffffffffffffffff021916908373ffffffffffffffffffffffffffffffffffffffff16021790555050505062000a4c565b600033905090565b6000600760009054906101000a900473ffffffffffffffffffffffffffffffffffffffff16905081600760006101000a81548173ffffffffffffffffffffffffffffffffffffffff021916908373ffffffffffffffffffffffffffffffffffffffff1602179055508173ffffffffffffffffffffffffffffffffffffffff168173ffffffffffffffffffffffffffffffffffffffff167f8be0079c531659141344cd1fd0a4f28419497f9722a3daafe3b4186f6b6457e060405160405180910390a35050565b82600981019282156200064c579160200282015b828111156200064b5782518290805190602001906200063a9291906200065f565b509160200191906001019062000619565b5b5090506200065b9190620006f0565b5090565b8280546200066d9062000957565b90600052602060002090601f016020900481019282620006915760008555620006dd565b82601f10620006ac57805160ff1916838001178555620006dd565b82800160010185558215620006dd579182015b82811115620006dc578251825591602001919060010190620006bf565b5b509050620006ec919062000718565b5090565b5b808211156200071457600081816200070a919062000737565b50600101620006f1565b5090565b5b808211156200073357600081600090555060010162000719565b5090565b508054620007459062000957565b6000825580601f106200075957506200077a565b601f01602090049060005260206000209081019062000779919062000718565b5b50565b6000620007946200078e84620008b7565b6200088e565b905082815260208101848484011115620007ad57600080fd5b620007ba84828562000921565b509392505050565b600081519050620007d38162000a32565b92915050565b600082601f830112620007eb57600080fd5b8151620007fd8482602086016200077d565b91505092915050565b6000806000606084860312156200081c57600080fd5b600084015167ffffffffffffffff8111156200083757600080fd5b6200084586828701620007d9565b935050602084015167ffffffffffffffff8111156200086357600080fd5b6200087186828701620007d9565b92505060406200088486828701620007c2565b9150509250925092565b60006200089a620008ad565b9050620008a882826200098d565b919050565b6000604051905090565b600067ffffffffffffffff821115620008d557620008d4620009f2565b5b620008e08262000a21565b9050602081019050919050565b6000620008fa8262000901565b9050919050565b600073ffffffffffffffffffffffffffffffffffffffff82169050919050565b60005b838110156200094157808201518184015260208101905062000924565b8381111562000951576000848401525b50505050565b600060028204905060018216806200097057607f821691505b60208210811415620009875762000986620009c3565b5b50919050565b620009988262000a21565b810181811067ffffffffffffffff82111715620009ba57620009b9620009f2565b5b80604052505050565b7f4e487b7100000000000000000000000000000000000000000000000000000000600052602260045260246000fd5b7f4e487b7100000000000000000000000000000000000000000000000000000000600052604160045260246000fd5b6000601f19601f8301169050919050565b62000a3d81620008ed565b811462000a4957600080fd5b50565b61510d8062000a5c6000396000f3fe6080604052600436106101665760003560e01c8063715018a6116100d1578063b88d4fde1161008a578063c87b56dd11610064578063c87b56dd1461051b578063d5abeb0114610558578063e985e9c514610583578063f2fde38b146105c057610166565b8063b88d4fde1461048a578063bc921dc2146104b3578063c1bd8cf9146104f057610166565b8063715018a61461039e5780638da5cb5b146103b5578063913e77ad146103e057806395d89b411461040b578063a035b1fe14610436578063a22cb4651461046157610166565b80633ccfd60b116101235780633ccfd60b1461029f57806342842e0e146102b657806342966c68146102df5780636352211e146103085780636a6278421461034557806370a082311461036157610166565b8063015e1a0b1461016b57806301ffc9a7146101a857806306fdde03146101e5578063081812fc14610210578063095ea7b31461024d57806323b872dd14610276575b600080fd5b34801561017757600080fd5b50610192600480360381019061018d919061317b565b6105e9565b60405161019f9190613cf7565b60405180910390f35b3480156101b457600080fd5b506101cf60048036038101906101ca9190613129565b61096e565b6040516101dc9190613cdc565b60405180910390f35b3480156101f157600080fd5b506101fa610a50565b6040516102079190613cf7565b60405180910390f35b34801561021c57600080fd5b506102376004803603810190610232919061317b565b610ae2565b6040516102449190613c5a565b60405180910390f35b34801561025957600080fd5b50610274600480360381019061026f91906130ed565b610b67565b005b34801561028257600080fd5b5061029d60048036038101906102989190612fe7565b610c7f565b005b3480156102ab57600080fd5b506102b4610cdf565b005b3480156102c257600080fd5b506102dd60048036038101906102d89190612fe7565b610d89565b005b3480156102eb57600080fd5b506103066004803603810190610301919061317b565b610da9565b005b34801561031457600080fd5b5061032f600480360381019061032a919061317b565b610e05565b60405161033c9190613c5a565b60405180910390f35b61035f600480360381019061035a9190612f82565b610eb7565b005b34801561036d57600080fd5b5061038860048036038101906103839190612f82565b610fbb565b6040516103959190614019565b60405180910390f35b3480156103aa57600080fd5b506103b3611073565b005b3480156103c157600080fd5b506103ca6110fb565b6040516103d79190613c5a565b60405180910390f35b3480156103ec57600080fd5b506103f5611125565b6040516104029190613c75565b60405180910390f35b34801561041757600080fd5b5061042061114b565b60405161042d9190613cf7565b60405180910390f35b34801561044257600080fd5b5061044b6111dd565b6040516104589190614019565b60405180910390f35b34801561046d57600080fd5b50610488600480360381019061048391906130b1565b6111e8565b005b34801561049657600080fd5b506104b160048036038101906104ac9190613036565b6111fe565b005b3480156104bf57600080fd5b506104da60048036038101906104d5919061317b565b611260565b6040516104e79190613cf7565b60405180910390f35b3480156104fc57600080fd5b5061050561131b565b6040516105129190614019565b60405180910390f35b34801561052757600080fd5b50610542600480360381019061053d919061317b565b61132c565b60405161054f9190613cf7565b60405180910390f35b34801561056457600080fd5b5061056d61133e565b60405161057a9190614019565b60405180910390f35b34801561058f57600080fd5b506105aa60048036038101906105a59190612fab565b611343565b6040516105b79190613cdc565b60405180910390f35b3480156105cc57600080fd5b506105e760048036038101906105e29190612f82565b6113d7565b005b606060006105f6836114cf565b6040516020016106069190613a82565b604051602081830303815290604052905060006040518060400160405280601681526020017f72656374616e676c657320616e6420636972636c65730000000000000000000081525090506000600a60008681526020019081526020016000208054610671906142e1565b80601f016020809104026020016040519081016040528092919081815260200182805461069d906142e1565b80156106ea5780601f106106bf576101008083540402835291602001916106ea565b820191906000526020600020905b8154815290600101906020018083116106cd57829003601f168201915b5050505050905060006106fc8261167c565b9050600061070982611710565b9050610713612d03565b60005b60068110156107c857600084826006811061075a577f4e487b7100000000000000000000000000000000000000000000000000000000600052603260045260246000fd5b60200201519050600183826009811061079c577f4e487b7100000000000000000000000000000000000000000000000000000000600052603260045260246000fd5b602002018181516107ad91906140ed565b915081815250505080806107c090614344565b915050610716565b50606060005b60098110156108ed576000838260098110610812577f4e487b7100000000000000000000000000000000000000000000000000000000600052603260045260246000fd5b602002015111156108da578160148260098110610858577f4e487b7100000000000000000000000000000000000000000000000000000000600052603260045260246000fd5b01848360098110610892577f4e487b7100000000000000000000000000000000000000000000000000000000600052603260045260246000fd5b60200201516040516020016108a8929190613aa4565b6040516020818303038152906040526040516020016108c89291906139e9565b60405160208183030381529060405291505b80806108e590614344565b9150506107ce565b506000816040516020016109019190613aed565b60405160208183030381529060405290506109408888868460405160200161092c9493929190613a0d565b604051602081830303815290604052611a3a565b6040516020016109509190613b1a565b60405160208183030381529060405298505050505050505050919050565b60007f80ac58cd000000000000000000000000000000000000000000000000000000007bffffffffffffffffffffffffffffffffffffffffffffffffffffffff1916827bffffffffffffffffffffffffffffffffffffffffffffffffffffffff19161480610a3957507f5b5e139f000000000000000000000000000000000000000000000000000000007bffffffffffffffffffffffffffffffffffffffffffffffffffffffff1916827bffffffffffffffffffffffffffffffffffffffffffffffffffffffff1916145b80610a495750610a4882611be5565b5b9050919050565b606060008054610a5f906142e1565b80601f0160208091040260200160405190810160405280929190818152602001828054610a8b906142e1565b8015610ad85780601f10610aad57610100808354040283529160200191610ad8565b820191906000526020600020905b815481529060010190602001808311610abb57829003601f168201915b5050505050905090565b6000610aed82611c4f565b610b2c576040517f08c379a0000000000000000000000000000000000000000000000000000000008152600401610b2390613f19565b60405180910390fd5b6004600083815260200190815260200160002060009054906101000a900473ffffffffffffffffffffffffffffffffffffffff169050919050565b6000610b7282610e05565b90508073ffffffffffffffffffffffffffffffffffffffff168373ffffffffffffffffffffffffffffffffffffffff161415610be3576040517f08c379a0000000000000000000000000000000000000000000000000000000008152600401610bda90613f99565b60405180910390fd5b8073ffffffffffffffffffffffffffffffffffffffff16610c02611cbb565b73ffffffffffffffffffffffffffffffffffffffff161480610c315750610c3081610c2b611cbb565b611343565b5b610c70576040517f08c379a0000000000000000000000000000000000000000000000000000000008152600401610c6790613e59565b60405180910390fd5b610c7a8383611cc3565b505050565b610c90610c8a611cbb565b82611d7c565b610ccf576040517f08c379a0000000000000000000000000000000000000000000000000000000008152600401610cc690613fb9565b60405180910390fd5b610cda838383611e5a565b505050565b610ce7611cbb565b73ffffffffffffffffffffffffffffffffffffffff16610d056110fb565b73ffffffffffffffffffffffffffffffffffffffff1614610d5b576040517f08c379a0000000000000000000000000000000000000000000000000000000008152600401610d5290613f39565b60405180910390fd5b610d87600960009054906101000a900473ffffffffffffffffffffffffffffffffffffffff16476120b6565b565b610da4838383604051806020016040528060008152506111fe565b505050565b610dba610db4611cbb565b82611d7c565b610df9576040517f08c379a0000000000000000000000000000000000000000000000000000000008152600401610df090613ff9565b60405180910390fd5b610e02816121aa565b50565b6000806002600084815260200190815260200160002060009054906101000a900473ffffffffffffffffffffffffffffffffffffffff169050600073ffffffffffffffffffffffffffffffffffffffff168173ffffffffffffffffffffffffffffffffffffffff161415610eae576040517f08c379a0000000000000000000000000000000000000000000000000000000008152600401610ea590613e99565b60405180910390fd5b80915050919050565b6000610ec360086121b6565b9050606f600182610ed491906140ed565b1115610f15576040517f08c379a0000000000000000000000000000000000000000000000000000000008152600401610f0c90613d19565b60405180910390fd5b66038d7ea4c68000341015610f5f576040517f08c379a0000000000000000000000000000000000000000000000000000000008152600401610f5690613d39565b60405180910390fd5b610f6982826121c4565b610f748242836121e2565b600a60008381526020019081526020016000209080519060200190610f9a929190612d26565b50610fad81610fa8836105e9565b612237565b610fb760086122ab565b5050565b60008073ffffffffffffffffffffffffffffffffffffffff168273ffffffffffffffffffffffffffffffffffffffff16141561102c576040517f08c379a000000000000000000000000000000000000000000000000000000000815260040161102390613e79565b60405180910390fd5b600360008373ffffffffffffffffffffffffffffffffffffffff1673ffffffffffffffffffffffffffffffffffffffff168152602001908152602001600020549050919050565b61107b611cbb565b73ffffffffffffffffffffffffffffffffffffffff166110996110fb565b73ffffffffffffffffffffffffffffffffffffffff16146110ef576040517f08c379a00000000000000000000000000000000000000000000000000000000081526004016110e690613f39565b60405180910390fd5b6110f960006122c1565b565b6000600760009054906101000a900473ffffffffffffffffffffffffffffffffffffffff16905090565b600960009054906101000a900473ffffffffffffffffffffffffffffffffffffffff1681565b60606001805461115a906142e1565b80601f0160208091040260200160405190810160405280929190818152602001828054611186906142e1565b80156111d35780601f106111a8576101008083540402835291602001916111d3565b820191906000526020600020905b8154815290600101906020018083116111b657829003601f168201915b5050505050905090565b66038d7ea4c6800081565b6111fa6111f3611cbb565b8383612387565b5050565b61120f611209611cbb565b83611d7c565b61124e576040517f08c379a000000000000000000000000000000000000000000000000000000000815260040161124590613fb9565b60405180910390fd5b61125a848484846124f4565b50505050565b60606000611308600a60008581526020019081526020016000208054611285906142e1565b80601f01602080910402602001604051908101604052809291908181526020018280546112b1906142e1565b80156112fe5780601f106112d3576101008083540402835291602001916112fe565b820191906000526020600020905b8154815290600101906020018083116112e157829003601f168201915b505050505061167c565b905061131381611710565b915050919050565b600061132760086121b6565b905090565b606061133782612550565b9050919050565b606f81565b6000600560008473ffffffffffffffffffffffffffffffffffffffff1673ffffffffffffffffffffffffffffffffffffffff16815260200190815260200160002060008373ffffffffffffffffffffffffffffffffffffffff1673ffffffffffffffffffffffffffffffffffffffff16815260200190815260200160002060009054906101000a900460ff16905092915050565b6113df611cbb565b73ffffffffffffffffffffffffffffffffffffffff166113fd6110fb565b73ffffffffffffffffffffffffffffffffffffffff1614611453576040517f08c379a000000000000000000000000000000000000000000000000000000000815260040161144a90613f39565b60405180910390fd5b600073ffffffffffffffffffffffffffffffffffffffff168173ffffffffffffffffffffffffffffffffffffffff1614156114c3576040517f08c379a00000000000000000000000000000000000000000000000000000000081526004016114ba90613d79565b60405180910390fd5b6114cc816122c1565b50565b60606000821415611517576040518060400160405280600181526020017f30000000000000000000000000000000000000000000000000000000000000008152509050611677565b600082905060005b6000821461154957808061153290614344565b915050600a826115429190614143565b915061151f565b60008167ffffffffffffffff81111561158b577f4e487b7100000000000000000000000000000000000000000000000000000000600052604160045260246000fd5b6040519080825280601f01601f1916602001820160405280156115bd5781602001600182028036833780820191505090505b5090505b60008514611670576001826115d691906141ce565b9150600a856115e591906143c5565b60306115f191906140ed565b60f81b81838151811061162d577f4e487b7100000000000000000000000000000000000000000000000000000000600052603260045260246000fd5b60200101907effffffffffffffffffffffffffffffffffffffffffffffffffffffffffffff1916908160001a905350600a856116699190614143565b94506115c1565b8093505050505b919050565b611684612dac565b61168c612dac565b60005b60068110156117065760096116a485836126a2565b6116ae91906143f6565b60ff168282600681106116ea577f4e487b7100000000000000000000000000000000000000000000000000000000600052603260045260246000fd5b60200201818152505080806116fe90614344565b91505061168f565b5080915050919050565b6060611a14600b83600060068110611751577f4e487b7100000000000000000000000000000000000000000000000000000000600052603260045260246000fd5b60200201516009811061178d577f4e487b7100000000000000000000000000000000000000000000000000000000600052603260045260246000fd5b01600b846001600681106117ca577f4e487b7100000000000000000000000000000000000000000000000000000000600052603260045260246000fd5b602002015160098110611806577f4e487b7100000000000000000000000000000000000000000000000000000000600052603260045260246000fd5b01600b85600260068110611843577f4e487b7100000000000000000000000000000000000000000000000000000000600052603260045260246000fd5b60200201516009811061187f577f4e487b7100000000000000000000000000000000000000000000000000000000600052603260045260246000fd5b01600b866003600681106118bc577f4e487b7100000000000000000000000000000000000000000000000000000000600052603260045260246000fd5b6020020151600981106118f8577f4e487b7100000000000000000000000000000000000000000000000000000000600052603260045260246000fd5b01600b87600460068110611935577f4e487b7100000000000000000000000000000000000000000000000000000000600052603260045260246000fd5b602002015160098110611971577f4e487b7100000000000000000000000000000000000000000000000000000000600052603260045260246000fd5b01600b886005600681106119ae577f4e487b7100000000000000000000000000000000000000000000000000000000600052603260045260246000fd5b6020020151600981106119ea577f4e487b7100000000000000000000000000000000000000000000000000000000600052603260045260246000fd5b01604051602001611a0096959493929190613b51565b604051602081830303815290604052611a3a565b604051602001611a249190613c38565b6040516020818303038152906040529050919050565b6060600082511415611a5d57604051806020016040528060008152509050611be0565b60006040518060600160405280604081526020016150986040913990506000600360028551611a8c91906140ed565b611a969190614143565b6004611aa29190614174565b90506000602082611ab391906140ed565b67ffffffffffffffff811115611af2577f4e487b7100000000000000000000000000000000000000000000000000000000600052604160045260246000fd5b6040519080825280601f01601f191660200182016040528015611b245781602001600182028036833780820191505090505b509050818152600183018586518101602084015b81831015611b9f576003830192508251603f8160121c1685015160f81b8252600182019150603f81600c1c1685015160f81b8252600182019150603f8160061c1685015160f81b8252600182019150603f811685015160f81b825260018201915050611b38565b600389510660018114611bb95760028114611bc957611bd4565b613d3d60f01b6002830352611bd4565b603d60f81b60018303525b50505050508093505050505b919050565b60007f01ffc9a7000000000000000000000000000000000000000000000000000000007bffffffffffffffffffffffffffffffffffffffffffffffffffffffff1916827bffffffffffffffffffffffffffffffffffffffffffffffffffffffff1916149050919050565b60008073ffffffffffffffffffffffffffffffffffffffff166002600084815260200190815260200160002060009054906101000a900473ffffffffffffffffffffffffffffffffffffffff1673ffffffffffffffffffffffffffffffffffffffff1614159050919050565b600033905090565b816004600083815260200190815260200160002060006101000a81548173ffffffffffffffffffffffffffffffffffffffff021916908373ffffffffffffffffffffffffffffffffffffffff160217905550808273ffffffffffffffffffffffffffffffffffffffff16611d3683610e05565b73ffffffffffffffffffffffffffffffffffffffff167f8c5be1e5ebec7d5bd14f71427d1e84f3dd0314c0f7b2291e5b200ac8c7c3b92560405160405180910390a45050565b6000611d8782611c4f565b611dc6576040517f08c379a0000000000000000000000000000000000000000000000000000000008152600401611dbd90613e39565b60405180910390fd5b6000611dd183610e05565b90508073ffffffffffffffffffffffffffffffffffffffff168473ffffffffffffffffffffffffffffffffffffffff161480611e4057508373ffffffffffffffffffffffffffffffffffffffff16611e2884610ae2565b73ffffffffffffffffffffffffffffffffffffffff16145b80611e515750611e508185611343565b5b91505092915050565b8273ffffffffffffffffffffffffffffffffffffffff16611e7a82610e05565b73ffffffffffffffffffffffffffffffffffffffff1614611ed0576040517f08c379a0000000000000000000000000000000000000000000000000000000008152600401611ec790613f59565b60405180910390fd5b600073ffffffffffffffffffffffffffffffffffffffff168273ffffffffffffffffffffffffffffffffffffffff161415611f40576040517f08c379a0000000000000000000000000000000000000000000000000000000008152600401611f3790613db9565b60405180910390fd5b611f4b838383612709565b611f56600082611cc3565b6001600360008573ffffffffffffffffffffffffffffffffffffffff1673ffffffffffffffffffffffffffffffffffffffff1681526020019081526020016000206000828254611fa691906141ce565b925050819055506001600360008473ffffffffffffffffffffffffffffffffffffffff1673ffffffffffffffffffffffffffffffffffffffff1681526020019081526020016000206000828254611ffd91906140ed565b92505081905550816002600083815260200190815260200160002060006101000a81548173ffffffffffffffffffffffffffffffffffffffff021916908373ffffffffffffffffffffffffffffffffffffffff160217905550808273ffffffffffffffffffffffffffffffffffffffff168473ffffffffffffffffffffffffffffffffffffffff167fddf252ad1be2c89b69c2b068fc378daa952ba7f163c4a11628f55a4df523b3ef60405160405180910390a4505050565b804710156120f9576040517f08c379a00000000000000000000000000000000000000000000000000000000081526004016120f090613e19565b60405180910390fd5b60008273ffffffffffffffffffffffffffffffffffffffff168260405161211f90613b3c565b60006040518083038185875af1925050503d806000811461215c576040519150601f19603f3d011682016040523d82523d6000602084013e612161565b606091505b50509050806121a5576040517f08c379a000000000000000000000000000000000000000000000000000000000815260040161219c90613df9565b60405180910390fd5b505050565b6121b38161270e565b50565b600081600001549050919050565b6121de828260405180602001604052806000815250612761565b5050565b60608383836040516020016121f993929190613991565b6040516020818303038152906040528051906020012060405160200161221f91906139ce565b60405160208183030381529060405290509392505050565b61224082611c4f565b61227f576040517f08c379a000000000000000000000000000000000000000000000000000000000815260040161227690613eb9565b60405180910390fd5b806006600084815260200190815260200160002090805190602001906122a6929190612dce565b505050565b6001816000016000828254019250508190555050565b6000600760009054906101000a900473ffffffffffffffffffffffffffffffffffffffff16905081600760006101000a81548173ffffffffffffffffffffffffffffffffffffffff021916908373ffffffffffffffffffffffffffffffffffffffff1602179055508173ffffffffffffffffffffffffffffffffffffffff168173ffffffffffffffffffffffffffffffffffffffff167f8be0079c531659141344cd1fd0a4f28419497f9722a3daafe3b4186f6b6457e060405160405180910390a35050565b8173ffffffffffffffffffffffffffffffffffffffff168373ffffffffffffffffffffffffffffffffffffffff1614156123f6576040517f08c379a00000000000000000000000000000000000000000000000000000000081526004016123ed90613dd9565b60405180910390fd5b80600560008573ffffffffffffffffffffffffffffffffffffffff1673ffffffffffffffffffffffffffffffffffffffff16815260200190815260200160002060008473ffffffffffffffffffffffffffffffffffffffff1673ffffffffffffffffffffffffffffffffffffffff16815260200190815260200160002060006101000a81548160ff0219169083151502179055508173ffffffffffffffffffffffffffffffffffffffff168373ffffffffffffffffffffffffffffffffffffffff167f17307eab39ab6107e8899845ad3d59bd9653f200f220920489ca2b5937696c31836040516124e79190613cdc565b60405180910390a3505050565b6124ff848484611e5a565b61250b848484846127bc565b61254a576040517f08c379a000000000000000000000000000000000000000000000000000000000815260040161254190613d59565b60405180910390fd5b50505050565b606061255b82611c4f565b61259a576040517f08c379a000000000000000000000000000000000000000000000000000000000815260040161259190613ef9565b60405180910390fd5b60006006600084815260200190815260200160002080546125ba906142e1565b80601f01602080910402602001604051908101604052809291908181526020018280546125e6906142e1565b80156126335780601f1061260857610100808354040283529160200191612633565b820191906000526020600020905b81548152906001019060200180831161261657829003601f168201915b505050505090506000612644612953565b905060008151141561265a57819250505061269d565b60008251111561268f5780826040516020016126779291906139e9565b6040516020818303038152906040529250505061269d565b6126988461296a565b925050505b919050565b60006001826126b191906140ed565b835110156126f4576040517f08c379a00000000000000000000000000000000000000000000000000000000081526004016126eb90613fd9565b60405180910390fd5b60008260018501015190508091505092915050565b505050565b61271781612a11565b6000600660008381526020019081526020016000208054612737906142e1565b90501461275e5760066000828152602001908152602001600020600061275d9190612e54565b5b50565b61276b8383612b22565b61277860008484846127bc565b6127b7576040517f08c379a00000000000000000000000000000000000000000000000000000000081526004016127ae90613d59565b60405180910390fd5b505050565b60006127dd8473ffffffffffffffffffffffffffffffffffffffff16612cf0565b15612946578373ffffffffffffffffffffffffffffffffffffffff1663150b7a02612806611cbb565b8786866040518563ffffffff1660e01b81526004016128289493929190613c90565b602060405180830381600087803b15801561284257600080fd5b505af192505050801561287357506040513d601f19601f820116820180604052508101906128709190613152565b60015b6128f6573d80600081146128a3576040519150601f19603f3d011682016040523d82523d6000602084013e6128a8565b606091505b506000815114156128ee576040517f08c379a00000000000000000000000000000000000000000000000000000000081526004016128e590613d59565b60405180910390fd5b805181602001fd5b63150b7a0260e01b7bffffffffffffffffffffffffffffffffffffffffffffffffffffffff1916817bffffffffffffffffffffffffffffffffffffffffffffffffffffffff19161491505061294b565b600190505b949350505050565b606060405180602001604052806000815250905090565b606061297582611c4f565b6129b4576040517f08c379a00000000000000000000000000000000000000000000000000000000081526004016129ab90613f79565b60405180910390fd5b60006129be612953565b905060008151116129de5760405180602001604052806000815250612a09565b806129e8846114cf565b6040516020016129f99291906139e9565b6040516020818303038152906040525b915050919050565b6000612a1c82610e05565b9050612a2a81600084612709565b612a35600083611cc3565b6001600360008373ffffffffffffffffffffffffffffffffffffffff1673ffffffffffffffffffffffffffffffffffffffff1681526020019081526020016000206000828254612a8591906141ce565b925050819055506002600083815260200190815260200160002060006101000a81549073ffffffffffffffffffffffffffffffffffffffff021916905581600073ffffffffffffffffffffffffffffffffffffffff168273ffffffffffffffffffffffffffffffffffffffff167fddf252ad1be2c89b69c2b068fc378daa952ba7f163c4a11628f55a4df523b3ef60405160405180910390a45050565b600073ffffffffffffffffffffffffffffffffffffffff168273ffffffffffffffffffffffffffffffffffffffff161415612b92576040517f08c379a0000000000000000000000000000000000000000000000000000000008152600401612b8990613ed9565b60405180910390fd5b612b9b81611c4f565b15612bdb576040517f08c379a0000000000000000000000000000000000000000000000000000000008152600401612bd290613d99565b60405180910390fd5b612be760008383612709565b6001600360008473ffffffffffffffffffffffffffffffffffffffff1673ffffffffffffffffffffffffffffffffffffffff1681526020019081526020016000206000828254612c3791906140ed565b92505081905550816002600083815260200190815260200160002060006101000a81548173ffffffffffffffffffffffffffffffffffffffff021916908373ffffffffffffffffffffffffffffffffffffffff160217905550808273ffffffffffffffffffffffffffffffffffffffff16600073ffffffffffffffffffffffffffffffffffffffff167fddf252ad1be2c89b69c2b068fc378daa952ba7f163c4a11628f55a4df523b3ef60405160405180910390a45050565b600080823b905060008111915050919050565b604051806101200160405280600990602082028036833780820191505090505090565b828054612d32906142e1565b90600052602060002090601f016020900481019282612d545760008555612d9b565b82601f10612d6d57805160ff1916838001178555612d9b565b82800160010185558215612d9b579182015b82811115612d9a578251825591602001919060010190612d7f565b5b509050612da89190612e94565b5090565b6040518060c00160405280600690602082028036833780820191505090505090565b828054612dda906142e1565b90600052602060002090601f016020900481019282612dfc5760008555612e43565b82601f10612e1557805160ff1916838001178555612e43565b82800160010185558215612e43579182015b82811115612e42578251825591602001919060010190612e27565b5b509050612e509190612e94565b5090565b508054612e60906142e1565b6000825580601f10612e725750612e91565b601f016020900490600052602060002090810190612e909190612e94565b5b50565b5b80821115612ead576000816000905550600101612e95565b5090565b6000612ec4612ebf84614059565b614034565b905082815260208101848484011115612edc57600080fd5b612ee784828561429f565b509392505050565b600081359050612efe8161503b565b92915050565b600081359050612f1381615052565b92915050565b600081359050612f2881615069565b92915050565b600081519050612f3d81615069565b92915050565b600082601f830112612f5457600080fd5b8135612f64848260208601612eb1565b91505092915050565b600081359050612f7c81615080565b92915050565b600060208284031215612f9457600080fd5b6000612fa284828501612eef565b91505092915050565b60008060408385031215612fbe57600080fd5b6000612fcc85828601612eef565b9250506020612fdd85828601612eef565b9150509250929050565b600080600060608486031215612ffc57600080fd5b600061300a86828701612eef565b935050602061301b86828701612eef565b925050604061302c86828701612f6d565b9150509250925092565b6000806000806080858703121561304c57600080fd5b600061305a87828801612eef565b945050602061306b87828801612eef565b935050604061307c87828801612f6d565b925050606085013567ffffffffffffffff81111561309957600080fd5b6130a587828801612f43565b91505092959194509250565b600080604083850312156130c457600080fd5b60006130d285828601612eef565b92505060206130e385828601612f04565b9150509250929050565b6000806040838503121561310057600080fd5b600061310e85828601612eef565b925050602061311f85828601612f6d565b9150509250929050565b60006020828403121561313b57600080fd5b600061314984828501612f19565b91505092915050565b60006020828403121561316457600080fd5b600061317284828501612f2e565b91505092915050565b60006020828403121561318d57600080fd5b600061319b84828501612f6d565b91505092915050565b6131ad81614214565b82525050565b6131bc81614202565b82525050565b6131d36131ce82614202565b61438d565b82525050565b6131e281614226565b82525050565b6131f96131f482614232565b61439f565b82525050565b600061320a8261409f565b61321481856140b5565b93506132248185602086016142ae565b61322d816144e3565b840191505092915050565b6000613243826140aa565b61324d81856140d1565b935061325d8185602086016142ae565b613266816144e3565b840191505092915050565b600061327c826140aa565b61328681856140e2565b93506132968185602086016142ae565b80840191505092915050565b600081546132af816142e1565b6132b981866140e2565b945060018216600081146132d457600181146132e557613318565b60ff19831686528186019350613318565b6132ee8561408a565b60005b83811015613310578154818901526001820191506020810190506132f1565b838801955050505b50505092915050565b600061332e603c836140e2565b915061333982614501565b603c82019050919050565b60006133516011836140e2565b915061335c82614550565b601182019050919050565b60006133746011836140d1565b915061337f82614579565b602082019050919050565b60006133976009836140e2565b91506133a2826145a2565b600982019050919050565b60006133ba6015836140d1565b91506133c5826145cb565b602082019050919050565b60006133dd6032836140d1565b91506133e8826145f4565b604082019050919050565b60006134006026836140d1565b915061340b82614643565b604082019050919050565b6000613423600c836140e2565b915061342e82614692565b600c82019050919050565b6000613446601c836140d1565b9150613451826146bb565b602082019050919050565b60006134696048836140e2565b9150613474826146e4565b604882019050919050565b600061348c6007836140e2565b915061349782614759565b600782019050919050565b60006134af6024836140d1565b91506134ba82614782565b604082019050919050565b60006134d26019836140d1565b91506134dd826147d1565b602082019050919050565b60006134f5603a836140d1565b9150613500826147fa565b604082019050919050565b6000613518601d836140d1565b915061352382614849565b602082019050919050565b600061353b600f836140e2565b915061354682614872565b600f82019050919050565b600061355e602c836140d1565b91506135698261489b565b604082019050919050565b60006135816038836140d1565b915061358c826148ea565b604082019050919050565b60006135a46045836140e2565b91506135af82614939565b604582019050919050565b60006135c76004836140e2565b91506135d2826149ae565b600482019050919050565b60006135ea602a836140d1565b91506135f5826149d7565b604082019050919050565b600061360d6029836140d1565b915061361882614a26565b604082019050919050565b6000613630602e836140d1565b915061363b82614a75565b604082019050919050565b60006136536002836140e2565b915061365e82614ac4565b600282019050919050565b60006136766020836140d1565b915061368182614aed565b602082019050919050565b6000613699605e836140e2565b91506136a482614b16565b605e82019050919050565b60006136bc600d836140e2565b91506136c782614b8b565b600d82019050919050565b60006136df6031836140d1565b91506136ea82614bb4565b604082019050919050565b6000613702602c836140d1565b915061370d82614c03565b604082019050919050565b6000613725603f836140e2565b915061373082614c52565b603f82019050919050565b60006137486012836140e2565b915061375382614ca1565b601282019050919050565b600061376b6020836140d1565b915061377682614cca565b602082019050919050565b600061378e6001836140e2565b915061379982614cf3565b600182019050919050565b60006137b16029836140d1565b91506137bc82614d1c565b604082019050919050565b60006137d4602f836140d1565b91506137df82614d6b565b604082019050919050565b60006137f76043836140e2565b915061380282614dba565b604382019050919050565b600061381a6001836140e2565b915061382582614e2f565b600182019050919050565b600061383d6021836140d1565b915061384882614e58565b604082019050919050565b6000613860601d836140e2565b915061386b82614ea7565b601d82019050919050565b60006138836000836140c6565b915061388e82614ed0565b600082019050919050565b60006138a66031836140d1565b91506138b182614ed3565b604082019050919050565b60006138c96013836140d1565b91506138d482614f22565b602082019050919050565b60006138ec603e836140e2565b91506138f782614f4b565b603e82019050919050565b600061390f6006836140e2565b915061391a82614f9a565b600682019050919050565b60006139326030836140d1565b915061393d82614fc3565b604082019050919050565b6000613955601a836140e2565b915061396082615012565b601a82019050919050565b61397481614288565b82525050565b61398b61398682614288565b6143bb565b82525050565b600061399d82866131c2565b6014820191506139ad828561397a565b6020820191506139bd828461397a565b602082019150819050949350505050565b60006139da82846131e8565b60208201915081905092915050565b60006139f58285613271565b9150613a018284613271565b91508190509392505050565b6000613a188261338a565b9150613a248287613271565b9150613a2f8261373b565b9150613a3b8286613271565b9150613a46826136af565b9150613a528285613271565b9150613a5d82613344565b9150613a698284613271565b9150613a7482613646565b915081905095945050505050565b6000613a8d8261347f565b9150613a998284613271565b915081905092915050565b6000613aaf8261352e565b9150613abb82856132a2565b9150613ac682613416565b9150613ad2828461397a565b602082019150613ae182613646565b91508190509392505050565b6000613af882613781565b9150613b048284613271565b9150613b0f8261380d565b915081905092915050565b6000613b2582613853565b9150613b318284613271565b915081905092915050565b6000613b4782613876565b9150819050919050565b6000613b5c826138df565b9150613b6782613321565b9150613b7382896132a2565b9150613b7e826137ea565b9150613b8a82886132a2565b9150613b95826135ba565b9150613ba082613597565b9150613bac82876132a2565b9150613bb7826135ba565b9150613bc282613718565b9150613bce82866132a2565b9150613bd9826135ba565b9150613be48261368c565b9150613bf082856132a2565b9150613bfb826135ba565b9150613c068261345c565b9150613c1282846132a2565b9150613c1d826135ba565b9150613c2882613902565b9150819050979650505050505050565b6000613c4382613948565b9150613c4f8284613271565b915081905092915050565b6000602082019050613c6f60008301846131b3565b92915050565b6000602082019050613c8a60008301846131a4565b92915050565b6000608082019050613ca560008301876131b3565b613cb260208301866131b3565b613cbf604083018561396b565b8181036060830152613cd181846131ff565b905095945050505050565b6000602082019050613cf160008301846131d9565b92915050565b60006020820190508181036000830152613d118184613238565b905092915050565b60006020820190508181036000830152613d3281613367565b9050919050565b60006020820190508181036000830152613d52816133ad565b9050919050565b60006020820190508181036000830152613d72816133d0565b9050919050565b60006020820190508181036000830152613d92816133f3565b9050919050565b60006020820190508181036000830152613db281613439565b9050919050565b60006020820190508181036000830152613dd2816134a2565b9050919050565b60006020820190508181036000830152613df2816134c5565b9050919050565b60006020820190508181036000830152613e12816134e8565b9050919050565b60006020820190508181036000830152613e328161350b565b9050919050565b60006020820190508181036000830152613e5281613551565b9050919050565b60006020820190508181036000830152613e7281613574565b9050919050565b60006020820190508181036000830152613e92816135dd565b9050919050565b60006020820190508181036000830152613eb281613600565b9050919050565b60006020820190508181036000830152613ed281613623565b9050919050565b60006020820190508181036000830152613ef281613669565b9050919050565b60006020820190508181036000830152613f12816136d2565b9050919050565b60006020820190508181036000830152613f32816136f5565b9050919050565b60006020820190508181036000830152613f528161375e565b9050919050565b60006020820190508181036000830152613f72816137a4565b9050919050565b60006020820190508181036000830152613f92816137c7565b9050919050565b60006020820190508181036000830152613fb281613830565b9050919050565b60006020820190508181036000830152613fd281613899565b9050919050565b60006020820190508181036000830152613ff2816138bc565b9050919050565b6000602082019050818103600083015261401281613925565b9050919050565b600060208201905061402e600083018461396b565b92915050565b600061403e61404f565b905061404a8282614313565b919050565b6000604051905090565b600067ffffffffffffffff821115614074576140736144b4565b5b61407d826144e3565b9050602081019050919050565b60008190508160005260206000209050919050565b600081519050919050565b600081519050919050565b600082825260208201905092915050565b600081905092915050565b600082825260208201905092915050565b600081905092915050565b60006140f882614288565b915061410383614288565b9250827fffffffffffffffffffffffffffffffffffffffffffffffffffffffffffffffff0382111561413857614137614427565b5b828201905092915050565b600061414e82614288565b915061415983614288565b92508261416957614168614456565b5b828204905092915050565b600061417f82614288565b915061418a83614288565b9250817fffffffffffffffffffffffffffffffffffffffffffffffffffffffffffffffff04831182151516156141c3576141c2614427565b5b828202905092915050565b60006141d982614288565b91506141e483614288565b9250828210156141f7576141f6614427565b5b828203905092915050565b600061420d82614268565b9050919050565b600061421f82614268565b9050919050565b60008115159050919050565b6000819050919050565b60007fffffffff0000000000000000000000000000000000000000000000000000000082169050919050565b600073ffffffffffffffffffffffffffffffffffffffff82169050919050565b6000819050919050565b600060ff82169050919050565b82818337600083830152505050565b60005b838110156142cc5780820151818401526020810190506142b1565b838111156142db576000848401525b50505050565b600060028204905060018216806142f957607f821691505b6020821081141561430d5761430c614485565b5b50919050565b61431c826144e3565b810181811067ffffffffffffffff8211171561433b5761433a6144b4565b5b80604052505050565b600061434f82614288565b91507fffffffffffffffffffffffffffffffffffffffffffffffffffffffffffffffff82141561438257614381614427565b5b600182019050919050565b6000614398826143a9565b9050919050565b6000819050919050565b60006143b4826144f4565b9050919050565b6000819050919050565b60006143d082614288565b91506143db83614288565b9250826143eb576143ea614456565b5b828206905092915050565b600061440182614292565b915061440c83614292565b92508261441c5761441b614456565b5b828206905092915050565b7f4e487b7100000000000000000000000000000000000000000000000000000000600052601160045260246000fd5b7f4e487b7100000000000000000000000000000000000000000000000000000000600052601260045260246000fd5b7f4e487b7100000000000000000000000000000000000000000000000000000000600052602260045260246000fd5b7f4e487b7100000000000000000000000000000000000000000000000000000000600052604160045260246000fd5b6000601f19601f8301169050919050565b60008160601b9050919050565b7f3c7061746820643d224d302030683139347633383848307a222073686170655260008201527f656e646572696e673d2263726973704564676573222066696c6c3d2200000000602082015250565b7f222c202261747472696275746573223a22000000000000000000000000000000600082015250565b7f4d617820737570706c79206d696e746564000000000000000000000000000000600082015250565b7f7b226e616d65223a220000000000000000000000000000000000000000000000600082015250565b7f4e6f7420656e6f7567682066756e64732073656e740000000000000000000000600082015250565b7f4552433732313a207472616e7366657220746f206e6f6e20455243373231526560008201527f63656976657220696d706c656d656e7465720000000000000000000000000000602082015250565b7f4f776e61626c653a206e6577206f776e657220697320746865207a65726f206160008201527f6464726573730000000000000000000000000000000000000000000000000000602082015250565b7f222c202276616c7565223a220000000000000000000000000000000000000000600082015250565b7f4552433732313a20746f6b656e20616c7265616479206d696e74656400000000600082015250565b7f3c7061746820643d224d313934203239302e35563139346834387639362e356860008201527f2d34385a2220736861706552656e646572696e673d226372697370456467657360208201527f222066696c6c3d22000000000000000000000000000000000000000000000000604082015250565b7f5368616570202300000000000000000000000000000000000000000000000000600082015250565b7f4552433732313a207472616e7366657220746f20746865207a65726f2061646460008201527f7265737300000000000000000000000000000000000000000000000000000000602082015250565b7f4552433732313a20617070726f766520746f2063616c6c657200000000000000600082015250565b7f416464726573733a20756e61626c6520746f2073656e642076616c75652c207260008201527f6563697069656e74206d61792068617665207265766572746564000000000000602082015250565b7f416464726573733a20696e73756666696369656e742062616c616e6365000000600082015250565b7f7b2274726169745f74797065223a220000000000000000000000000000000000600082015250565b7f4552433732313a206f70657261746f7220717565727920666f72206e6f6e657860008201527f697374656e7420746f6b656e0000000000000000000000000000000000000000602082015250565b7f4552433732313a20617070726f76652063616c6c6572206973206e6f74206f7760008201527f6e6572206e6f7220617070726f76656420666f7220616c6c0000000000000000602082015250565b7f3c7061746820643d224d3937203139332e373563302035332e3433342034332e60008201527f3536362039362e37352039372039362e3735762d39362e37354839375a22206660208201527f696c6c3d22000000000000000000000000000000000000000000000000000000604082015250565b7f22202f3e00000000000000000000000000000000000000000000000000000000600082015250565b7f4552433732313a2062616c616e636520717565727920666f7220746865207a6560008201527f726f206164647265737300000000000000000000000000000000000000000000602082015250565b7f4552433732313a206f776e657220717565727920666f72206e6f6e657869737460008201527f656e7420746f6b656e0000000000000000000000000000000000000000000000602082015250565b7f45524337323155524953746f726167653a2055524920736574206f66206e6f6e60008201527f6578697374656e7420746f6b656e000000000000000000000000000000000000602082015250565b7f227d000000000000000000000000000000000000000000000000000000000000600082015250565b7f4552433732313a206d696e7420746f20746865207a65726f2061646472657373600082015250565b7f3c7061746820643d224d393720313934762d2e3235433937203134302e33313660008201527f203134302e333136203937203139332e37352039377339362e37352034332e3360208201527f31362039362e37352039362e3735762e32354839375a222066696c6c3d220000604082015250565b7f222c2022696d616765223a202200000000000000000000000000000000000000600082015250565b7f45524337323155524953746f726167653a2055524920717565727920666f722060008201527f6e6f6e6578697374656e7420746f6b656e000000000000000000000000000000602082015250565b7f4552433732313a20617070726f76656420717565727920666f72206e6f6e657860008201527f697374656e7420746f6b656e0000000000000000000000000000000000000000602082015250565b7f3c7061746820643d224d363920363968313235763132354836397a222073686160008201527f706552656e646572696e673d2263726973704564676573222066696c6c3d2200602082015250565b7f222c20226465736372697074696f6e223a220000000000000000000000000000600082015250565b7f4f776e61626c653a2063616c6c6572206973206e6f7420746865206f776e6572600082015250565b7f5b00000000000000000000000000000000000000000000000000000000000000600082015250565b7f4552433732313a207472616e73666572206f6620746f6b656e2074686174206960008201527f73206e6f74206f776e0000000000000000000000000000000000000000000000602082015250565b7f4552433732314d657461646174613a2055524920717565727920666f72206e6f60008201527f6e6578697374656e7420746f6b656e0000000000000000000000000000000000602082015250565b7f222f3e3c7061746820643d224d31393420306831393476333838483139347a2260008201527f20736861706552656e646572696e673d2263726973704564676573222066696c60208201527f6c3d220000000000000000000000000000000000000000000000000000000000604082015250565b7f5d00000000000000000000000000000000000000000000000000000000000000600082015250565b7f4552433732313a20617070726f76616c20746f2063757272656e74206f776e6560008201527f7200000000000000000000000000000000000000000000000000000000000000602082015250565b7f646174613a6170706c69636174696f6e2f6a736f6e3b6261736536342c000000600082015250565b50565b7f4552433732313a207472616e736665722063616c6c6572206973206e6f74206f60008201527f776e6572206e6f7220617070726f766564000000000000000000000000000000602082015250565b7f746f55696e74385f6f75744f66426f756e647300000000000000000000000000600082015250565b7f3c7376672076696577426f783d2230203020333838203338382220786d6c6e7360008201527f3d22687474703a2f2f7777772e77332e6f72672f323030302f737667223e0000602082015250565b7f3c2f7376673e0000000000000000000000000000000000000000000000000000600082015250565b7f4552433732314275726e61626c653a2063616c6c6572206973206e6f74206f7760008201527f6e6572206e6f7220617070726f76656400000000000000000000000000000000602082015250565b7f646174613a696d6167652f7376672b786d6c3b6261736536342c000000000000600082015250565b61504481614202565b811461504f57600080fd5b50565b61505b81614226565b811461506657600080fd5b50565b6150728161423c565b811461507d57600080fd5b50565b61508981614288565b811461509457600080fd5b5056fe4142434445464748494a4b4c4d4e4f505152535455565758595a6162636465666768696a6b6c6d6e6f707172737475767778797a303132333435363738392b2fa26469706673582212205c2a98860041d775aade3c1671bd5d63d1865ca47039aa4a7571a80487c8080264736f6c63430008040033",
  "linkReferences": {},
  "deployedLinkReferences": {}
}