{
  "_format": "hh-sol-artifact-1",
  "contractName": "Shaeps",
  "sourceName": "contracts/Shaeps.sol",
  "abi": [
    {
      "inputs": [
        {
          "internalType": "string",
          "name": "_name",
          "type": "string"
        },
        {
          "internalType": "string",
          "name": "_symbol",
          "type": "string"
        },
        {
          "internalType": "address payable",
          "name": "_collector",
          "type": "address"
        },
        {
          "internalType": "bool",
          "name": "_paused",
          "type": "bool"
        }
      ],
      "stateMutability": "nonpayable",
      "type": "constructor"
    },
    {
      "anonymous": false,
      "inputs": [
        {
          "indexed": true,
          "internalType": "address",
          "name": "owner",
          "type": "address"
        },
        {
          "indexed": true,
          "internalType": "address",
          "name": "approved",
          "type": "address"
        },
        {
          "indexed": true,
          "internalType": "uint256",
          "name": "tokenId",
          "type": "uint256"
        }
      ],
      "name": "Approval",
      "type": "event"
    },
    {
      "anonymous": false,
      "inputs": [
        {
          "indexed": true,
          "internalType": "address",
          "name": "owner",
          "type": "address"
        },
        {
          "indexed": true,
          "internalType": "address",
          "name": "operator",
          "type": "address"
        },
        {
          "indexed": false,
          "internalType": "bool",
          "name": "approved",
          "type": "bool"
        }
      ],
      "name": "ApprovalForAll",
      "type": "event"
    },
    {
      "anonymous": false,
      "inputs": [
        {
          "indexed": false,
          "internalType": "address",
          "name": "to",
          "type": "address"
        },
        {
          "indexed": false,
          "internalType": "uint256",
          "name": "tokenId",
          "type": "uint256"
        }
      ],
      "name": "Minted",
      "type": "event"
    },
    {
      "anonymous": false,
      "inputs": [
        {
          "indexed": true,
          "internalType": "address",
          "name": "previousOwner",
          "type": "address"
        },
        {
          "indexed": true,
          "internalType": "address",
          "name": "newOwner",
          "type": "address"
        }
      ],
      "name": "OwnershipTransferred",
      "type": "event"
    },
    {
      "anonymous": false,
      "inputs": [
        {
          "indexed": true,
          "internalType": "address",
          "name": "from",
          "type": "address"
        },
        {
          "indexed": true,
          "internalType": "address",
          "name": "to",
          "type": "address"
        },
        {
          "indexed": true,
          "internalType": "uint256",
          "name": "tokenId",
          "type": "uint256"
        }
      ],
      "name": "Transfer",
      "type": "event"
    },
    {
      "inputs": [
        {
          "internalType": "address",
          "name": "to",
          "type": "address"
        },
        {
          "internalType": "uint256",
          "name": "tokenId",
          "type": "uint256"
        }
      ],
      "name": "approve",
      "outputs": [],
      "stateMutability": "nonpayable",
      "type": "function"
    },
    {
      "inputs": [
        {
          "internalType": "address",
          "name": "owner",
          "type": "address"
        }
      ],
      "name": "balanceOf",
      "outputs": [
        {
          "internalType": "uint256",
          "name": "",
          "type": "uint256"
        }
      ],
      "stateMutability": "view",
      "type": "function"
    },
    {
      "inputs": [],
      "name": "collector",
      "outputs": [
        {
          "internalType": "address payable",
          "name": "",
          "type": "address"
        }
      ],
      "stateMutability": "view",
      "type": "function"
    },
    {
      "inputs": [
        {
          "internalType": "uint256",
          "name": "tokenId",
          "type": "uint256"
        }
      ],
      "name": "generateMetadata",
      "outputs": [
        {
          "internalType": "string",
          "name": "",
          "type": "string"
        }
      ],
      "stateMutability": "view",
      "type": "function"
    },
    {
      "inputs": [
        {
          "internalType": "uint256",
          "name": "tokenId",
          "type": "uint256"
        }
      ],
      "name": "generateSvg",
      "outputs": [
        {
          "internalType": "string",
          "name": "",
          "type": "string"
        }
      ],
      "stateMutability": "view",
      "type": "function"
    },
    {
      "inputs": [
        {
          "internalType": "uint256",
          "name": "tokenId",
          "type": "uint256"
        }
      ],
      "name": "getApproved",
      "outputs": [
        {
          "internalType": "address",
          "name": "",
          "type": "address"
        }
      ],
      "stateMutability": "view",
      "type": "function"
    },
    {
      "inputs": [
        {
          "internalType": "address",
          "name": "owner",
          "type": "address"
        },
        {
          "internalType": "address",
          "name": "operator",
          "type": "address"
        }
      ],
      "name": "isApprovedForAll",
      "outputs": [
        {
          "internalType": "bool",
          "name": "",
          "type": "bool"
        }
      ],
      "stateMutability": "view",
      "type": "function"
    },
    {
      "inputs": [],
      "name": "maxSupply",
      "outputs": [
        {
          "internalType": "uint256",
          "name": "",
          "type": "uint256"
        }
      ],
      "stateMutability": "view",
      "type": "function"
    },
    {
      "inputs": [
        {
          "internalType": "address",
          "name": "to",
          "type": "address"
        }
      ],
      "name": "mint",
      "outputs": [],
      "stateMutability": "payable",
      "type": "function"
    },
    {
      "inputs": [],
      "name": "mintedSupply",
      "outputs": [
        {
          "internalType": "uint256",
          "name": "",
          "type": "uint256"
        }
      ],
      "stateMutability": "view",
      "type": "function"
    },
    {
      "inputs": [],
      "name": "name",
      "outputs": [
        {
          "internalType": "string",
          "name": "",
          "type": "string"
        }
      ],
      "stateMutability": "view",
      "type": "function"
    },
    {
      "inputs": [],
      "name": "owner",
      "outputs": [
        {
          "internalType": "address",
          "name": "",
          "type": "address"
        }
      ],
      "stateMutability": "view",
      "type": "function"
    },
    {
      "inputs": [
        {
          "internalType": "uint256",
          "name": "tokenId",
          "type": "uint256"
        }
      ],
      "name": "ownerOf",
      "outputs": [
        {
          "internalType": "address",
          "name": "",
          "type": "address"
        }
      ],
      "stateMutability": "view",
      "type": "function"
    },
    {
      "inputs": [],
      "name": "pause",
      "outputs": [],
      "stateMutability": "nonpayable",
      "type": "function"
    },
    {
      "inputs": [],
      "name": "paused",
      "outputs": [
        {
          "internalType": "bool",
          "name": "",
          "type": "bool"
        }
      ],
      "stateMutability": "view",
      "type": "function"
    },
    {
      "inputs": [],
      "name": "price",
      "outputs": [
        {
          "internalType": "uint256",
          "name": "",
          "type": "uint256"
        }
      ],
      "stateMutability": "view",
      "type": "function"
    },
    {
      "inputs": [],
      "name": "renounceOwnership",
      "outputs": [],
      "stateMutability": "nonpayable",
      "type": "function"
    },
    {
      "inputs": [
        {
          "internalType": "address",
          "name": "from",
          "type": "address"
        },
        {
          "internalType": "address",
          "name": "to",
          "type": "address"
        },
        {
          "internalType": "uint256",
          "name": "tokenId",
          "type": "uint256"
        }
      ],
      "name": "safeTransferFrom",
      "outputs": [],
      "stateMutability": "nonpayable",
      "type": "function"
    },
    {
      "inputs": [
        {
          "internalType": "address",
          "name": "from",
          "type": "address"
        },
        {
          "internalType": "address",
          "name": "to",
          "type": "address"
        },
        {
          "internalType": "uint256",
          "name": "tokenId",
          "type": "uint256"
        },
        {
          "internalType": "bytes",
          "name": "_data",
          "type": "bytes"
        }
      ],
      "name": "safeTransferFrom",
      "outputs": [],
      "stateMutability": "nonpayable",
      "type": "function"
    },
    {
      "inputs": [
        {
          "internalType": "address",
          "name": "operator",
          "type": "address"
        },
        {
          "internalType": "bool",
          "name": "approved",
          "type": "bool"
        }
      ],
      "name": "setApprovalForAll",
      "outputs": [],
      "stateMutability": "nonpayable",
      "type": "function"
    },
    {
      "inputs": [
        {
          "internalType": "uint256",
          "name": "_price",
          "type": "uint256"
        }
      ],
      "name": "setPrice",
      "outputs": [],
      "stateMutability": "nonpayable",
      "type": "function"
    },
    {
      "inputs": [
        {
          "internalType": "bytes4",
          "name": "interfaceId",
          "type": "bytes4"
        }
      ],
      "name": "supportsInterface",
      "outputs": [
        {
          "internalType": "bool",
          "name": "",
          "type": "bool"
        }
      ],
      "stateMutability": "view",
      "type": "function"
    },
    {
      "inputs": [],
      "name": "symbol",
      "outputs": [
        {
          "internalType": "string",
          "name": "",
          "type": "string"
        }
      ],
      "stateMutability": "view",
      "type": "function"
    },
    {
      "inputs": [
        {
          "internalType": "uint256",
          "name": "tokenId",
          "type": "uint256"
        }
      ],
      "name": "tokenURI",
      "outputs": [
        {
          "internalType": "string",
          "name": "",
          "type": "string"
        }
      ],
      "stateMutability": "view",
      "type": "function"
    },
    {
      "inputs": [
        {
          "internalType": "address",
          "name": "from",
          "type": "address"
        },
        {
          "internalType": "address",
          "name": "to",
          "type": "address"
        },
        {
          "internalType": "uint256",
          "name": "tokenId",
          "type": "uint256"
        }
      ],
      "name": "transferFrom",
      "outputs": [],
      "stateMutability": "nonpayable",
      "type": "function"
    },
    {
      "inputs": [
        {
          "internalType": "address",
          "name": "newOwner",
          "type": "address"
        }
      ],
      "name": "transferOwnership",
      "outputs": [],
      "stateMutability": "nonpayable",
      "type": "function"
    },
    {
      "inputs": [],
      "name": "unpause",
      "outputs": [],
      "stateMutability": "nonpayable",
      "type": "function"
    },
    {
      "inputs": [],
      "name": "withdraw",
      "outputs": [],
      "stateMutability": "nonpayable",
      "type": "function"
    }
  ],
  "bytecode": "0x6080604052670de0b6b3a76400006009556040518061012001604052806040518060400160405280600781526020017f234542353735370000000000000000000000000000000000000000000000000081525081526020016040518060400160405280600781526020017f234632393934410000000000000000000000000000000000000000000000000081525081526020016040518060400160405280600781526020017f234632433934430000000000000000000000000000000000000000000000000081525081526020016040518060400160405280600781526020017f233646434639370000000000000000000000000000000000000000000000000081525081526020016040518060400160405280600781526020017f233536434346320000000000000000000000000000000000000000000000000081525081526020016040518060400160405280600781526020017f233246383045440000000000000000000000000000000000000000000000000081525081526020016040518060400160405280600781526020017f233942353145300000000000000000000000000000000000000000000000000081525081526020016040518060400160405280600481526020017f234646460000000000000000000000000000000000000000000000000000000081525081526020016040518060400160405280600481526020017f2331313100000000000000000000000000000000000000000000000000000000815250815250600c9060096200023f9291906200062c565b506040518061012001604052806040518060400160405280600381526020017f526564000000000000000000000000000000000000000000000000000000000081525081526020016040518060400160405280600681526020017f4f72616e6765000000000000000000000000000000000000000000000000000081525081526020016040518060400160405280600681526020017f59656c6c6f77000000000000000000000000000000000000000000000000000081525081526020016040518060400160405280600581526020017f477265656e00000000000000000000000000000000000000000000000000000081525081526020016040518060400160405280600a81526020017f4c6967687420426c75650000000000000000000000000000000000000000000081525081526020016040518060400160405280600481526020017f426c75650000000000000000000000000000000000000000000000000000000081525081526020016040518060400160405280600681526020017f507572706c65000000000000000000000000000000000000000000000000000081525081526020016040518060400160405280600581526020017f576869746500000000000000000000000000000000000000000000000000000081525081526020016040518060400160405280600581526020017f426c61636b00000000000000000000000000000000000000000000000000000081525081525060159060096200046f9291906200062c565b503480156200047d57600080fd5b5060405162005fb938038062005fb98339818101604052810190620004a3919062000844565b83838160009080519060200190620004bd92919062000686565b508060019080519060200190620004d692919062000686565b505050620004f9620004ed6200055e60201b60201c565b6200056660201b60201c565b81600a60016101000a81548173ffffffffffffffffffffffffffffffffffffffff021916908373ffffffffffffffffffffffffffffffffffffffff16021790555080600a60006101000a81548160ff0219169083151502179055505050505062000ac6565b600033905090565b6000600760009054906101000a900473ffffffffffffffffffffffffffffffffffffffff16905081600760006101000a81548173ffffffffffffffffffffffffffffffffffffffff021916908373ffffffffffffffffffffffffffffffffffffffff1602179055508173ffffffffffffffffffffffffffffffffffffffff168173ffffffffffffffffffffffffffffffffffffffff167f8be0079c531659141344cd1fd0a4f28419497f9722a3daafe3b4186f6b6457e060405160405180910390a35050565b826009810192821562000673579160200282015b82811115620006725782518290805190602001906200066192919062000686565b509160200191906001019062000640565b5b50905062000682919062000717565b5090565b8280546200069490620009b7565b90600052602060002090601f016020900481019282620006b8576000855562000704565b82601f10620006d357805160ff191683800117855562000704565b8280016001018555821562000704579182015b8281111562000703578251825591602001919060010190620006e6565b5b5090506200071391906200073f565b5090565b5b808211156200073b57600081816200073191906200075e565b5060010162000718565b5090565b5b808211156200075a57600081600090555060010162000740565b5090565b5080546200076c90620009b7565b6000825580601f10620007805750620007a1565b601f016020900490600052602060002090810190620007a091906200073f565b5b50565b6000620007bb620007b5846200090b565b620008e2565b905082815260208101848484011115620007d457600080fd5b620007e184828562000981565b509392505050565b600081519050620007fa8162000a92565b92915050565b600081519050620008118162000aac565b92915050565b600082601f8301126200082957600080fd5b81516200083b848260208601620007a4565b91505092915050565b600080600080608085870312156200085b57600080fd5b600085015167ffffffffffffffff8111156200087657600080fd5b620008848782880162000817565b945050602085015167ffffffffffffffff811115620008a257600080fd5b620008b08782880162000817565b9350506040620008c387828801620007e9565b9250506060620008d68782880162000800565b91505092959194509250565b6000620008ee62000901565b9050620008fc8282620009ed565b919050565b6000604051905090565b600067ffffffffffffffff82111562000929576200092862000a52565b5b620009348262000a81565b9050602081019050919050565b60006200094e8262000961565b9050919050565b60008115159050919050565b600073ffffffffffffffffffffffffffffffffffffffff82169050919050565b60005b83811015620009a157808201518184015260208101905062000984565b83811115620009b1576000848401525b50505050565b60006002820490506001821680620009d057607f821691505b60208210811415620009e757620009e662000a23565b5b50919050565b620009f88262000a81565b810181811067ffffffffffffffff8211171562000a1a5762000a1962000a52565b5b80604052505050565b7f4e487b7100000000000000000000000000000000000000000000000000000000600052602260045260246000fd5b7f4e487b7100000000000000000000000000000000000000000000000000000000600052604160045260246000fd5b6000601f19601f8301169050919050565b62000a9d8162000941565b811462000aa957600080fd5b50565b62000ab78162000955565b811462000ac357600080fd5b50565b6154e38062000ad66000396000f3fe6080604052600436106101b75760003560e01c80638456cb59116100ec578063b88d4fde1161008a578063c87b56dd11610064578063c87b56dd146105c5578063d5abeb0114610602578063e985e9c51461062d578063f2fde38b1461066a576101b7565b8063b88d4fde14610534578063bc921dc21461055d578063c1bd8cf91461059a576101b7565b806391b7f5ed116100c657806391b7f5ed1461048c57806395d89b41146104b5578063a035b1fe146104e0578063a22cb4651461050b576101b7565b80638456cb591461041f5780638da5cb5b14610436578063913e77ad14610461576101b7565b80633f4ba83a116101595780636352211e116101335780636352211e146103725780636a627842146103af57806370a08231146103cb578063715018a614610408576101b7565b80633f4ba83a1461030757806342842e0e1461031e5780635c975abb14610347576101b7565b8063081812fc11610195578063081812fc14610261578063095ea7b31461029e57806323b872dd146102c75780633ccfd60b146102f0576101b7565b8063015e1a0b146101bc57806301ffc9a7146101f957806306fdde0314610236575b600080fd5b3480156101c857600080fd5b506101e360048036038101906101de91906133a0565b610693565b6040516101f09190614029565b60405180910390f35b34801561020557600080fd5b50610220600480360381019061021b919061334e565b61081b565b60405161022d919061400e565b60405180910390f35b34801561024257600080fd5b5061024b6108fd565b6040516102589190614029565b60405180910390f35b34801561026d57600080fd5b50610288600480360381019061028391906133a0565b61098f565b6040516102959190613f63565b60405180910390f35b3480156102aa57600080fd5b506102c560048036038101906102c09190613312565b610a14565b005b3480156102d357600080fd5b506102ee60048036038101906102e9919061320c565b610b2c565b005b3480156102fc57600080fd5b50610305610b8c565b005b34801561031357600080fd5b5061031c610c36565b005b34801561032a57600080fd5b506103456004803603810190610340919061320c565b610ccf565b005b34801561035357600080fd5b5061035c610cef565b604051610369919061400e565b60405180910390f35b34801561037e57600080fd5b50610399600480360381019061039491906133a0565b610d02565b6040516103a69190613f63565b60405180910390f35b6103c960048036038101906103c491906131a7565b610db4565b005b3480156103d757600080fd5b506103f260048036038101906103ed91906131a7565b610f3c565b6040516103ff919061434b565b60405180910390f35b34801561041457600080fd5b5061041d610ff4565b005b34801561042b57600080fd5b5061043461107c565b005b34801561044257600080fd5b5061044b611115565b6040516104589190613f63565b60405180910390f35b34801561046d57600080fd5b5061047661113f565b6040516104839190613f7e565b60405180910390f35b34801561049857600080fd5b506104b360048036038101906104ae91906133a0565b611165565b005b3480156104c157600080fd5b506104ca6111f8565b6040516104d79190614029565b60405180910390f35b3480156104ec57600080fd5b506104f561128a565b604051610502919061434b565b60405180910390f35b34801561051757600080fd5b50610532600480360381019061052d91906132d6565b611290565b005b34801561054057600080fd5b5061055b6004803603810190610556919061325b565b6112a6565b005b34801561056957600080fd5b50610584600480360381019061057f91906133a0565b611308565b6040516105919190614029565b60405180910390f35b3480156105a657600080fd5b506105af6113c3565b6040516105bc919061434b565b60405180910390f35b3480156105d157600080fd5b506105ec60048036038101906105e791906133a0565b6113d4565b6040516105f99190614029565b60405180910390f35b34801561060e57600080fd5b506106176113e6565b604051610624919061434b565b60405180910390f35b34801561063957600080fd5b50610654600480360381019061064f91906131d0565b6113eb565b604051610661919061400e565b60405180910390f35b34801561067657600080fd5b50610691600480360381019061068c91906131a7565b61147f565b005b606060006106ac6001846106a7919061441f565b611577565b6040516020016106bc9190613d62565b604051602081830303815290604052905060006106d9606f611577565b6040516020016106e99190613f14565b60405160208183030381529060405290506000600b6000868152602001908152602001600020805461071a90614613565b80601f016020809104026020016040519081016040528092919081815260200182805461074690614613565b80156107935780601f1061076857610100808354040283529160200191610793565b820191906000526020600020905b81548152906001019060200180831161077657829003601f168201915b5050505050905060006107a582611724565b905060006107b2826117b8565b905060006107bf83611ae2565b90506107ef868684846040516020016107db9493929190613ced565b604051602081830303815290604052611de3565b6040516020016107ff9190613df6565b6040516020818303038152906040529650505050505050919050565b60007f80ac58cd000000000000000000000000000000000000000000000000000000007bffffffffffffffffffffffffffffffffffffffffffffffffffffffff1916827bffffffffffffffffffffffffffffffffffffffffffffffffffffffff191614806108e657507f5b5e139f000000000000000000000000000000000000000000000000000000007bffffffffffffffffffffffffffffffffffffffffffffffffffffffff1916827bffffffffffffffffffffffffffffffffffffffffffffffffffffffff1916145b806108f657506108f582611f8e565b5b9050919050565b60606000805461090c90614613565b80601f016020809104026020016040519081016040528092919081815260200182805461093890614613565b80156109855780601f1061095a57610100808354040283529160200191610985565b820191906000526020600020905b81548152906001019060200180831161096857829003601f168201915b5050505050905090565b600061099a82611ff8565b6109d9576040517f08c379a00000000000000000000000000000000000000000000000000000000081526004016109d09061422b565b60405180910390fd5b6004600083815260200190815260200160002060009054906101000a900473ffffffffffffffffffffffffffffffffffffffff169050919050565b6000610a1f82610d02565b90508073ffffffffffffffffffffffffffffffffffffffff168373ffffffffffffffffffffffffffffffffffffffff161415610a90576040517f08c379a0000000000000000000000000000000000000000000000000000000008152600401610a87906142ab565b60405180910390fd5b8073ffffffffffffffffffffffffffffffffffffffff16610aaf612064565b73ffffffffffffffffffffffffffffffffffffffff161480610ade5750610add81610ad8612064565b6113eb565b5b610b1d576040517f08c379a0000000000000000000000000000000000000000000000000000000008152600401610b149061416b565b60405180910390fd5b610b27838361206c565b505050565b610b3d610b37612064565b82612125565b610b7c576040517f08c379a0000000000000000000000000000000000000000000000000000000008152600401610b73906142cb565b60405180910390fd5b610b87838383612203565b505050565b610b94612064565b73ffffffffffffffffffffffffffffffffffffffff16610bb2611115565b73ffffffffffffffffffffffffffffffffffffffff1614610c08576040517f08c379a0000000000000000000000000000000000000000000000000000000008152600401610bff9061424b565b60405180910390fd5b610c34600a60019054906101000a900473ffffffffffffffffffffffffffffffffffffffff164761245f565b565b610c3e612064565b73ffffffffffffffffffffffffffffffffffffffff16610c5c611115565b73ffffffffffffffffffffffffffffffffffffffff1614610cb2576040517f08c379a0000000000000000000000000000000000000000000000000000000008152600401610ca99061424b565b60405180910390fd5b6000600a60006101000a81548160ff021916908315150217905550565b610cea838383604051806020016040528060008152506112a6565b505050565b600a60009054906101000a900460ff1681565b6000806002600084815260200190815260200160002060009054906101000a900473ffffffffffffffffffffffffffffffffffffffff169050600073ffffffffffffffffffffffffffffffffffffffff168173ffffffffffffffffffffffffffffffffffffffff161415610dab576040517f08c379a0000000000000000000000000000000000000000000000000000000008152600401610da2906141ab565b60405180910390fd5b80915050919050565b600a60009054906101000a900460ff1615610e04576040517f08c379a0000000000000000000000000000000000000000000000000000000008152600401610dfb906142eb565b60405180910390fd5b6000610e106008612553565b9050606f600182610e21919061441f565b1115610e62576040517f08c379a0000000000000000000000000000000000000000000000000000000008152600401610e599061404b565b60405180910390fd5b600954341015610ea7576040517f08c379a0000000000000000000000000000000000000000000000000000000008152600401610e9e9061432b565b60405180910390fd5b610eb18282612561565b610ebc82428361257f565b600b60008381526020019081526020016000209080519060200190610ee2929190612f68565b50610ef581610ef083610693565b6125d4565b7f30385c845b448a36257a6a1716e6ad2e1bc2cbe333cde1e69fe849ad6511adfe8282604051610f26929190613fe5565b60405180910390a1610f386008612648565b5050565b60008073ffffffffffffffffffffffffffffffffffffffff168273ffffffffffffffffffffffffffffffffffffffff161415610fad576040517f08c379a0000000000000000000000000000000000000000000000000000000008152600401610fa49061418b565b60405180910390fd5b600360008373ffffffffffffffffffffffffffffffffffffffff1673ffffffffffffffffffffffffffffffffffffffff168152602001908152602001600020549050919050565b610ffc612064565b73ffffffffffffffffffffffffffffffffffffffff1661101a611115565b73ffffffffffffffffffffffffffffffffffffffff1614611070576040517f08c379a00000000000000000000000000000000000000000000000000000000081526004016110679061424b565b60405180910390fd5b61107a600061265e565b565b611084612064565b73ffffffffffffffffffffffffffffffffffffffff166110a2611115565b73ffffffffffffffffffffffffffffffffffffffff16146110f8576040517f08c379a00000000000000000000000000000000000000000000000000000000081526004016110ef9061424b565b60405180910390fd5b6001600a60006101000a81548160ff021916908315150217905550565b6000600760009054906101000a900473ffffffffffffffffffffffffffffffffffffffff16905090565b600a60019054906101000a900473ffffffffffffffffffffffffffffffffffffffff1681565b61116d612064565b73ffffffffffffffffffffffffffffffffffffffff1661118b611115565b73ffffffffffffffffffffffffffffffffffffffff16146111e1576040517f08c379a00000000000000000000000000000000000000000000000000000000081526004016111d89061424b565b60405180910390fd5b600081116111ee57600080fd5b8060098190555050565b60606001805461120790614613565b80601f016020809104026020016040519081016040528092919081815260200182805461123390614613565b80156112805780601f1061125557610100808354040283529160200191611280565b820191906000526020600020905b81548152906001019060200180831161126357829003601f168201915b5050505050905090565b60095481565b6112a261129b612064565b8383612724565b5050565b6112b76112b1612064565b83612125565b6112f6576040517f08c379a00000000000000000000000000000000000000000000000000000000081526004016112ed906142cb565b60405180910390fd5b61130284848484612891565b50505050565b606060006113b0600b6000858152602001908152602001600020805461132d90614613565b80601f016020809104026020016040519081016040528092919081815260200182805461135990614613565b80156113a65780601f1061137b576101008083540402835291602001916113a6565b820191906000526020600020905b81548152906001019060200180831161138957829003601f168201915b5050505050611724565b90506113bb816117b8565b915050919050565b60006113cf6008612553565b905090565b60606113df826128ed565b9050919050565b606f81565b6000600560008473ffffffffffffffffffffffffffffffffffffffff1673ffffffffffffffffffffffffffffffffffffffff16815260200190815260200160002060008373ffffffffffffffffffffffffffffffffffffffff1673ffffffffffffffffffffffffffffffffffffffff16815260200190815260200160002060009054906101000a900460ff16905092915050565b611487612064565b73ffffffffffffffffffffffffffffffffffffffff166114a5611115565b73ffffffffffffffffffffffffffffffffffffffff16146114fb576040517f08c379a00000000000000000000000000000000000000000000000000000000081526004016114f29061424b565b60405180910390fd5b600073ffffffffffffffffffffffffffffffffffffffff168173ffffffffffffffffffffffffffffffffffffffff16141561156b576040517f08c379a00000000000000000000000000000000000000000000000000000000081526004016115629061408b565b60405180910390fd5b6115748161265e565b50565b606060008214156115bf576040518060400160405280600181526020017f3000000000000000000000000000000000000000000000000000000000000000815250905061171f565b600082905060005b600082146115f15780806115da90614676565b915050600a826115ea9190614475565b91506115c7565b60008167ffffffffffffffff811115611633577f4e487b7100000000000000000000000000000000000000000000000000000000600052604160045260246000fd5b6040519080825280601f01601f1916602001820160405280156116655781602001600182028036833780820191505090505b5090505b600085146117185760018261167e9190614500565b9150600a8561168d91906146f7565b6030611699919061441f565b60f81b8183815181106116d5577f4e487b7100000000000000000000000000000000000000000000000000000000600052603260045260246000fd5b60200101907effffffffffffffffffffffffffffffffffffffffffffffffffffffffffffff1916908160001a905350600a856117119190614475565b9450611669565b8093505050505b919050565b61172c612fee565b611734612fee565b60005b60068110156117ae57600961174c8583612a3f565b6117569190614728565b60ff16828260068110611792577f4e487b7100000000000000000000000000000000000000000000000000000000600052603260045260246000fd5b60200201818152505080806117a690614676565b915050611737565b5080915050919050565b6060611abc600c836000600681106117f9577f4e487b7100000000000000000000000000000000000000000000000000000000600052603260045260246000fd5b602002015160098110611835577f4e487b7100000000000000000000000000000000000000000000000000000000600052603260045260246000fd5b01600c84600160068110611872577f4e487b7100000000000000000000000000000000000000000000000000000000600052603260045260246000fd5b6020020151600981106118ae577f4e487b7100000000000000000000000000000000000000000000000000000000600052603260045260246000fd5b01600c856002600681106118eb577f4e487b7100000000000000000000000000000000000000000000000000000000600052603260045260246000fd5b602002015160098110611927577f4e487b7100000000000000000000000000000000000000000000000000000000600052603260045260246000fd5b01600c86600360068110611964577f4e487b7100000000000000000000000000000000000000000000000000000000600052603260045260246000fd5b6020020151600981106119a0577f4e487b7100000000000000000000000000000000000000000000000000000000600052603260045260246000fd5b01600c876004600681106119dd577f4e487b7100000000000000000000000000000000000000000000000000000000600052603260045260246000fd5b602002015160098110611a19577f4e487b7100000000000000000000000000000000000000000000000000000000600052603260045260246000fd5b01600c88600560068110611a56577f4e487b7100000000000000000000000000000000000000000000000000000000600052603260045260246000fd5b602002015160098110611a92577f4e487b7100000000000000000000000000000000000000000000000000000000600052603260045260246000fd5b01604051602001611aa896959493929190613e2d565b604051602081830303815290604052611de3565b604051602001611acc9190613f41565b6040516020818303038152906040529050919050565b6060611aec613010565b60005b6006811015611ba1576000848260068110611b33577f4e487b7100000000000000000000000000000000000000000000000000000000600052603260045260246000fd5b602002015190506001838260098110611b75577f4e487b7100000000000000000000000000000000000000000000000000000000600052603260045260246000fd5b60200201818151611b86919061441f565b91508181525050508080611b9990614676565b915050611aef565b5060606000805b6009811015611d4e576000848260098110611bec577f4e487b7100000000000000000000000000000000000000000000000000000000600052603260045260246000fd5b60200201511115611d3b578180611c0290614676565b92505082611d1860158360098110611c43577f4e487b7100000000000000000000000000000000000000000000000000000000600052603260045260246000fd5b018054611c4f90614613565b80601f0160208091040260200160405190810160405280929190818152602001828054611c7b90614613565b8015611cc85780601f10611c9d57610100808354040283529160200191611cc8565b820191906000526020600020905b815481529060010190602001808311611cab57829003601f168201915b5050505050611d13878560098110611d09577f4e487b7100000000000000000000000000000000000000000000000000000000600052603260045260246000fd5b6020020151611577565b612aa6565b604051602001611d29929190613cbe565b60405160208183030381529060405292505b8080611d4690614676565b915050611ba8565b5081611d976040518060400160405280600681526020017f436f6c6f72730000000000000000000000000000000000000000000000000000815250611d9284611577565b612aa6565b604051602001611da8929190613c9a565b604051602081830303815290604052915081604051602001611dca9190613dc9565b6040516020818303038152906040529350505050919050565b6060600082511415611e0657604051806020016040528060008152509050611f89565b600060405180606001604052806040815260200161546e6040913990506000600360028551611e35919061441f565b611e3f9190614475565b6004611e4b91906144a6565b90506000602082611e5c919061441f565b67ffffffffffffffff811115611e9b577f4e487b7100000000000000000000000000000000000000000000000000000000600052604160045260246000fd5b6040519080825280601f01601f191660200182016040528015611ecd5781602001600182028036833780820191505090505b509050818152600183018586518101602084015b81831015611f48576003830192508251603f8160121c1685015160f81b8252600182019150603f81600c1c1685015160f81b8252600182019150603f8160061c1685015160f81b8252600182019150603f811685015160f81b825260018201915050611ee1565b600389510660018114611f625760028114611f7257611f7d565b613d3d60f01b6002830352611f7d565b603d60f81b60018303525b50505050508093505050505b919050565b60007f01ffc9a7000000000000000000000000000000000000000000000000000000007bffffffffffffffffffffffffffffffffffffffffffffffffffffffff1916827bffffffffffffffffffffffffffffffffffffffffffffffffffffffff1916149050919050565b60008073ffffffffffffffffffffffffffffffffffffffff166002600084815260200190815260200160002060009054906101000a900473ffffffffffffffffffffffffffffffffffffffff1673ffffffffffffffffffffffffffffffffffffffff1614159050919050565b600033905090565b816004600083815260200190815260200160002060006101000a81548173ffffffffffffffffffffffffffffffffffffffff021916908373ffffffffffffffffffffffffffffffffffffffff160217905550808273ffffffffffffffffffffffffffffffffffffffff166120df83610d02565b73ffffffffffffffffffffffffffffffffffffffff167f8c5be1e5ebec7d5bd14f71427d1e84f3dd0314c0f7b2291e5b200ac8c7c3b92560405160405180910390a45050565b600061213082611ff8565b61216f576040517f08c379a00000000000000000000000000000000000000000000000000000000081526004016121669061414b565b60405180910390fd5b600061217a83610d02565b90508073ffffffffffffffffffffffffffffffffffffffff168473ffffffffffffffffffffffffffffffffffffffff1614806121e957508373ffffffffffffffffffffffffffffffffffffffff166121d18461098f565b73ffffffffffffffffffffffffffffffffffffffff16145b806121fa57506121f981856113eb565b5b91505092915050565b8273ffffffffffffffffffffffffffffffffffffffff1661222382610d02565b73ffffffffffffffffffffffffffffffffffffffff1614612279576040517f08c379a00000000000000000000000000000000000000000000000000000000081526004016122709061426b565b60405180910390fd5b600073ffffffffffffffffffffffffffffffffffffffff168273ffffffffffffffffffffffffffffffffffffffff1614156122e9576040517f08c379a00000000000000000000000000000000000000000000000000000000081526004016122e0906140cb565b60405180910390fd5b6122f4838383612ad2565b6122ff60008261206c565b6001600360008573ffffffffffffffffffffffffffffffffffffffff1673ffffffffffffffffffffffffffffffffffffffff168152602001908152602001600020600082825461234f9190614500565b925050819055506001600360008473ffffffffffffffffffffffffffffffffffffffff1673ffffffffffffffffffffffffffffffffffffffff16815260200190815260200160002060008282546123a6919061441f565b92505081905550816002600083815260200190815260200160002060006101000a81548173ffffffffffffffffffffffffffffffffffffffff021916908373ffffffffffffffffffffffffffffffffffffffff160217905550808273ffffffffffffffffffffffffffffffffffffffff168473ffffffffffffffffffffffffffffffffffffffff167fddf252ad1be2c89b69c2b068fc378daa952ba7f163c4a11628f55a4df523b3ef60405160405180910390a4505050565b804710156124a2576040517f08c379a00000000000000000000000000000000000000000000000000000000081526004016124999061412b565b60405180910390fd5b60008273ffffffffffffffffffffffffffffffffffffffff16826040516124c890613e18565b60006040518083038185875af1925050503d8060008114612505576040519150601f19603f3d011682016040523d82523d6000602084013e61250a565b606091505b505090508061254e576040517f08c379a00000000000000000000000000000000000000000000000000000000081526004016125459061410b565b60405180910390fd5b505050565b600081600001549050919050565b61257b828260405180602001604052806000815250612ad7565b5050565b606083838360405160200161259693929190613c42565b604051602081830303815290604052805190602001206040516020016125bc9190613c7f565b60405160208183030381529060405290509392505050565b6125dd82611ff8565b61261c576040517f08c379a0000000000000000000000000000000000000000000000000000000008152600401612613906141cb565b60405180910390fd5b80600660008481526020019081526020016000209080519060200190612643929190613033565b505050565b6001816000016000828254019250508190555050565b6000600760009054906101000a900473ffffffffffffffffffffffffffffffffffffffff16905081600760006101000a81548173ffffffffffffffffffffffffffffffffffffffff021916908373ffffffffffffffffffffffffffffffffffffffff1602179055508173ffffffffffffffffffffffffffffffffffffffff168173ffffffffffffffffffffffffffffffffffffffff167f8be0079c531659141344cd1fd0a4f28419497f9722a3daafe3b4186f6b6457e060405160405180910390a35050565b8173ffffffffffffffffffffffffffffffffffffffff168373ffffffffffffffffffffffffffffffffffffffff161415612793576040517f08c379a000000000000000000000000000000000000000000000000000000000815260040161278a906140eb565b60405180910390fd5b80600560008573ffffffffffffffffffffffffffffffffffffffff1673ffffffffffffffffffffffffffffffffffffffff16815260200190815260200160002060008473ffffffffffffffffffffffffffffffffffffffff1673ffffffffffffffffffffffffffffffffffffffff16815260200190815260200160002060006101000a81548160ff0219169083151502179055508173ffffffffffffffffffffffffffffffffffffffff168373ffffffffffffffffffffffffffffffffffffffff167f17307eab39ab6107e8899845ad3d59bd9653f200f220920489ca2b5937696c3183604051612884919061400e565b60405180910390a3505050565b61289c848484612203565b6128a884848484612b32565b6128e7576040517f08c379a00000000000000000000000000000000000000000000000000000000081526004016128de9061406b565b60405180910390fd5b50505050565b60606128f882611ff8565b612937576040517f08c379a000000000000000000000000000000000000000000000000000000000815260040161292e9061420b565b60405180910390fd5b600060066000848152602001908152602001600020805461295790614613565b80601f016020809104026020016040519081016040528092919081815260200182805461298390614613565b80156129d05780601f106129a5576101008083540402835291602001916129d0565b820191906000526020600020905b8154815290600101906020018083116129b357829003601f168201915b5050505050905060006129e1612cc9565b90506000815114156129f7578192505050612a3a565b600082511115612a2c578082604051602001612a14929190613c9a565b60405160208183030381529060405292505050612a3a565b612a3584612ce0565b925050505b919050565b6000600182612a4e919061441f565b83511015612a91576040517f08c379a0000000000000000000000000000000000000000000000000000000008152600401612a889061430b565b60405180910390fd5b60008260018501015190508091505092915050565b60608282604051602001612abb929190613d84565b604051602081830303815290604052905092915050565b505050565b612ae18383612d87565b612aee6000848484612b32565b612b2d576040517f08c379a0000000000000000000000000000000000000000000000000000000008152600401612b249061406b565b60405180910390fd5b505050565b6000612b538473ffffffffffffffffffffffffffffffffffffffff16612f55565b15612cbc578373ffffffffffffffffffffffffffffffffffffffff1663150b7a02612b7c612064565b8786866040518563ffffffff1660e01b8152600401612b9e9493929190613f99565b602060405180830381600087803b158015612bb857600080fd5b505af1925050508015612be957506040513d601f19601f82011682018060405250810190612be69190613377565b60015b612c6c573d8060008114612c19576040519150601f19603f3d011682016040523d82523d6000602084013e612c1e565b606091505b50600081511415612c64576040517f08c379a0000000000000000000000000000000000000000000000000000000008152600401612c5b9061406b565b60405180910390fd5b805181602001fd5b63150b7a0260e01b7bffffffffffffffffffffffffffffffffffffffffffffffffffffffff1916817bffffffffffffffffffffffffffffffffffffffffffffffffffffffff191614915050612cc1565b600190505b949350505050565b606060405180602001604052806000815250905090565b6060612ceb82611ff8565b612d2a576040517f08c379a0000000000000000000000000000000000000000000000000000000008152600401612d219061428b565b60405180910390fd5b6000612d34612cc9565b90506000815111612d545760405180602001604052806000815250612d7f565b80612d5e84611577565b604051602001612d6f929190613c9a565b6040516020818303038152906040525b915050919050565b600073ffffffffffffffffffffffffffffffffffffffff168273ffffffffffffffffffffffffffffffffffffffff161415612df7576040517f08c379a0000000000000000000000000000000000000000000000000000000008152600401612dee906141eb565b60405180910390fd5b612e0081611ff8565b15612e40576040517f08c379a0000000000000000000000000000000000000000000000000000000008152600401612e37906140ab565b60405180910390fd5b612e4c60008383612ad2565b6001600360008473ffffffffffffffffffffffffffffffffffffffff1673ffffffffffffffffffffffffffffffffffffffff1681526020019081526020016000206000828254612e9c919061441f565b92505081905550816002600083815260200190815260200160002060006101000a81548173ffffffffffffffffffffffffffffffffffffffff021916908373ffffffffffffffffffffffffffffffffffffffff160217905550808273ffffffffffffffffffffffffffffffffffffffff16600073ffffffffffffffffffffffffffffffffffffffff167fddf252ad1be2c89b69c2b068fc378daa952ba7f163c4a11628f55a4df523b3ef60405160405180910390a45050565b600080823b905060008111915050919050565b828054612f7490614613565b90600052602060002090601f016020900481019282612f965760008555612fdd565b82601f10612faf57805160ff1916838001178555612fdd565b82800160010185558215612fdd579182015b82811115612fdc578251825591602001919060010190612fc1565b5b509050612fea91906130b9565b5090565b6040518060c00160405280600690602082028036833780820191505090505090565b604051806101200160405280600990602082028036833780820191505090505090565b82805461303f90614613565b90600052602060002090601f01602090048101928261306157600085556130a8565b82601f1061307a57805160ff19168380011785556130a8565b828001600101855582156130a8579182015b828111156130a757825182559160200191906001019061308c565b5b5090506130b591906130b9565b5090565b5b808211156130d25760008160009055506001016130ba565b5090565b60006130e96130e48461438b565b614366565b90508281526020810184848401111561310157600080fd5b61310c8482856145d1565b509392505050565b60008135905061312381615411565b92915050565b60008135905061313881615428565b92915050565b60008135905061314d8161543f565b92915050565b6000815190506131628161543f565b92915050565b600082601f83011261317957600080fd5b81356131898482602086016130d6565b91505092915050565b6000813590506131a181615456565b92915050565b6000602082840312156131b957600080fd5b60006131c784828501613114565b91505092915050565b600080604083850312156131e357600080fd5b60006131f185828601613114565b925050602061320285828601613114565b9150509250929050565b60008060006060848603121561322157600080fd5b600061322f86828701613114565b935050602061324086828701613114565b925050604061325186828701613192565b9150509250925092565b6000806000806080858703121561327157600080fd5b600061327f87828801613114565b945050602061329087828801613114565b93505060406132a187828801613192565b925050606085013567ffffffffffffffff8111156132be57600080fd5b6132ca87828801613168565b91505092959194509250565b600080604083850312156132e957600080fd5b60006132f785828601613114565b925050602061330885828601613129565b9150509250929050565b6000806040838503121561332557600080fd5b600061333385828601613114565b925050602061334485828601613192565b9150509250929050565b60006020828403121561336057600080fd5b600061336e8482850161313e565b91505092915050565b60006020828403121561338957600080fd5b600061339784828501613153565b91505092915050565b6000602082840312156133b257600080fd5b60006133c084828501613192565b91505092915050565b6133d281614546565b82525050565b6133e181614534565b82525050565b6133f86133f382614534565b6146bf565b82525050565b61340781614558565b82525050565b61341e61341982614564565b6146d1565b82525050565b600061342f826143d1565b61343981856143e7565b93506134498185602086016145e0565b61345281614815565b840191505092915050565b6000613468826143dc565b6134728185614403565b93506134828185602086016145e0565b61348b81614815565b840191505092915050565b60006134a1826143dc565b6134ab8185614414565b93506134bb8185602086016145e0565b80840191505092915050565b600081546134d481614613565b6134de8186614414565b945060018216600081146134f9576001811461350a5761353d565b60ff1983168652818601935061353d565b613513856143bc565b60005b8381101561353557815481890152600182019150602081019050613516565b838801955050505b50505092915050565b6000613553603c83614414565b915061355e82614833565b603c82019050919050565b6000613576601183614403565b915061358182614882565b602082019050919050565b6000613599600983614414565b91506135a4826148ab565b600982019050919050565b60006135bc603283614403565b91506135c7826148d4565b604082019050919050565b60006135df602683614403565b91506135ea82614923565b604082019050919050565b6000613602600c83614414565b915061360d82614972565b600c82019050919050565b6000613625601c83614403565b91506136308261499b565b602082019050919050565b6000613648600783614414565b9150613653826149c4565b600782019050919050565b600061366b604883614414565b9150613676826149ed565b604882019050919050565b600061368e600183614414565b915061369982614a62565b600182019050919050565b60006136b1600783614414565b91506136bc82614a8b565b600782019050919050565b60006136d4602483614403565b91506136df82614ab4565b604082019050919050565b60006136f7601983614403565b915061370282614b03565b602082019050919050565b600061371a603a83614403565b915061372582614b2c565b604082019050919050565b600061373d601d83614403565b915061374882614b7b565b602082019050919050565b6000613760600f83614414565b915061376b82614ba4565b600f82019050919050565b6000613783602c83614403565b915061378e82614bcd565b604082019050919050565b60006137a6603883614403565b91506137b182614c1c565b604082019050919050565b60006137c9604583614414565b91506137d482614c6b565b604582019050919050565b60006137ec600483614414565b91506137f782614ce0565b600482019050919050565b600061380f602a83614403565b915061381a82614d09565b604082019050919050565b6000613832602983614403565b915061383d82614d58565b604082019050919050565b6000613855602e83614403565b915061386082614da7565b604082019050919050565b6000613878600283614414565b915061388382614df6565b600282019050919050565b600061389b601083614414565b91506138a682614e1f565b601082019050919050565b60006138be602083614403565b91506138c982614e48565b602082019050919050565b60006138e1605e83614414565b91506138ec82614e71565b605e82019050919050565b6000613904600d83614414565b915061390f82614ee6565b600d82019050919050565b6000613927600183614414565b915061393282614f0f565b600182019050919050565b600061394a603183614403565b915061395582614f38565b604082019050919050565b600061396d602c83614403565b915061397882614f87565b604082019050919050565b6000613990603f83614414565b915061399b82614fd6565b603f82019050919050565b60006139b3601283614414565b91506139be82615025565b601282019050919050565b60006139d6602083614403565b91506139e18261504e565b602082019050919050565b60006139f9600183614414565b9150613a0482615077565b600182019050919050565b6000613a1c602983614403565b9150613a27826150a0565b604082019050919050565b6000613a3f602f83614403565b9150613a4a826150ef565b604082019050919050565b6000613a62604383614414565b9150613a6d8261513e565b604382019050919050565b6000613a85600183614414565b9150613a90826151b3565b600182019050919050565b6000613aa8602183614403565b9150613ab3826151dc565b604082019050919050565b6000613acb601d83614414565b9150613ad68261522b565b601d82019050919050565b6000613aee6000836143f8565b9150613af982615254565b600082019050919050565b6000613b11603183614403565b9150613b1c82615257565b604082019050919050565b6000613b34601183614403565b9150613b3f826152a6565b602082019050919050565b6000613b57601383614403565b9150613b62826152cf565b602082019050919050565b6000613b7a603e83614414565b9150613b85826152f8565b603e82019050919050565b6000613b9d600683614414565b9150613ba882615347565b600682019050919050565b6000613bc0601b83614403565b9150613bcb82615370565b602082019050919050565b6000613be3602d83614414565b9150613bee82615399565b602d82019050919050565b6000613c06601a83614414565b9150613c11826153e8565b601a82019050919050565b613c25816145ba565b82525050565b613c3c613c37826145ba565b6146ed565b82525050565b6000613c4e82866133e7565b601482019150613c5e8285613c2b565b602082019150613c6e8284613c2b565b602082019150819050949350505050565b6000613c8b828461340d565b60208201915081905092915050565b6000613ca68285613496565b9150613cb28284613496565b91508190509392505050565b6000613cca8285613496565b9150613cd68284613496565b9150613ce182613681565b91508190509392505050565b6000613cf88261358c565b9150613d048287613496565b9150613d0f826139a6565b9150613d1b8286613496565b9150613d26826138f7565b9150613d328285613496565b9150613d3d8261388e565b9150613d498284613496565b9150613d548261391a565b915081905095945050505050565b6000613d6d826136a4565b9150613d798284613496565b915081905092915050565b6000613d8f82613753565b9150613d9b8285613496565b9150613da6826135f5565b9150613db28284613496565b9150613dbd8261386b565b91508190509392505050565b6000613dd4826139ec565b9150613de08284613496565b9150613deb82613a78565b915081905092915050565b6000613e0182613abe565b9150613e0d8284613496565b915081905092915050565b6000613e2382613ae1565b9150819050919050565b6000613e3882613b6d565b9150613e4382613546565b9150613e4f82896134c7565b9150613e5a82613a55565b9150613e6682886134c7565b9150613e71826137df565b9150613e7c826137bc565b9150613e8882876134c7565b9150613e93826137df565b9150613e9e82613983565b9150613eaa82866134c7565b9150613eb5826137df565b9150613ec0826138d4565b9150613ecc82856134c7565b9150613ed7826137df565b9150613ee28261365e565b9150613eee82846134c7565b9150613ef9826137df565b9150613f0482613b90565b9150819050979650505050505050565b6000613f1f82613bd6565b9150613f2b8284613496565b9150613f368261363b565b915081905092915050565b6000613f4c82613bf9565b9150613f588284613496565b915081905092915050565b6000602082019050613f7860008301846133d8565b92915050565b6000602082019050613f9360008301846133c9565b92915050565b6000608082019050613fae60008301876133d8565b613fbb60208301866133d8565b613fc86040830185613c1c565b8181036060830152613fda8184613424565b905095945050505050565b6000604082019050613ffa60008301856133d8565b6140076020830184613c1c565b9392505050565b600060208201905061402360008301846133fe565b92915050565b60006020820190508181036000830152614043818461345d565b905092915050565b6000602082019050818103600083015261406481613569565b9050919050565b60006020820190508181036000830152614084816135af565b9050919050565b600060208201905081810360008301526140a4816135d2565b9050919050565b600060208201905081810360008301526140c481613618565b9050919050565b600060208201905081810360008301526140e4816136c7565b9050919050565b60006020820190508181036000830152614104816136ea565b9050919050565b600060208201905081810360008301526141248161370d565b9050919050565b6000602082019050818103600083015261414481613730565b9050919050565b6000602082019050818103600083015261416481613776565b9050919050565b6000602082019050818103600083015261418481613799565b9050919050565b600060208201905081810360008301526141a481613802565b9050919050565b600060208201905081810360008301526141c481613825565b9050919050565b600060208201905081810360008301526141e481613848565b9050919050565b60006020820190508181036000830152614204816138b1565b9050919050565b600060208201905081810360008301526142248161393d565b9050919050565b6000602082019050818103600083015261424481613960565b9050919050565b60006020820190508181036000830152614264816139c9565b9050919050565b6000602082019050818103600083015261428481613a0f565b9050919050565b600060208201905081810360008301526142a481613a32565b9050919050565b600060208201905081810360008301526142c481613a9b565b9050919050565b600060208201905081810360008301526142e481613b04565b9050919050565b6000602082019050818103600083015261430481613b27565b9050919050565b6000602082019050818103600083015261432481613b4a565b9050919050565b6000602082019050818103600083015261434481613bb3565b9050919050565b60006020820190506143606000830184613c1c565b92915050565b6000614370614381565b905061437c8282614645565b919050565b6000604051905090565b600067ffffffffffffffff8211156143a6576143a56147e6565b5b6143af82614815565b9050602081019050919050565b60008190508160005260206000209050919050565b600081519050919050565b600081519050919050565b600082825260208201905092915050565b600081905092915050565b600082825260208201905092915050565b600081905092915050565b600061442a826145ba565b9150614435836145ba565b9250827fffffffffffffffffffffffffffffffffffffffffffffffffffffffffffffffff0382111561446a57614469614759565b5b828201905092915050565b6000614480826145ba565b915061448b836145ba565b92508261449b5761449a614788565b5b828204905092915050565b60006144b1826145ba565b91506144bc836145ba565b9250817fffffffffffffffffffffffffffffffffffffffffffffffffffffffffffffffff04831182151516156144f5576144f4614759565b5b828202905092915050565b600061450b826145ba565b9150614516836145ba565b92508282101561452957614528614759565b5b828203905092915050565b600061453f8261459a565b9050919050565b60006145518261459a565b9050919050565b60008115159050919050565b6000819050919050565b60007fffffffff0000000000000000000000000000000000000000000000000000000082169050919050565b600073ffffffffffffffffffffffffffffffffffffffff82169050919050565b6000819050919050565b600060ff82169050919050565b82818337600083830152505050565b60005b838110156145fe5780820151818401526020810190506145e3565b8381111561460d576000848401525b50505050565b6000600282049050600182168061462b57607f821691505b6020821081141561463f5761463e6147b7565b5b50919050565b61464e82614815565b810181811067ffffffffffffffff8211171561466d5761466c6147e6565b5b80604052505050565b6000614681826145ba565b91507fffffffffffffffffffffffffffffffffffffffffffffffffffffffffffffffff8214156146b4576146b3614759565b5b600182019050919050565b60006146ca826146db565b9050919050565b6000819050919050565b60006146e682614826565b9050919050565b6000819050919050565b6000614702826145ba565b915061470d836145ba565b92508261471d5761471c614788565b5b828206905092915050565b6000614733826145c4565b915061473e836145c4565b92508261474e5761474d614788565b5b828206905092915050565b7f4e487b7100000000000000000000000000000000000000000000000000000000600052601160045260246000fd5b7f4e487b7100000000000000000000000000000000000000000000000000000000600052601260045260246000fd5b7f4e487b7100000000000000000000000000000000000000000000000000000000600052602260045260246000fd5b7f4e487b7100000000000000000000000000000000000000000000000000000000600052604160045260246000fd5b6000601f19601f8301169050919050565b60008160601b9050919050565b7f3c7061746820643d224d302030683139347633383848307a222073686170655260008201527f656e646572696e673d2263726973704564676573222066696c6c3d2200000000602082015250565b7f4d617820737570706c79206d696e746564000000000000000000000000000000600082015250565b7f7b226e616d65223a220000000000000000000000000000000000000000000000600082015250565b7f4552433732313a207472616e7366657220746f206e6f6e20455243373231526560008201527f63656976657220696d706c656d656e7465720000000000000000000000000000602082015250565b7f4f776e61626c653a206e6577206f776e657220697320746865207a65726f206160008201527f6464726573730000000000000000000000000000000000000000000000000000602082015250565b7f222c202276616c7565223a220000000000000000000000000000000000000000600082015250565b7f4552433732313a20746f6b656e20616c7265616479206d696e74656400000000600082015250565b7f2073686170657300000000000000000000000000000000000000000000000000600082015250565b7f3c7061746820643d224d313934203239302e35563139346834387639362e356860008201527f2d34385a2220736861706552656e646572696e673d226372697370456467657360208201527f222066696c6c3d22000000000000000000000000000000000000000000000000604082015250565b7f2c00000000000000000000000000000000000000000000000000000000000000600082015250565b7f5368616570202300000000000000000000000000000000000000000000000000600082015250565b7f4552433732313a207472616e7366657220746f20746865207a65726f2061646460008201527f7265737300000000000000000000000000000000000000000000000000000000602082015250565b7f4552433732313a20617070726f766520746f2063616c6c657200000000000000600082015250565b7f416464726573733a20756e61626c6520746f2073656e642076616c75652c207260008201527f6563697069656e74206d61792068617665207265766572746564000000000000602082015250565b7f416464726573733a20696e73756666696369656e742062616c616e6365000000600082015250565b7f7b2274726169745f74797065223a220000000000000000000000000000000000600082015250565b7f4552433732313a206f70657261746f7220717565727920666f72206e6f6e657860008201527f697374656e7420746f6b656e0000000000000000000000000000000000000000602082015250565b7f4552433732313a20617070726f76652063616c6c6572206973206e6f74206f7760008201527f6e6572206e6f7220617070726f76656420666f7220616c6c0000000000000000602082015250565b7f3c7061746820643d224d3937203139332e373563302035332e3433342034332e60008201527f3536362039362e37352039372039362e3735762d39362e37354839375a22206660208201527f696c6c3d22000000000000000000000000000000000000000000000000000000604082015250565b7f22202f3e00000000000000000000000000000000000000000000000000000000600082015250565b7f4552433732313a2062616c616e636520717565727920666f7220746865207a6560008201527f726f206164647265737300000000000000000000000000000000000000000000602082015250565b7f4552433732313a206f776e657220717565727920666f72206e6f6e657869737460008201527f656e7420746f6b656e0000000000000000000000000000000000000000000000602082015250565b7f45524337323155524953746f726167653a2055524920736574206f66206e6f6e60008201527f6578697374656e7420746f6b656e000000000000000000000000000000000000602082015250565b7f227d000000000000000000000000000000000000000000000000000000000000600082015250565b7f222c202261747472696275746573223a00000000000000000000000000000000600082015250565b7f4552433732313a206d696e7420746f20746865207a65726f2061646472657373600082015250565b7f3c7061746820643d224d393720313934762d2e3235433937203134302e33313660008201527f203134302e333136203937203139332e37352039377339362e37352034332e3360208201527f31362039362e37352039362e3735762e32354839375a222066696c6c3d220000604082015250565b7f222c2022696d616765223a202200000000000000000000000000000000000000600082015250565b7f7d00000000000000000000000000000000000000000000000000000000000000600082015250565b7f45524337323155524953746f726167653a2055524920717565727920666f722060008201527f6e6f6e6578697374656e7420746f6b656e000000000000000000000000000000602082015250565b7f4552433732313a20617070726f76656420717565727920666f72206e6f6e657860008201527f697374656e7420746f6b656e0000000000000000000000000000000000000000602082015250565b7f3c7061746820643d224d363920363968313235763132354836397a222073686160008201527f706552656e646572696e673d2263726973704564676573222066696c6c3d2200602082015250565b7f222c20226465736372697074696f6e223a220000000000000000000000000000600082015250565b7f4f776e61626c653a2063616c6c6572206973206e6f7420746865206f776e6572600082015250565b7f5b00000000000000000000000000000000000000000000000000000000000000600082015250565b7f4552433732313a207472616e73666572206f6620746f6b656e2074686174206960008201527f73206e6f74206f776e0000000000000000000000000000000000000000000000602082015250565b7f4552433732314d657461646174613a2055524920717565727920666f72206e6f60008201527f6e6578697374656e7420746f6b656e0000000000000000000000000000000000602082015250565b7f222f3e3c7061746820643d224d31393420306831393476333838483139347a2260008201527f20736861706552656e646572696e673d2263726973704564676573222066696c60208201527f6c3d220000000000000000000000000000000000000000000000000000000000604082015250565b7f5d00000000000000000000000000000000000000000000000000000000000000600082015250565b7f4552433732313a20617070726f76616c20746f2063757272656e74206f776e6560008201527f7200000000000000000000000000000000000000000000000000000000000000602082015250565b7f646174613a6170706c69636174696f6e2f6a736f6e3b6261736536342c000000600082015250565b50565b7f4552433732313a207472616e736665722063616c6c6572206973206e6f74206f60008201527f776e6572206e6f7220617070726f766564000000000000000000000000000000602082015250565b7f4d696e74696e6720697320706175736564000000000000000000000000000000600082015250565b7f746f55696e74385f6f75744f66426f756e647300000000000000000000000000600082015250565b7f3c7376672076696577426f783d2230203020333838203338382220786d6c6e7360008201527f3d22687474703a2f2f7777772e77332e6f72672f323030302f737667223e0000602082015250565b7f3c2f7376673e0000000000000000000000000000000000000000000000000000600082015250565b7f496e73756666696369656e742066756e64732070726f76696465640000000000600082015250565b7f6120636f6c6c656374696f6e206f66206c696e657320616e6420636f6c6f727360008201527f20636f6d706f73656420746f2000000000000000000000000000000000000000602082015250565b7f646174613a696d6167652f7376672b786d6c3b6261736536342c000000000000600082015250565b61541a81614534565b811461542557600080fd5b50565b61543181614558565b811461543c57600080fd5b50565b6154488161456e565b811461545357600080fd5b50565b61545f816145ba565b811461546a57600080fd5b5056fe4142434445464748494a4b4c4d4e4f505152535455565758595a6162636465666768696a6b6c6d6e6f707172737475767778797a303132333435363738392b2fa26469706673582212206478575e5106d4bbdab583a1047a9d82008b537fdfcedc2f5fa1530eafceddd164736f6c63430008040033",
  "linkReferences": {},
  "deployedLinkReferences": {}
}