{
  "_format": "hh-sol-artifact-1",
  "contractName": "Shaeps",
  "sourceName": "contracts/Shaeps.sol",
  "abi": [
    {
      "inputs": [
        {
          "internalType": "string",
          "name": "_name",
          "type": "string"
        },
        {
          "internalType": "string",
          "name": "_symbol",
          "type": "string"
        },
        {
          "internalType": "address payable",
          "name": "_collector",
          "type": "address"
        }
      ],
      "stateMutability": "nonpayable",
      "type": "constructor"
    },
    {
      "anonymous": false,
      "inputs": [
        {
          "indexed": true,
          "internalType": "address",
          "name": "owner",
          "type": "address"
        },
        {
          "indexed": true,
          "internalType": "address",
          "name": "approved",
          "type": "address"
        },
        {
          "indexed": true,
          "internalType": "uint256",
          "name": "tokenId",
          "type": "uint256"
        }
      ],
      "name": "Approval",
      "type": "event"
    },
    {
      "anonymous": false,
      "inputs": [
        {
          "indexed": true,
          "internalType": "address",
          "name": "owner",
          "type": "address"
        },
        {
          "indexed": true,
          "internalType": "address",
          "name": "operator",
          "type": "address"
        },
        {
          "indexed": false,
          "internalType": "bool",
          "name": "approved",
          "type": "bool"
        }
      ],
      "name": "ApprovalForAll",
      "type": "event"
    },
    {
      "anonymous": false,
      "inputs": [
        {
          "indexed": true,
          "internalType": "address",
          "name": "previousOwner",
          "type": "address"
        },
        {
          "indexed": true,
          "internalType": "address",
          "name": "newOwner",
          "type": "address"
        }
      ],
      "name": "OwnershipTransferred",
      "type": "event"
    },
    {
      "anonymous": false,
      "inputs": [
        {
          "indexed": true,
          "internalType": "address",
          "name": "from",
          "type": "address"
        },
        {
          "indexed": true,
          "internalType": "address",
          "name": "to",
          "type": "address"
        },
        {
          "indexed": true,
          "internalType": "uint256",
          "name": "tokenId",
          "type": "uint256"
        }
      ],
      "name": "Transfer",
      "type": "event"
    },
    {
      "inputs": [
        {
          "internalType": "address",
          "name": "to",
          "type": "address"
        },
        {
          "internalType": "uint256",
          "name": "tokenId",
          "type": "uint256"
        }
      ],
      "name": "approve",
      "outputs": [],
      "stateMutability": "nonpayable",
      "type": "function"
    },
    {
      "inputs": [
        {
          "internalType": "address",
          "name": "owner",
          "type": "address"
        }
      ],
      "name": "balanceOf",
      "outputs": [
        {
          "internalType": "uint256",
          "name": "",
          "type": "uint256"
        }
      ],
      "stateMutability": "view",
      "type": "function"
    },
    {
      "inputs": [],
      "name": "collector",
      "outputs": [
        {
          "internalType": "address payable",
          "name": "",
          "type": "address"
        }
      ],
      "stateMutability": "view",
      "type": "function"
    },
    {
      "inputs": [
        {
          "internalType": "uint256",
          "name": "tokenId",
          "type": "uint256"
        }
      ],
      "name": "generateMetadata",
      "outputs": [
        {
          "internalType": "string",
          "name": "",
          "type": "string"
        }
      ],
      "stateMutability": "view",
      "type": "function"
    },
    {
      "inputs": [
        {
          "internalType": "uint256",
          "name": "tokenId",
          "type": "uint256"
        }
      ],
      "name": "generateSvg",
      "outputs": [
        {
          "internalType": "string",
          "name": "",
          "type": "string"
        }
      ],
      "stateMutability": "view",
      "type": "function"
    },
    {
      "inputs": [
        {
          "internalType": "uint256",
          "name": "tokenId",
          "type": "uint256"
        }
      ],
      "name": "getApproved",
      "outputs": [
        {
          "internalType": "address",
          "name": "",
          "type": "address"
        }
      ],
      "stateMutability": "view",
      "type": "function"
    },
    {
      "inputs": [],
      "name": "getMintedSupply",
      "outputs": [
        {
          "internalType": "uint256",
          "name": "",
          "type": "uint256"
        }
      ],
      "stateMutability": "view",
      "type": "function"
    },
    {
      "inputs": [],
      "name": "getPrice",
      "outputs": [
        {
          "internalType": "uint256",
          "name": "",
          "type": "uint256"
        }
      ],
      "stateMutability": "pure",
      "type": "function"
    },
    {
      "inputs": [],
      "name": "getTotalSupply",
      "outputs": [
        {
          "internalType": "uint256",
          "name": "",
          "type": "uint256"
        }
      ],
      "stateMutability": "pure",
      "type": "function"
    },
    {
      "inputs": [
        {
          "internalType": "address",
          "name": "owner",
          "type": "address"
        },
        {
          "internalType": "address",
          "name": "operator",
          "type": "address"
        }
      ],
      "name": "isApprovedForAll",
      "outputs": [
        {
          "internalType": "bool",
          "name": "",
          "type": "bool"
        }
      ],
      "stateMutability": "view",
      "type": "function"
    },
    {
      "inputs": [
        {
          "internalType": "address",
          "name": "to",
          "type": "address"
        }
      ],
      "name": "mint",
      "outputs": [],
      "stateMutability": "payable",
      "type": "function"
    },
    {
      "inputs": [],
      "name": "name",
      "outputs": [
        {
          "internalType": "string",
          "name": "",
          "type": "string"
        }
      ],
      "stateMutability": "view",
      "type": "function"
    },
    {
      "inputs": [],
      "name": "owner",
      "outputs": [
        {
          "internalType": "address",
          "name": "",
          "type": "address"
        }
      ],
      "stateMutability": "view",
      "type": "function"
    },
    {
      "inputs": [
        {
          "internalType": "uint256",
          "name": "tokenId",
          "type": "uint256"
        }
      ],
      "name": "ownerOf",
      "outputs": [
        {
          "internalType": "address",
          "name": "",
          "type": "address"
        }
      ],
      "stateMutability": "view",
      "type": "function"
    },
    {
      "inputs": [],
      "name": "renounceOwnership",
      "outputs": [],
      "stateMutability": "nonpayable",
      "type": "function"
    },
    {
      "inputs": [
        {
          "internalType": "address",
          "name": "from",
          "type": "address"
        },
        {
          "internalType": "address",
          "name": "to",
          "type": "address"
        },
        {
          "internalType": "uint256",
          "name": "tokenId",
          "type": "uint256"
        }
      ],
      "name": "safeTransferFrom",
      "outputs": [],
      "stateMutability": "nonpayable",
      "type": "function"
    },
    {
      "inputs": [
        {
          "internalType": "address",
          "name": "from",
          "type": "address"
        },
        {
          "internalType": "address",
          "name": "to",
          "type": "address"
        },
        {
          "internalType": "uint256",
          "name": "tokenId",
          "type": "uint256"
        },
        {
          "internalType": "bytes",
          "name": "_data",
          "type": "bytes"
        }
      ],
      "name": "safeTransferFrom",
      "outputs": [],
      "stateMutability": "nonpayable",
      "type": "function"
    },
    {
      "inputs": [
        {
          "internalType": "address",
          "name": "operator",
          "type": "address"
        },
        {
          "internalType": "bool",
          "name": "approved",
          "type": "bool"
        }
      ],
      "name": "setApprovalForAll",
      "outputs": [],
      "stateMutability": "nonpayable",
      "type": "function"
    },
    {
      "inputs": [
        {
          "internalType": "bytes4",
          "name": "interfaceId",
          "type": "bytes4"
        }
      ],
      "name": "supportsInterface",
      "outputs": [
        {
          "internalType": "bool",
          "name": "",
          "type": "bool"
        }
      ],
      "stateMutability": "view",
      "type": "function"
    },
    {
      "inputs": [],
      "name": "symbol",
      "outputs": [
        {
          "internalType": "string",
          "name": "",
          "type": "string"
        }
      ],
      "stateMutability": "view",
      "type": "function"
    },
    {
      "inputs": [
        {
          "internalType": "uint256",
          "name": "tokenId",
          "type": "uint256"
        }
      ],
      "name": "tokenURI",
      "outputs": [
        {
          "internalType": "string",
          "name": "",
          "type": "string"
        }
      ],
      "stateMutability": "view",
      "type": "function"
    },
    {
      "inputs": [
        {
          "internalType": "address",
          "name": "from",
          "type": "address"
        },
        {
          "internalType": "address",
          "name": "to",
          "type": "address"
        },
        {
          "internalType": "uint256",
          "name": "tokenId",
          "type": "uint256"
        }
      ],
      "name": "transferFrom",
      "outputs": [],
      "stateMutability": "nonpayable",
      "type": "function"
    },
    {
      "inputs": [
        {
          "internalType": "address",
          "name": "newOwner",
          "type": "address"
        }
      ],
      "name": "transferOwnership",
      "outputs": [],
      "stateMutability": "nonpayable",
      "type": "function"
    },
    {
      "inputs": [],
      "name": "withdraw",
      "outputs": [],
      "stateMutability": "nonpayable",
      "type": "function"
    }
  ],
  "bytecode": "0x60806040526040518061012001604052806040518060400160405280600781526020017f234542353735370000000000000000000000000000000000000000000000000081525081526020016040518060400160405280600781526020017f234632393934410000000000000000000000000000000000000000000000000081525081526020016040518060400160405280600781526020017f234632433934430000000000000000000000000000000000000000000000000081525081526020016040518060400160405280600781526020017f233646434639370000000000000000000000000000000000000000000000000081525081526020016040518060400160405280600781526020017f233536434346320000000000000000000000000000000000000000000000000081525081526020016040518060400160405280600781526020017f233246383045440000000000000000000000000000000000000000000000000081525081526020016040518060400160405280600781526020017f233942353145300000000000000000000000000000000000000000000000000081525081526020016040518060400160405280600481526020017f234646460000000000000000000000000000000000000000000000000000000081525081526020016040518060400160405280600481526020017f2331313100000000000000000000000000000000000000000000000000000000815250815250600a90600962000233929190620003d5565b503480156200024157600080fd5b5060405162004f9e38038062004f9e8339818101604052810190620002679190620005d6565b82828160009080519060200190620002819291906200042f565b5080600190805190602001906200029a9291906200042f565b505050620002bd620002b16200030760201b60201c565b6200030f60201b60201c565b80600960006101000a81548173ffffffffffffffffffffffffffffffffffffffff021916908373ffffffffffffffffffffffffffffffffffffffff1602179055505050506200081c565b600033905090565b6000600760009054906101000a900473ffffffffffffffffffffffffffffffffffffffff16905081600760006101000a81548173ffffffffffffffffffffffffffffffffffffffff021916908373ffffffffffffffffffffffffffffffffffffffff1602179055508173ffffffffffffffffffffffffffffffffffffffff168173ffffffffffffffffffffffffffffffffffffffff167f8be0079c531659141344cd1fd0a4f28419497f9722a3daafe3b4186f6b6457e060405160405180910390a35050565b82600981019282156200041c579160200282015b828111156200041b5782518290805190602001906200040a9291906200042f565b5091602001919060010190620003e9565b5b5090506200042b9190620004c0565b5090565b8280546200043d9062000727565b90600052602060002090601f016020900481019282620004615760008555620004ad565b82601f106200047c57805160ff1916838001178555620004ad565b82800160010185558215620004ad579182015b82811115620004ac5782518255916020019190600101906200048f565b5b509050620004bc9190620004e8565b5090565b5b80821115620004e45760008181620004da919062000507565b50600101620004c1565b5090565b5b8082111562000503576000816000905550600101620004e9565b5090565b508054620005159062000727565b6000825580601f106200052957506200054a565b601f016020900490600052602060002090810190620005499190620004e8565b5b50565b6000620005646200055e8462000687565b6200065e565b9050828152602081018484840111156200057d57600080fd5b6200058a848285620006f1565b509392505050565b600081519050620005a38162000802565b92915050565b600082601f830112620005bb57600080fd5b8151620005cd8482602086016200054d565b91505092915050565b600080600060608486031215620005ec57600080fd5b600084015167ffffffffffffffff8111156200060757600080fd5b6200061586828701620005a9565b935050602084015167ffffffffffffffff8111156200063357600080fd5b6200064186828701620005a9565b9250506040620006548682870162000592565b9150509250925092565b60006200066a6200067d565b90506200067882826200075d565b919050565b6000604051905090565b600067ffffffffffffffff821115620006a557620006a4620007c2565b5b620006b082620007f1565b9050602081019050919050565b6000620006ca82620006d1565b9050919050565b600073ffffffffffffffffffffffffffffffffffffffff82169050919050565b60005b8381101562000711578082015181840152602081019050620006f4565b8381111562000721576000848401525b50505050565b600060028204905060018216806200074057607f821691505b6020821081141562000757576200075662000793565b5b50919050565b6200076882620007f1565b810181811067ffffffffffffffff821117156200078a5762000789620007c2565b5b80604052505050565b7f4e487b7100000000000000000000000000000000000000000000000000000000600052602260045260246000fd5b7f4e487b7100000000000000000000000000000000000000000000000000000000600052604160045260246000fd5b6000601f19601f8301169050919050565b6200080d81620006bd565b81146200081957600080fd5b50565b614772806200082c6000396000f3fe60806040526004361061014b5760003560e01c80638da5cb5b116100b6578063bc921dc21161006f578063bc921dc21461046f578063c4e41b22146104ac578063c87b56dd146104d7578063e985e9c514610514578063f2113b5a14610551578063f2fde38b1461057c5761014b565b80638da5cb5b14610371578063913e77ad1461039c57806395d89b41146103c757806398d5fdca146103f2578063a22cb4651461041d578063b88d4fde146104465761014b565b80633ccfd60b116101085780633ccfd60b1461028457806342842e0e1461029b5780636352211e146102c45780636a6278421461030157806370a082311461031d578063715018a61461035a5761014b565b8063015e1a0b1461015057806301ffc9a71461018d57806306fdde03146101ca578063081812fc146101f5578063095ea7b31461023257806323b872dd1461025b575b600080fd5b34801561015c57600080fd5b5061017760048036038101906101729190612ae6565b6105a5565b60405161018491906134c9565b60405180910390f35b34801561019957600080fd5b506101b460048036038101906101af9190612a94565b61066f565b6040516101c191906134ae565b60405180910390f35b3480156101d657600080fd5b506101df610751565b6040516101ec91906134c9565b60405180910390f35b34801561020157600080fd5b5061021c60048036038101906102179190612ae6565b6107e3565b604051610229919061342c565b60405180910390f35b34801561023e57600080fd5b5061025960048036038101906102549190612a58565b610868565b005b34801561026757600080fd5b50610282600480360381019061027d9190612952565b610980565b005b34801561029057600080fd5b506102996109e0565b005b3480156102a757600080fd5b506102c260048036038101906102bd9190612952565b610a8a565b005b3480156102d057600080fd5b506102eb60048036038101906102e69190612ae6565b610aaa565b6040516102f8919061342c565b60405180910390f35b61031b600480360381019061031691906128ed565b610b5c565b005b34801561032957600080fd5b50610344600480360381019061033f91906128ed565b610c2e565b60405161035191906137cb565b60405180910390f35b34801561036657600080fd5b5061036f610ce6565b005b34801561037d57600080fd5b50610386610d6e565b604051610393919061342c565b60405180910390f35b3480156103a857600080fd5b506103b1610d98565b6040516103be9190613447565b60405180910390f35b3480156103d357600080fd5b506103dc610dbe565b6040516103e991906134c9565b60405180910390f35b3480156103fe57600080fd5b50610407610e50565b60405161041491906137cb565b60405180910390f35b34801561042957600080fd5b50610444600480360381019061043f9190612a1c565b610e5f565b005b34801561045257600080fd5b5061046d600480360381019061046891906129a1565b610e75565b005b34801561047b57600080fd5b5061049660048036038101906104919190612ae6565b610ed7565b6040516104a391906134c9565b60405180910390f35b3480156104b857600080fd5b506104c161125a565b6040516104ce91906137cb565b60405180910390f35b3480156104e357600080fd5b506104fe60048036038101906104f99190612ae6565b611263565b60405161050b91906134c9565b60405180910390f35b34801561052057600080fd5b5061053b60048036038101906105369190612916565b611275565b60405161054891906134ae565b60405180910390f35b34801561055d57600080fd5b50610566611309565b60405161057391906137cb565b60405180910390f35b34801561058857600080fd5b506105a3600480360381019061059e91906128ed565b61131a565b005b606060006105b283611412565b6040516020016105c291906132af565b604051602081830303815290604052905060006040518060400160405280601681526020017f72656374616e676c657320616e6420636972636c6573000000000000000000008152509050600061061885610ed7565b905061064683838360405160200161063293929190613252565b6040516020818303038152906040526115bf565b60405160200161065691906132d1565b6040516020818303038152906040529350505050919050565b60007f80ac58cd000000000000000000000000000000000000000000000000000000007bffffffffffffffffffffffffffffffffffffffffffffffffffffffff1916827bffffffffffffffffffffffffffffffffffffffffffffffffffffffff1916148061073a57507f5b5e139f000000000000000000000000000000000000000000000000000000007bffffffffffffffffffffffffffffffffffffffffffffffffffffffff1916827bffffffffffffffffffffffffffffffffffffffffffffffffffffffff1916145b8061074a57506107498261176a565b5b9050919050565b60606000805461076090613a93565b80601f016020809104026020016040519081016040528092919081815260200182805461078c90613a93565b80156107d95780601f106107ae576101008083540402835291602001916107d9565b820191906000526020600020905b8154815290600101906020018083116107bc57829003601f168201915b5050505050905090565b60006107ee826117d4565b61082d576040517f08c379a0000000000000000000000000000000000000000000000000000000008152600401610824906136eb565b60405180910390fd5b6004600083815260200190815260200160002060009054906101000a900473ffffffffffffffffffffffffffffffffffffffff169050919050565b600061087382610aaa565b90508073ffffffffffffffffffffffffffffffffffffffff168373ffffffffffffffffffffffffffffffffffffffff1614156108e4576040517f08c379a00000000000000000000000000000000000000000000000000000000081526004016108db9061376b565b60405180910390fd5b8073ffffffffffffffffffffffffffffffffffffffff16610903611840565b73ffffffffffffffffffffffffffffffffffffffff16148061093257506109318161092c611840565b611275565b5b610971576040517f08c379a00000000000000000000000000000000000000000000000000000000081526004016109689061362b565b60405180910390fd5b61097b8383611848565b505050565b61099161098b611840565b82611901565b6109d0576040517f08c379a00000000000000000000000000000000000000000000000000000000081526004016109c79061378b565b60405180910390fd5b6109db8383836119df565b505050565b6109e8611840565b73ffffffffffffffffffffffffffffffffffffffff16610a06610d6e565b73ffffffffffffffffffffffffffffffffffffffff1614610a5c576040517f08c379a0000000000000000000000000000000000000000000000000000000008152600401610a539061370b565b60405180910390fd5b610a88600960009054906101000a900473ffffffffffffffffffffffffffffffffffffffff1647611c3b565b565b610aa583838360405180602001604052806000815250610e75565b505050565b6000806002600084815260200190815260200160002060009054906101000a900473ffffffffffffffffffffffffffffffffffffffff169050600073ffffffffffffffffffffffffffffffffffffffff168173ffffffffffffffffffffffffffffffffffffffff161415610b53576040517f08c379a0000000000000000000000000000000000000000000000000000000008152600401610b4a9061366b565b60405180910390fd5b80915050919050565b6000610b686008611d2f565b9050606f600182610b79919061389f565b1115610bba576040517f08c379a0000000000000000000000000000000000000000000000000000000008152600401610bb19061356b565b60405180910390fd5b66038d7ea4c68000341015610c04576040517f08c379a0000000000000000000000000000000000000000000000000000000008152600401610bfb906134eb565b60405180910390fd5b610c0e8282611d3d565b610c2081610c1b836105a5565b611d5b565b610c2a6008611dcf565b5050565b60008073ffffffffffffffffffffffffffffffffffffffff168273ffffffffffffffffffffffffffffffffffffffff161415610c9f576040517f08c379a0000000000000000000000000000000000000000000000000000000008152600401610c969061364b565b60405180910390fd5b600360008373ffffffffffffffffffffffffffffffffffffffff1673ffffffffffffffffffffffffffffffffffffffff168152602001908152602001600020549050919050565b610cee611840565b73ffffffffffffffffffffffffffffffffffffffff16610d0c610d6e565b73ffffffffffffffffffffffffffffffffffffffff1614610d62576040517f08c379a0000000000000000000000000000000000000000000000000000000008152600401610d599061370b565b60405180910390fd5b610d6c6000611de5565b565b6000600760009054906101000a900473ffffffffffffffffffffffffffffffffffffffff16905090565b600960009054906101000a900473ffffffffffffffffffffffffffffffffffffffff1681565b606060018054610dcd90613a93565b80601f0160208091040260200160405190810160405280929190818152602001828054610df990613a93565b8015610e465780601f10610e1b57610100808354040283529160200191610e46565b820191906000526020600020905b815481529060010190602001808311610e2957829003601f168201915b5050505050905090565b600066038d7ea4c68000905090565b610e71610e6a611840565b8383611eab565b5050565b610e86610e80611840565b83611901565b610ec5576040517f08c379a0000000000000000000000000000000000000000000000000000000008152600401610ebc9061378b565b60405180910390fd5b610ed184848484612018565b50505050565b6060600082604051602001610eec9190613411565b60405160208183030381529060405280519060200120604051602001610f129190613213565b60405160208183030381529060405290506000610f2e82612074565b9050611232600a82600060068110610f6f577f4e487b7100000000000000000000000000000000000000000000000000000000600052603260045260246000fd5b602002015160098110610fab577f4e487b7100000000000000000000000000000000000000000000000000000000600052603260045260246000fd5b01600a83600160068110610fe8577f4e487b7100000000000000000000000000000000000000000000000000000000600052603260045260246000fd5b602002015160098110611024577f4e487b7100000000000000000000000000000000000000000000000000000000600052603260045260246000fd5b01600a84600260068110611061577f4e487b7100000000000000000000000000000000000000000000000000000000600052603260045260246000fd5b60200201516009811061109d577f4e487b7100000000000000000000000000000000000000000000000000000000600052603260045260246000fd5b01600a856003600681106110da577f4e487b7100000000000000000000000000000000000000000000000000000000600052603260045260246000fd5b602002015160098110611116577f4e487b7100000000000000000000000000000000000000000000000000000000600052603260045260246000fd5b01600a86600460068110611153577f4e487b7100000000000000000000000000000000000000000000000000000000600052603260045260246000fd5b60200201516009811061118f577f4e487b7100000000000000000000000000000000000000000000000000000000600052603260045260246000fd5b01600a876005600681106111cc577f4e487b7100000000000000000000000000000000000000000000000000000000600052603260045260246000fd5b602002015160098110611208577f4e487b7100000000000000000000000000000000000000000000000000000000600052603260045260246000fd5b0160405160200161121e96959493929190613308565b6040516020818303038152906040526115bf565b60405160200161124291906133ef565b60405160208183030381529060405292505050919050565b6000606f905090565b606061126e82612108565b9050919050565b6000600560008473ffffffffffffffffffffffffffffffffffffffff1673ffffffffffffffffffffffffffffffffffffffff16815260200190815260200160002060008373ffffffffffffffffffffffffffffffffffffffff1673ffffffffffffffffffffffffffffffffffffffff16815260200190815260200160002060009054906101000a900460ff16905092915050565b60006113156008611d2f565b905090565b611322611840565b73ffffffffffffffffffffffffffffffffffffffff16611340610d6e565b73ffffffffffffffffffffffffffffffffffffffff1614611396576040517f08c379a000000000000000000000000000000000000000000000000000000000815260040161138d9061370b565b60405180910390fd5b600073ffffffffffffffffffffffffffffffffffffffff168173ffffffffffffffffffffffffffffffffffffffff161415611406576040517f08c379a00000000000000000000000000000000000000000000000000000000081526004016113fd9061352b565b60405180910390fd5b61140f81611de5565b50565b6060600082141561145a576040518060400160405280600181526020017f300000000000000000000000000000000000000000000000000000000000000081525090506115ba565b600082905060005b6000821461148c57808061147590613af6565b915050600a8261148591906138f5565b9150611462565b60008167ffffffffffffffff8111156114ce577f4e487b7100000000000000000000000000000000000000000000000000000000600052604160045260246000fd5b6040519080825280601f01601f1916602001820160405280156115005781602001600182028036833780820191505090505b5090505b600085146115b3576001826115199190613980565b9150600a856115289190613b53565b6030611534919061389f565b60f81b818381518110611570577f4e487b7100000000000000000000000000000000000000000000000000000000600052603260045260246000fd5b60200101907effffffffffffffffffffffffffffffffffffffffffffffffffffffffffffff1916908160001a905350600a856115ac91906138f5565b9450611504565b8093505050505b919050565b60606000825114156115e257604051806020016040528060008152509050611765565b60006040518060600160405280604081526020016146fd6040913990506000600360028551611611919061389f565b61161b91906138f5565b60046116279190613926565b90506000602082611638919061389f565b67ffffffffffffffff811115611677577f4e487b7100000000000000000000000000000000000000000000000000000000600052604160045260246000fd5b6040519080825280601f01601f1916602001820160405280156116a95781602001600182028036833780820191505090505b509050818152600183018586518101602084015b81831015611724576003830192508251603f8160121c1685015160f81b8252600182019150603f81600c1c1685015160f81b8252600182019150603f8160061c1685015160f81b8252600182019150603f811685015160f81b8252600182019150506116bd565b60038951066001811461173e576002811461174e57611759565b613d3d60f01b6002830352611759565b603d60f81b60018303525b50505050508093505050505b919050565b60007f01ffc9a7000000000000000000000000000000000000000000000000000000007bffffffffffffffffffffffffffffffffffffffffffffffffffffffff1916827bffffffffffffffffffffffffffffffffffffffffffffffffffffffff1916149050919050565b60008073ffffffffffffffffffffffffffffffffffffffff166002600084815260200190815260200160002060009054906101000a900473ffffffffffffffffffffffffffffffffffffffff1673ffffffffffffffffffffffffffffffffffffffff1614159050919050565b600033905090565b816004600083815260200190815260200160002060006101000a81548173ffffffffffffffffffffffffffffffffffffffff021916908373ffffffffffffffffffffffffffffffffffffffff160217905550808273ffffffffffffffffffffffffffffffffffffffff166118bb83610aaa565b73ffffffffffffffffffffffffffffffffffffffff167f8c5be1e5ebec7d5bd14f71427d1e84f3dd0314c0f7b2291e5b200ac8c7c3b92560405160405180910390a45050565b600061190c826117d4565b61194b576040517f08c379a00000000000000000000000000000000000000000000000000000000081526004016119429061360b565b60405180910390fd5b600061195683610aaa565b90508073ffffffffffffffffffffffffffffffffffffffff168473ffffffffffffffffffffffffffffffffffffffff1614806119c557508373ffffffffffffffffffffffffffffffffffffffff166119ad846107e3565b73ffffffffffffffffffffffffffffffffffffffff16145b806119d657506119d58185611275565b5b91505092915050565b8273ffffffffffffffffffffffffffffffffffffffff166119ff82610aaa565b73ffffffffffffffffffffffffffffffffffffffff1614611a55576040517f08c379a0000000000000000000000000000000000000000000000000000000008152600401611a4c9061372b565b60405180910390fd5b600073ffffffffffffffffffffffffffffffffffffffff168273ffffffffffffffffffffffffffffffffffffffff161415611ac5576040517f08c379a0000000000000000000000000000000000000000000000000000000008152600401611abc9061358b565b60405180910390fd5b611ad083838361225a565b611adb600082611848565b6001600360008573ffffffffffffffffffffffffffffffffffffffff1673ffffffffffffffffffffffffffffffffffffffff1681526020019081526020016000206000828254611b2b9190613980565b925050819055506001600360008473ffffffffffffffffffffffffffffffffffffffff1673ffffffffffffffffffffffffffffffffffffffff1681526020019081526020016000206000828254611b82919061389f565b92505081905550816002600083815260200190815260200160002060006101000a81548173ffffffffffffffffffffffffffffffffffffffff021916908373ffffffffffffffffffffffffffffffffffffffff160217905550808273ffffffffffffffffffffffffffffffffffffffff168473ffffffffffffffffffffffffffffffffffffffff167fddf252ad1be2c89b69c2b068fc378daa952ba7f163c4a11628f55a4df523b3ef60405160405180910390a4505050565b80471015611c7e576040517f08c379a0000000000000000000000000000000000000000000000000000000008152600401611c75906135eb565b60405180910390fd5b60008273ffffffffffffffffffffffffffffffffffffffff1682604051611ca4906132f3565b60006040518083038185875af1925050503d8060008114611ce1576040519150601f19603f3d011682016040523d82523d6000602084013e611ce6565b606091505b5050905080611d2a576040517f08c379a0000000000000000000000000000000000000000000000000000000008152600401611d21906135cb565b60405180910390fd5b505050565b600081600001549050919050565b611d5782826040518060200160405280600081525061225f565b5050565b611d64826117d4565b611da3576040517f08c379a0000000000000000000000000000000000000000000000000000000008152600401611d9a9061368b565b60405180910390fd5b80600660008481526020019081526020016000209080519060200190611dca929190612757565b505050565b6001816000016000828254019250508190555050565b6000600760009054906101000a900473ffffffffffffffffffffffffffffffffffffffff16905081600760006101000a81548173ffffffffffffffffffffffffffffffffffffffff021916908373ffffffffffffffffffffffffffffffffffffffff1602179055508173ffffffffffffffffffffffffffffffffffffffff168173ffffffffffffffffffffffffffffffffffffffff167f8be0079c531659141344cd1fd0a4f28419497f9722a3daafe3b4186f6b6457e060405160405180910390a35050565b8173ffffffffffffffffffffffffffffffffffffffff168373ffffffffffffffffffffffffffffffffffffffff161415611f1a576040517f08c379a0000000000000000000000000000000000000000000000000000000008152600401611f11906135ab565b60405180910390fd5b80600560008573ffffffffffffffffffffffffffffffffffffffff1673ffffffffffffffffffffffffffffffffffffffff16815260200190815260200160002060008473ffffffffffffffffffffffffffffffffffffffff1673ffffffffffffffffffffffffffffffffffffffff16815260200190815260200160002060006101000a81548160ff0219169083151502179055508173ffffffffffffffffffffffffffffffffffffffff168373ffffffffffffffffffffffffffffffffffffffff167f17307eab39ab6107e8899845ad3d59bd9653f200f220920489ca2b5937696c318360405161200b91906134ae565b60405180910390a3505050565b6120238484846119df565b61202f848484846122ba565b61206e576040517f08c379a00000000000000000000000000000000000000000000000000000000081526004016120659061350b565b60405180910390fd5b50505050565b61207c6127dd565b6120846127dd565b60005b60068110156120fe57600961209c8583612451565b6120a69190613b84565b60ff168282600681106120e2577f4e487b7100000000000000000000000000000000000000000000000000000000600052603260045260246000fd5b60200201818152505080806120f690613af6565b915050612087565b5080915050919050565b6060612113826117d4565b612152576040517f08c379a0000000000000000000000000000000000000000000000000000000008152600401612149906136cb565b60405180910390fd5b600060066000848152602001908152602001600020805461217290613a93565b80601f016020809104026020016040519081016040528092919081815260200182805461219e90613a93565b80156121eb5780601f106121c0576101008083540402835291602001916121eb565b820191906000526020600020905b8154815290600101906020018083116121ce57829003601f168201915b5050505050905060006121fc6124b8565b9050600081511415612212578192505050612255565b60008251111561224757808260405160200161222f92919061322e565b60405160208183030381529060405292505050612255565b612250846124cf565b925050505b919050565b505050565b6122698383612576565b61227660008484846122ba565b6122b5576040517f08c379a00000000000000000000000000000000000000000000000000000000081526004016122ac9061350b565b60405180910390fd5b505050565b60006122db8473ffffffffffffffffffffffffffffffffffffffff16612744565b15612444578373ffffffffffffffffffffffffffffffffffffffff1663150b7a02612304611840565b8786866040518563ffffffff1660e01b81526004016123269493929190613462565b602060405180830381600087803b15801561234057600080fd5b505af192505050801561237157506040513d601f19601f8201168201806040525081019061236e9190612abd565b60015b6123f4573d80600081146123a1576040519150601f19603f3d011682016040523d82523d6000602084013e6123a6565b606091505b506000815114156123ec576040517f08c379a00000000000000000000000000000000000000000000000000000000081526004016123e39061350b565b60405180910390fd5b805181602001fd5b63150b7a0260e01b7bffffffffffffffffffffffffffffffffffffffffffffffffffffffff1916817bffffffffffffffffffffffffffffffffffffffffffffffffffffffff191614915050612449565b600190505b949350505050565b6000600182612460919061389f565b835110156124a3576040517f08c379a000000000000000000000000000000000000000000000000000000000815260040161249a906137ab565b60405180910390fd5b60008260018501015190508091505092915050565b606060405180602001604052806000815250905090565b60606124da826117d4565b612519576040517f08c379a00000000000000000000000000000000000000000000000000000000081526004016125109061374b565b60405180910390fd5b60006125236124b8565b90506000815111612543576040518060200160405280600081525061256e565b8061254d84611412565b60405160200161255e92919061322e565b6040516020818303038152906040525b915050919050565b600073ffffffffffffffffffffffffffffffffffffffff168273ffffffffffffffffffffffffffffffffffffffff1614156125e6576040517f08c379a00000000000000000000000000000000000000000000000000000000081526004016125dd906136ab565b60405180910390fd5b6125ef816117d4565b1561262f576040517f08c379a00000000000000000000000000000000000000000000000000000000081526004016126269061354b565b60405180910390fd5b61263b6000838361225a565b6001600360008473ffffffffffffffffffffffffffffffffffffffff1673ffffffffffffffffffffffffffffffffffffffff168152602001908152602001600020600082825461268b919061389f565b92505081905550816002600083815260200190815260200160002060006101000a81548173ffffffffffffffffffffffffffffffffffffffff021916908373ffffffffffffffffffffffffffffffffffffffff160217905550808273ffffffffffffffffffffffffffffffffffffffff16600073ffffffffffffffffffffffffffffffffffffffff167fddf252ad1be2c89b69c2b068fc378daa952ba7f163c4a11628f55a4df523b3ef60405160405180910390a45050565b600080823b905060008111915050919050565b82805461276390613a93565b90600052602060002090601f01602090048101928261278557600085556127cc565b82601f1061279e57805160ff19168380011785556127cc565b828001600101855582156127cc579182015b828111156127cb5782518255916020019190600101906127b0565b5b5090506127d991906127ff565b5090565b6040518060c00160405280600690602082028036833780820191505090505090565b5b80821115612818576000816000905550600101612800565b5090565b600061282f61282a8461380b565b6137e6565b90508281526020810184848401111561284757600080fd5b612852848285613a51565b509392505050565b600081359050612869816146a0565b92915050565b60008135905061287e816146b7565b92915050565b600081359050612893816146ce565b92915050565b6000815190506128a8816146ce565b92915050565b600082601f8301126128bf57600080fd5b81356128cf84826020860161281c565b91505092915050565b6000813590506128e7816146e5565b92915050565b6000602082840312156128ff57600080fd5b600061290d8482850161285a565b91505092915050565b6000806040838503121561292957600080fd5b60006129378582860161285a565b92505060206129488582860161285a565b9150509250929050565b60008060006060848603121561296757600080fd5b60006129758682870161285a565b93505060206129868682870161285a565b9250506040612997868287016128d8565b9150509250925092565b600080600080608085870312156129b757600080fd5b60006129c58782880161285a565b94505060206129d68782880161285a565b93505060406129e7878288016128d8565b925050606085013567ffffffffffffffff811115612a0457600080fd5b612a10878288016128ae565b91505092959194509250565b60008060408385031215612a2f57600080fd5b6000612a3d8582860161285a565b9250506020612a4e8582860161286f565b9150509250929050565b60008060408385031215612a6b57600080fd5b6000612a798582860161285a565b9250506020612a8a858286016128d8565b9150509250929050565b600060208284031215612aa657600080fd5b6000612ab484828501612884565b91505092915050565b600060208284031215612acf57600080fd5b6000612add84828501612899565b91505092915050565b600060208284031215612af857600080fd5b6000612b06848285016128d8565b91505092915050565b612b18816139c6565b82525050565b612b27816139b4565b82525050565b612b36816139d8565b82525050565b612b4d612b48826139e4565b613b3f565b82525050565b6000612b5e82613851565b612b688185613867565b9350612b78818560208601613a60565b612b8181613c71565b840191505092915050565b6000612b978261385c565b612ba18185613883565b9350612bb1818560208601613a60565b612bba81613c71565b840191505092915050565b6000612bd08261385c565b612bda8185613894565b9350612bea818560208601613a60565b80840191505092915050565b60008154612c0381613a93565b612c0d8186613894565b94506001821660008114612c285760018114612c3957612c6c565b60ff19831686528186019350612c6c565b612c428561383c565b60005b83811015612c6457815481890152600182019150602081019050612c45565b838801955050505b50505092915050565b6000612c82603c83613894565b9150612c8d82613c82565b603c82019050919050565b6000612ca5600983613894565b9150612cb082613cd1565b600982019050919050565b6000612cc8601583613883565b9150612cd382613cfa565b602082019050919050565b6000612ceb603283613883565b9150612cf682613d23565b604082019050919050565b6000612d0e602683613883565b9150612d1982613d72565b604082019050919050565b6000612d31601c83613883565b9150612d3c82613dc1565b602082019050919050565b6000612d54604883613894565b9150612d5f82613dea565b604882019050919050565b6000612d77600783613894565b9150612d8282613e5f565b600782019050919050565b6000612d9a601383613883565b9150612da582613e88565b602082019050919050565b6000612dbd602483613883565b9150612dc882613eb1565b604082019050919050565b6000612de0601983613883565b9150612deb82613f00565b602082019050919050565b6000612e03603a83613883565b9150612e0e82613f29565b604082019050919050565b6000612e26601d83613883565b9150612e3182613f78565b602082019050919050565b6000612e49602c83613883565b9150612e5482613fa1565b604082019050919050565b6000612e6c603883613883565b9150612e7782613ff0565b604082019050919050565b6000612e8f604583613894565b9150612e9a8261403f565b604582019050919050565b6000612eb2600483613894565b9150612ebd826140b4565b600482019050919050565b6000612ed5602a83613883565b9150612ee0826140dd565b604082019050919050565b6000612ef8602983613883565b9150612f038261412c565b604082019050919050565b6000612f1b602e83613883565b9150612f268261417b565b604082019050919050565b6000612f3e600283613894565b9150612f49826141ca565b600282019050919050565b6000612f61602083613883565b9150612f6c826141f3565b602082019050919050565b6000612f84605e83613894565b9150612f8f8261421c565b605e82019050919050565b6000612fa7600d83613894565b9150612fb282614291565b600d82019050919050565b6000612fca603183613883565b9150612fd5826142ba565b604082019050919050565b6000612fed602c83613883565b9150612ff882614309565b604082019050919050565b6000613010603f83613894565b915061301b82614358565b603f82019050919050565b6000613033601283613894565b915061303e826143a7565b601282019050919050565b6000613056602083613883565b9150613061826143d0565b602082019050919050565b6000613079602983613883565b9150613084826143f9565b604082019050919050565b600061309c602f83613883565b91506130a782614448565b604082019050919050565b60006130bf604383613894565b91506130ca82614497565b604382019050919050565b60006130e2602183613883565b91506130ed8261450c565b604082019050919050565b6000613105601d83613894565b91506131108261455b565b601d82019050919050565b6000613128600083613878565b915061313382614584565b600082019050919050565b600061314b603183613883565b915061315682614587565b604082019050919050565b600061316e601383613883565b9150613179826145d6565b602082019050919050565b6000613191603e83613894565b915061319c826145ff565b603e82019050919050565b60006131b4600683613894565b91506131bf8261464e565b600682019050919050565b60006131d7601a83613894565b91506131e282614677565b601a82019050919050565b6131f681613a3a565b82525050565b61320d61320882613a3a565b613b49565b82525050565b600061321f8284612b3c565b60208201915081905092915050565b600061323a8285612bc5565b91506132468284612bc5565b91508190509392505050565b600061325d82612c98565b91506132698286612bc5565b915061327482613026565b91506132808285612bc5565b915061328b82612f9a565b91506132978284612bc5565b91506132a282612f31565b9150819050949350505050565b60006132ba82612d6a565b91506132c68284612bc5565b915081905092915050565b60006132dc826130f8565b91506132e88284612bc5565b915081905092915050565b60006132fe8261311b565b9150819050919050565b600061331382613184565b915061331e82612c75565b915061332a8289612bf6565b9150613335826130b2565b91506133418288612bf6565b915061334c82612ea5565b915061335782612e82565b91506133638287612bf6565b915061336e82612ea5565b915061337982613003565b91506133858286612bf6565b915061339082612ea5565b915061339b82612f77565b91506133a78285612bf6565b91506133b282612ea5565b91506133bd82612d47565b91506133c98284612bf6565b91506133d482612ea5565b91506133df826131a7565b9150819050979650505050505050565b60006133fa826131ca565b91506134068284612bc5565b915081905092915050565b600061341d82846131fc565b60208201915081905092915050565b60006020820190506134416000830184612b1e565b92915050565b600060208201905061345c6000830184612b0f565b92915050565b60006080820190506134776000830187612b1e565b6134846020830186612b1e565b61349160408301856131ed565b81810360608301526134a38184612b53565b905095945050505050565b60006020820190506134c36000830184612b2d565b92915050565b600060208201905081810360008301526134e38184612b8c565b905092915050565b6000602082019050818103600083015261350481612cbb565b9050919050565b6000602082019050818103600083015261352481612cde565b9050919050565b6000602082019050818103600083015261354481612d01565b9050919050565b6000602082019050818103600083015261356481612d24565b9050919050565b6000602082019050818103600083015261358481612d8d565b9050919050565b600060208201905081810360008301526135a481612db0565b9050919050565b600060208201905081810360008301526135c481612dd3565b9050919050565b600060208201905081810360008301526135e481612df6565b9050919050565b6000602082019050818103600083015261360481612e19565b9050919050565b6000602082019050818103600083015261362481612e3c565b9050919050565b6000602082019050818103600083015261364481612e5f565b9050919050565b6000602082019050818103600083015261366481612ec8565b9050919050565b6000602082019050818103600083015261368481612eeb565b9050919050565b600060208201905081810360008301526136a481612f0e565b9050919050565b600060208201905081810360008301526136c481612f54565b9050919050565b600060208201905081810360008301526136e481612fbd565b9050919050565b6000602082019050818103600083015261370481612fe0565b9050919050565b6000602082019050818103600083015261372481613049565b9050919050565b600060208201905081810360008301526137448161306c565b9050919050565b600060208201905081810360008301526137648161308f565b9050919050565b60006020820190508181036000830152613784816130d5565b9050919050565b600060208201905081810360008301526137a48161313e565b9050919050565b600060208201905081810360008301526137c481613161565b9050919050565b60006020820190506137e060008301846131ed565b92915050565b60006137f0613801565b90506137fc8282613ac5565b919050565b6000604051905090565b600067ffffffffffffffff82111561382657613825613c42565b5b61382f82613c71565b9050602081019050919050565b60008190508160005260206000209050919050565b600081519050919050565b600081519050919050565b600082825260208201905092915050565b600081905092915050565b600082825260208201905092915050565b600081905092915050565b60006138aa82613a3a565b91506138b583613a3a565b9250827fffffffffffffffffffffffffffffffffffffffffffffffffffffffffffffffff038211156138ea576138e9613bb5565b5b828201905092915050565b600061390082613a3a565b915061390b83613a3a565b92508261391b5761391a613be4565b5b828204905092915050565b600061393182613a3a565b915061393c83613a3a565b9250817fffffffffffffffffffffffffffffffffffffffffffffffffffffffffffffffff048311821515161561397557613974613bb5565b5b828202905092915050565b600061398b82613a3a565b915061399683613a3a565b9250828210156139a9576139a8613bb5565b5b828203905092915050565b60006139bf82613a1a565b9050919050565b60006139d182613a1a565b9050919050565b60008115159050919050565b6000819050919050565b60007fffffffff0000000000000000000000000000000000000000000000000000000082169050919050565b600073ffffffffffffffffffffffffffffffffffffffff82169050919050565b6000819050919050565b600060ff82169050919050565b82818337600083830152505050565b60005b83811015613a7e578082015181840152602081019050613a63565b83811115613a8d576000848401525b50505050565b60006002820490506001821680613aab57607f821691505b60208210811415613abf57613abe613c13565b5b50919050565b613ace82613c71565b810181811067ffffffffffffffff82111715613aed57613aec613c42565b5b80604052505050565b6000613b0182613a3a565b91507fffffffffffffffffffffffffffffffffffffffffffffffffffffffffffffffff821415613b3457613b33613bb5565b5b600182019050919050565b6000819050919050565b6000819050919050565b6000613b5e82613a3a565b9150613b6983613a3a565b925082613b7957613b78613be4565b5b828206905092915050565b6000613b8f82613a44565b9150613b9a83613a44565b925082613baa57613ba9613be4565b5b828206905092915050565b7f4e487b7100000000000000000000000000000000000000000000000000000000600052601160045260246000fd5b7f4e487b7100000000000000000000000000000000000000000000000000000000600052601260045260246000fd5b7f4e487b7100000000000000000000000000000000000000000000000000000000600052602260045260246000fd5b7f4e487b7100000000000000000000000000000000000000000000000000000000600052604160045260246000fd5b6000601f19601f8301169050919050565b7f3c7061746820643d224d302030683139347633383848307a222073686170655260008201527f656e646572696e673d2263726973704564676573222066696c6c3d2200000000602082015250565b7f7b226e616d65223a220000000000000000000000000000000000000000000000600082015250565b7f4e6f7420656e6f7567682066756e64732073656e740000000000000000000000600082015250565b7f4552433732313a207472616e7366657220746f206e6f6e20455243373231526560008201527f63656976657220696d706c656d656e7465720000000000000000000000000000602082015250565b7f4f776e61626c653a206e6577206f776e657220697320746865207a65726f206160008201527f6464726573730000000000000000000000000000000000000000000000000000602082015250565b7f4552433732313a20746f6b656e20616c7265616479206d696e74656400000000600082015250565b7f3c7061746820643d224d313934203239302e35563139346834387639362e356860008201527f2d34385a2220736861706552656e646572696e673d226372697370456467657360208201527f222066696c6c3d22000000000000000000000000000000000000000000000000604082015250565b7f5368616570202300000000000000000000000000000000000000000000000000600082015250565b7f546f74616c20737570706c79206d696e74656400000000000000000000000000600082015250565b7f4552433732313a207472616e7366657220746f20746865207a65726f2061646460008201527f7265737300000000000000000000000000000000000000000000000000000000602082015250565b7f4552433732313a20617070726f766520746f2063616c6c657200000000000000600082015250565b7f416464726573733a20756e61626c6520746f2073656e642076616c75652c207260008201527f6563697069656e74206d61792068617665207265766572746564000000000000602082015250565b7f416464726573733a20696e73756666696369656e742062616c616e6365000000600082015250565b7f4552433732313a206f70657261746f7220717565727920666f72206e6f6e657860008201527f697374656e7420746f6b656e0000000000000000000000000000000000000000602082015250565b7f4552433732313a20617070726f76652063616c6c6572206973206e6f74206f7760008201527f6e6572206e6f7220617070726f76656420666f7220616c6c0000000000000000602082015250565b7f3c7061746820643d224d3937203139332e373563302035332e3433342034332e60008201527f3536362039362e37352039372039362e3735762d39362e37354839375a22206660208201527f696c6c3d22000000000000000000000000000000000000000000000000000000604082015250565b7f22202f3e00000000000000000000000000000000000000000000000000000000600082015250565b7f4552433732313a2062616c616e636520717565727920666f7220746865207a6560008201527f726f206164647265737300000000000000000000000000000000000000000000602082015250565b7f4552433732313a206f776e657220717565727920666f72206e6f6e657869737460008201527f656e7420746f6b656e0000000000000000000000000000000000000000000000602082015250565b7f45524337323155524953746f726167653a2055524920736574206f66206e6f6e60008201527f6578697374656e7420746f6b656e000000000000000000000000000000000000602082015250565b7f227d000000000000000000000000000000000000000000000000000000000000600082015250565b7f4552433732313a206d696e7420746f20746865207a65726f2061646472657373600082015250565b7f3c7061746820643d224d393720313934762d2e3235433937203134302e33313660008201527f203134302e333136203937203139332e37352039377339362e37352034332e3360208201527f31362039362e37352039362e3735762e32354839375a222066696c6c3d220000604082015250565b7f222c2022696d616765223a202200000000000000000000000000000000000000600082015250565b7f45524337323155524953746f726167653a2055524920717565727920666f722060008201527f6e6f6e6578697374656e7420746f6b656e000000000000000000000000000000602082015250565b7f4552433732313a20617070726f76656420717565727920666f72206e6f6e657860008201527f697374656e7420746f6b656e0000000000000000000000000000000000000000602082015250565b7f3c7061746820643d224d363920363968313235763132354836397a222073686160008201527f706552656e646572696e673d2263726973704564676573222066696c6c3d2200602082015250565b7f222c20226465736372697074696f6e223a220000000000000000000000000000600082015250565b7f4f776e61626c653a2063616c6c6572206973206e6f7420746865206f776e6572600082015250565b7f4552433732313a207472616e73666572206f6620746f6b656e2074686174206960008201527f73206e6f74206f776e0000000000000000000000000000000000000000000000602082015250565b7f4552433732314d657461646174613a2055524920717565727920666f72206e6f60008201527f6e6578697374656e7420746f6b656e0000000000000000000000000000000000602082015250565b7f222f3e3c7061746820643d224d31393420306831393476333838483139347a2260008201527f20736861706552656e646572696e673d2263726973704564676573222066696c60208201527f6c3d220000000000000000000000000000000000000000000000000000000000604082015250565b7f4552433732313a20617070726f76616c20746f2063757272656e74206f776e6560008201527f7200000000000000000000000000000000000000000000000000000000000000602082015250565b7f646174613a6170706c69636174696f6e2f6a736f6e3b6261736536342c000000600082015250565b50565b7f4552433732313a207472616e736665722063616c6c6572206973206e6f74206f60008201527f776e6572206e6f7220617070726f766564000000000000000000000000000000602082015250565b7f746f55696e74385f6f75744f66426f756e647300000000000000000000000000600082015250565b7f3c7376672076696577426f783d2230203020333838203338382220786d6c6e7360008201527f3d22687474703a2f2f7777772e77332e6f72672f323030302f737667223e0000602082015250565b7f3c2f7376673e0000000000000000000000000000000000000000000000000000600082015250565b7f646174613a696d6167652f7376672b786d6c3b6261736536342c000000000000600082015250565b6146a9816139b4565b81146146b457600080fd5b50565b6146c0816139d8565b81146146cb57600080fd5b50565b6146d7816139ee565b81146146e257600080fd5b50565b6146ee81613a3a565b81146146f957600080fd5b5056fe4142434445464748494a4b4c4d4e4f505152535455565758595a6162636465666768696a6b6c6d6e6f707172737475767778797a303132333435363738392b2fa2646970667358221220ba6b07a7c1c733952973544f35403aa40e73f4500ebcff82f64848b2c0ad8a0b64736f6c63430008040033",
  "linkReferences": {},
  "deployedLinkReferences": {}
}