{
  "_format": "hh-sol-artifact-1",
  "contractName": "Shaeps",
  "sourceName": "contracts/Shaeps.sol",
  "abi": [
    {
      "inputs": [
        {
          "internalType": "string",
          "name": "_name",
          "type": "string"
        },
        {
          "internalType": "string",
          "name": "_symbol",
          "type": "string"
        },
        {
          "internalType": "address payable",
          "name": "_collector",
          "type": "address"
        },
        {
          "internalType": "bool",
          "name": "_paused",
          "type": "bool"
        }
      ],
      "stateMutability": "nonpayable",
      "type": "constructor"
    },
    {
      "anonymous": false,
      "inputs": [
        {
          "indexed": true,
          "internalType": "address",
          "name": "owner",
          "type": "address"
        },
        {
          "indexed": true,
          "internalType": "address",
          "name": "approved",
          "type": "address"
        },
        {
          "indexed": true,
          "internalType": "uint256",
          "name": "tokenId",
          "type": "uint256"
        }
      ],
      "name": "Approval",
      "type": "event"
    },
    {
      "anonymous": false,
      "inputs": [
        {
          "indexed": true,
          "internalType": "address",
          "name": "owner",
          "type": "address"
        },
        {
          "indexed": true,
          "internalType": "address",
          "name": "operator",
          "type": "address"
        },
        {
          "indexed": false,
          "internalType": "bool",
          "name": "approved",
          "type": "bool"
        }
      ],
      "name": "ApprovalForAll",
      "type": "event"
    },
    {
      "anonymous": false,
      "inputs": [
        {
          "indexed": false,
          "internalType": "address",
          "name": "to",
          "type": "address"
        },
        {
          "indexed": false,
          "internalType": "uint256",
          "name": "tokenId",
          "type": "uint256"
        }
      ],
      "name": "Minted",
      "type": "event"
    },
    {
      "anonymous": false,
      "inputs": [
        {
          "indexed": true,
          "internalType": "address",
          "name": "previousOwner",
          "type": "address"
        },
        {
          "indexed": true,
          "internalType": "address",
          "name": "newOwner",
          "type": "address"
        }
      ],
      "name": "OwnershipTransferred",
      "type": "event"
    },
    {
      "anonymous": false,
      "inputs": [
        {
          "indexed": true,
          "internalType": "address",
          "name": "from",
          "type": "address"
        },
        {
          "indexed": true,
          "internalType": "address",
          "name": "to",
          "type": "address"
        },
        {
          "indexed": true,
          "internalType": "uint256",
          "name": "tokenId",
          "type": "uint256"
        }
      ],
      "name": "Transfer",
      "type": "event"
    },
    {
      "inputs": [
        {
          "internalType": "address",
          "name": "to",
          "type": "address"
        },
        {
          "internalType": "uint256",
          "name": "tokenId",
          "type": "uint256"
        }
      ],
      "name": "approve",
      "outputs": [],
      "stateMutability": "nonpayable",
      "type": "function"
    },
    {
      "inputs": [
        {
          "internalType": "address",
          "name": "owner",
          "type": "address"
        }
      ],
      "name": "balanceOf",
      "outputs": [
        {
          "internalType": "uint256",
          "name": "",
          "type": "uint256"
        }
      ],
      "stateMutability": "view",
      "type": "function"
    },
    {
      "inputs": [],
      "name": "collector",
      "outputs": [
        {
          "internalType": "address payable",
          "name": "",
          "type": "address"
        }
      ],
      "stateMutability": "view",
      "type": "function"
    },
    {
      "inputs": [
        {
          "internalType": "uint256",
          "name": "tokenId",
          "type": "uint256"
        }
      ],
      "name": "generateMetadata",
      "outputs": [
        {
          "internalType": "string",
          "name": "",
          "type": "string"
        }
      ],
      "stateMutability": "view",
      "type": "function"
    },
    {
      "inputs": [
        {
          "internalType": "uint256",
          "name": "tokenId",
          "type": "uint256"
        }
      ],
      "name": "generateSvg",
      "outputs": [
        {
          "internalType": "string",
          "name": "",
          "type": "string"
        }
      ],
      "stateMutability": "view",
      "type": "function"
    },
    {
      "inputs": [
        {
          "internalType": "uint256",
          "name": "tokenId",
          "type": "uint256"
        }
      ],
      "name": "getApproved",
      "outputs": [
        {
          "internalType": "address",
          "name": "",
          "type": "address"
        }
      ],
      "stateMutability": "view",
      "type": "function"
    },
    {
      "inputs": [
        {
          "internalType": "address",
          "name": "owner",
          "type": "address"
        },
        {
          "internalType": "address",
          "name": "operator",
          "type": "address"
        }
      ],
      "name": "isApprovedForAll",
      "outputs": [
        {
          "internalType": "bool",
          "name": "",
          "type": "bool"
        }
      ],
      "stateMutability": "view",
      "type": "function"
    },
    {
      "inputs": [],
      "name": "maxSupply",
      "outputs": [
        {
          "internalType": "uint256",
          "name": "",
          "type": "uint256"
        }
      ],
      "stateMutability": "view",
      "type": "function"
    },
    {
      "inputs": [
        {
          "internalType": "address",
          "name": "to",
          "type": "address"
        }
      ],
      "name": "mint",
      "outputs": [],
      "stateMutability": "payable",
      "type": "function"
    },
    {
      "inputs": [],
      "name": "mintedSupply",
      "outputs": [
        {
          "internalType": "uint256",
          "name": "",
          "type": "uint256"
        }
      ],
      "stateMutability": "view",
      "type": "function"
    },
    {
      "inputs": [],
      "name": "name",
      "outputs": [
        {
          "internalType": "string",
          "name": "",
          "type": "string"
        }
      ],
      "stateMutability": "view",
      "type": "function"
    },
    {
      "inputs": [],
      "name": "owner",
      "outputs": [
        {
          "internalType": "address",
          "name": "",
          "type": "address"
        }
      ],
      "stateMutability": "view",
      "type": "function"
    },
    {
      "inputs": [
        {
          "internalType": "uint256",
          "name": "tokenId",
          "type": "uint256"
        }
      ],
      "name": "ownerOf",
      "outputs": [
        {
          "internalType": "address",
          "name": "",
          "type": "address"
        }
      ],
      "stateMutability": "view",
      "type": "function"
    },
    {
      "inputs": [],
      "name": "pause",
      "outputs": [],
      "stateMutability": "nonpayable",
      "type": "function"
    },
    {
      "inputs": [],
      "name": "paused",
      "outputs": [
        {
          "internalType": "bool",
          "name": "",
          "type": "bool"
        }
      ],
      "stateMutability": "view",
      "type": "function"
    },
    {
      "inputs": [],
      "name": "price",
      "outputs": [
        {
          "internalType": "uint256",
          "name": "",
          "type": "uint256"
        }
      ],
      "stateMutability": "view",
      "type": "function"
    },
    {
      "inputs": [],
      "name": "renounceOwnership",
      "outputs": [],
      "stateMutability": "nonpayable",
      "type": "function"
    },
    {
      "inputs": [
        {
          "internalType": "address",
          "name": "from",
          "type": "address"
        },
        {
          "internalType": "address",
          "name": "to",
          "type": "address"
        },
        {
          "internalType": "uint256",
          "name": "tokenId",
          "type": "uint256"
        }
      ],
      "name": "safeTransferFrom",
      "outputs": [],
      "stateMutability": "nonpayable",
      "type": "function"
    },
    {
      "inputs": [
        {
          "internalType": "address",
          "name": "from",
          "type": "address"
        },
        {
          "internalType": "address",
          "name": "to",
          "type": "address"
        },
        {
          "internalType": "uint256",
          "name": "tokenId",
          "type": "uint256"
        },
        {
          "internalType": "bytes",
          "name": "_data",
          "type": "bytes"
        }
      ],
      "name": "safeTransferFrom",
      "outputs": [],
      "stateMutability": "nonpayable",
      "type": "function"
    },
    {
      "inputs": [
        {
          "internalType": "address",
          "name": "operator",
          "type": "address"
        },
        {
          "internalType": "bool",
          "name": "approved",
          "type": "bool"
        }
      ],
      "name": "setApprovalForAll",
      "outputs": [],
      "stateMutability": "nonpayable",
      "type": "function"
    },
    {
      "inputs": [
        {
          "internalType": "uint256",
          "name": "_price",
          "type": "uint256"
        }
      ],
      "name": "setPrice",
      "outputs": [],
      "stateMutability": "nonpayable",
      "type": "function"
    },
    {
      "inputs": [
        {
          "internalType": "bytes4",
          "name": "interfaceId",
          "type": "bytes4"
        }
      ],
      "name": "supportsInterface",
      "outputs": [
        {
          "internalType": "bool",
          "name": "",
          "type": "bool"
        }
      ],
      "stateMutability": "view",
      "type": "function"
    },
    {
      "inputs": [],
      "name": "symbol",
      "outputs": [
        {
          "internalType": "string",
          "name": "",
          "type": "string"
        }
      ],
      "stateMutability": "view",
      "type": "function"
    },
    {
      "inputs": [
        {
          "internalType": "uint256",
          "name": "tokenId",
          "type": "uint256"
        }
      ],
      "name": "tokenURI",
      "outputs": [
        {
          "internalType": "string",
          "name": "",
          "type": "string"
        }
      ],
      "stateMutability": "view",
      "type": "function"
    },
    {
      "inputs": [
        {
          "internalType": "address",
          "name": "from",
          "type": "address"
        },
        {
          "internalType": "address",
          "name": "to",
          "type": "address"
        },
        {
          "internalType": "uint256",
          "name": "tokenId",
          "type": "uint256"
        }
      ],
      "name": "transferFrom",
      "outputs": [],
      "stateMutability": "nonpayable",
      "type": "function"
    },
    {
      "inputs": [
        {
          "internalType": "address",
          "name": "newOwner",
          "type": "address"
        }
      ],
      "name": "transferOwnership",
      "outputs": [],
      "stateMutability": "nonpayable",
      "type": "function"
    },
    {
      "inputs": [],
      "name": "unpause",
      "outputs": [],
      "stateMutability": "nonpayable",
      "type": "function"
    },
    {
      "inputs": [],
      "name": "withdraw",
      "outputs": [],
      "stateMutability": "nonpayable",
      "type": "function"
    }
  ],
  "bytecode": "0x6080604052670de0b6b3a76400006009556040518061012001604052806040518060400160405280600781526020017f234542353735370000000000000000000000000000000000000000000000000081525081526020016040518060400160405280600781526020017f234632393934410000000000000000000000000000000000000000000000000081525081526020016040518060400160405280600781526020017f234632433934430000000000000000000000000000000000000000000000000081525081526020016040518060400160405280600781526020017f233646434639370000000000000000000000000000000000000000000000000081525081526020016040518060400160405280600781526020017f233536434346320000000000000000000000000000000000000000000000000081525081526020016040518060400160405280600781526020017f233246383045440000000000000000000000000000000000000000000000000081525081526020016040518060400160405280600781526020017f233942353145300000000000000000000000000000000000000000000000000081525081526020016040518060400160405280600481526020017f234646460000000000000000000000000000000000000000000000000000000081525081526020016040518060400160405280600481526020017f2331313100000000000000000000000000000000000000000000000000000000815250815250600c9060096200023f9291906200062c565b506040518061012001604052806040518060400160405280600381526020017f526564000000000000000000000000000000000000000000000000000000000081525081526020016040518060400160405280600681526020017f4f72616e6765000000000000000000000000000000000000000000000000000081525081526020016040518060400160405280600681526020017f59656c6c6f77000000000000000000000000000000000000000000000000000081525081526020016040518060400160405280600581526020017f477265656e00000000000000000000000000000000000000000000000000000081525081526020016040518060400160405280600a81526020017f4c6967687420426c75650000000000000000000000000000000000000000000081525081526020016040518060400160405280600481526020017f426c75650000000000000000000000000000000000000000000000000000000081525081526020016040518060400160405280600681526020017f507572706c65000000000000000000000000000000000000000000000000000081525081526020016040518060400160405280600581526020017f576869746500000000000000000000000000000000000000000000000000000081525081526020016040518060400160405280600581526020017f426c61636b00000000000000000000000000000000000000000000000000000081525081525060159060096200046f9291906200062c565b503480156200047d57600080fd5b5060405162005f5c38038062005f5c8339818101604052810190620004a3919062000844565b83838160009080519060200190620004bd92919062000686565b508060019080519060200190620004d692919062000686565b505050620004f9620004ed6200055e60201b60201c565b6200056660201b60201c565b81600a60016101000a81548173ffffffffffffffffffffffffffffffffffffffff021916908373ffffffffffffffffffffffffffffffffffffffff16021790555080600a60006101000a81548160ff0219169083151502179055505050505062000ac6565b600033905090565b6000600760009054906101000a900473ffffffffffffffffffffffffffffffffffffffff16905081600760006101000a81548173ffffffffffffffffffffffffffffffffffffffff021916908373ffffffffffffffffffffffffffffffffffffffff1602179055508173ffffffffffffffffffffffffffffffffffffffff168173ffffffffffffffffffffffffffffffffffffffff167f8be0079c531659141344cd1fd0a4f28419497f9722a3daafe3b4186f6b6457e060405160405180910390a35050565b826009810192821562000673579160200282015b82811115620006725782518290805190602001906200066192919062000686565b509160200191906001019062000640565b5b50905062000682919062000717565b5090565b8280546200069490620009b7565b90600052602060002090601f016020900481019282620006b8576000855562000704565b82601f10620006d357805160ff191683800117855562000704565b8280016001018555821562000704579182015b8281111562000703578251825591602001919060010190620006e6565b5b5090506200071391906200073f565b5090565b5b808211156200073b57600081816200073191906200075e565b5060010162000718565b5090565b5b808211156200075a57600081600090555060010162000740565b5090565b5080546200076c90620009b7565b6000825580601f10620007805750620007a1565b601f016020900490600052602060002090810190620007a091906200073f565b5b50565b6000620007bb620007b5846200090b565b620008e2565b905082815260208101848484011115620007d457600080fd5b620007e184828562000981565b509392505050565b600081519050620007fa8162000a92565b92915050565b600081519050620008118162000aac565b92915050565b600082601f8301126200082957600080fd5b81516200083b848260208601620007a4565b91505092915050565b600080600080608085870312156200085b57600080fd5b600085015167ffffffffffffffff8111156200087657600080fd5b620008848782880162000817565b945050602085015167ffffffffffffffff811115620008a257600080fd5b620008b08782880162000817565b9350506040620008c387828801620007e9565b9250506060620008d68782880162000800565b91505092959194509250565b6000620008ee62000901565b9050620008fc8282620009ed565b919050565b6000604051905090565b600067ffffffffffffffff82111562000929576200092862000a52565b5b620009348262000a81565b9050602081019050919050565b60006200094e8262000961565b9050919050565b60008115159050919050565b600073ffffffffffffffffffffffffffffffffffffffff82169050919050565b60005b83811015620009a157808201518184015260208101905062000984565b83811115620009b1576000848401525b50505050565b60006002820490506001821680620009d057607f821691505b60208210811415620009e757620009e662000a23565b5b50919050565b620009f88262000a81565b810181811067ffffffffffffffff8211171562000a1a5762000a1962000a52565b5b80604052505050565b7f4e487b7100000000000000000000000000000000000000000000000000000000600052602260045260246000fd5b7f4e487b7100000000000000000000000000000000000000000000000000000000600052604160045260246000fd5b6000601f19601f8301169050919050565b62000a9d8162000941565b811462000aa957600080fd5b50565b62000ab78162000955565b811462000ac357600080fd5b50565b6154868062000ad66000396000f3fe6080604052600436106101b75760003560e01c80638456cb59116100ec578063b88d4fde1161008a578063c87b56dd11610064578063c87b56dd146105c5578063d5abeb0114610602578063e985e9c51461062d578063f2fde38b1461066a576101b7565b8063b88d4fde14610534578063bc921dc21461055d578063c1bd8cf91461059a576101b7565b806391b7f5ed116100c657806391b7f5ed1461048c57806395d89b41146104b5578063a035b1fe146104e0578063a22cb4651461050b576101b7565b80638456cb591461041f5780638da5cb5b14610436578063913e77ad14610461576101b7565b80633f4ba83a116101595780636352211e116101335780636352211e146103725780636a627842146103af57806370a08231146103cb578063715018a614610408576101b7565b80633f4ba83a1461030757806342842e0e1461031e5780635c975abb14610347576101b7565b8063081812fc11610195578063081812fc14610261578063095ea7b31461029e57806323b872dd146102c75780633ccfd60b146102f0576101b7565b8063015e1a0b146101bc57806301ffc9a7146101f957806306fdde0314610236575b600080fd5b3480156101c857600080fd5b506101e360048036038101906101de919061339c565b610693565b6040516101f09190613ffd565b60405180910390f35b34801561020557600080fd5b50610220600480360381019061021b919061334a565b61081b565b60405161022d9190613fe2565b60405180910390f35b34801561024257600080fd5b5061024b6108fd565b6040516102589190613ffd565b60405180910390f35b34801561026d57600080fd5b506102886004803603810190610283919061339c565b61098f565b6040516102959190613f37565b60405180910390f35b3480156102aa57600080fd5b506102c560048036038101906102c0919061330e565b610a14565b005b3480156102d357600080fd5b506102ee60048036038101906102e99190613208565b610b2c565b005b3480156102fc57600080fd5b50610305610b8c565b005b34801561031357600080fd5b5061031c610c36565b005b34801561032a57600080fd5b5061034560048036038101906103409190613208565b610ccf565b005b34801561035357600080fd5b5061035c610cef565b6040516103699190613fe2565b60405180910390f35b34801561037e57600080fd5b506103996004803603810190610394919061339c565b610d02565b6040516103a69190613f37565b60405180910390f35b6103c960048036038101906103c491906131a3565b610db4565b005b3480156103d757600080fd5b506103f260048036038101906103ed91906131a3565b610f3b565b6040516103ff919061431f565b60405180910390f35b34801561041457600080fd5b5061041d610ff3565b005b34801561042b57600080fd5b5061043461107b565b005b34801561044257600080fd5b5061044b611114565b6040516104589190613f37565b60405180910390f35b34801561046d57600080fd5b5061047661113e565b6040516104839190613f52565b60405180910390f35b34801561049857600080fd5b506104b360048036038101906104ae919061339c565b611164565b005b3480156104c157600080fd5b506104ca6111f7565b6040516104d79190613ffd565b60405180910390f35b3480156104ec57600080fd5b506104f5611289565b604051610502919061431f565b60405180910390f35b34801561051757600080fd5b50610532600480360381019061052d91906132d2565b61128f565b005b34801561054057600080fd5b5061055b60048036038101906105569190613257565b6112a5565b005b34801561056957600080fd5b50610584600480360381019061057f919061339c565b611307565b6040516105919190613ffd565b60405180910390f35b3480156105a657600080fd5b506105af6113c2565b6040516105bc919061431f565b60405180910390f35b3480156105d157600080fd5b506105ec60048036038101906105e7919061339c565b6113d3565b6040516105f99190613ffd565b60405180910390f35b34801561060e57600080fd5b506106176113e5565b604051610624919061431f565b60405180910390f35b34801561063957600080fd5b50610654600480360381019061064f91906131cc565b6113ea565b6040516106619190613fe2565b60405180910390f35b34801561067657600080fd5b50610691600480360381019061068c91906131a3565b61147e565b005b606060006106ac6001846106a791906143f3565b611576565b6040516020016106bc9190613d0a565b604051602081830303815290604052905060006106d9606f611576565b6040516020016106e99190613ebc565b60405160208183030381529060405290506000600b6000868152602001908152602001600020805461071a906145e7565b80601f0160208091040260200160405190810160405280929190818152602001828054610746906145e7565b80156107935780601f1061076857610100808354040283529160200191610793565b820191906000526020600020905b81548152906001019060200180831161077657829003601f168201915b5050505050905060006107a582611723565b905060006107b2826117b7565b905060006107bf83611ae1565b90506107ef868684846040516020016107db9493929190613c95565b604051602081830303815290604052611de2565b6040516020016107ff9190613d9e565b6040516020818303038152906040529650505050505050919050565b60007f80ac58cd000000000000000000000000000000000000000000000000000000007bffffffffffffffffffffffffffffffffffffffffffffffffffffffff1916827bffffffffffffffffffffffffffffffffffffffffffffffffffffffff191614806108e657507f5b5e139f000000000000000000000000000000000000000000000000000000007bffffffffffffffffffffffffffffffffffffffffffffffffffffffff1916827bffffffffffffffffffffffffffffffffffffffffffffffffffffffff1916145b806108f657506108f582611f8d565b5b9050919050565b60606000805461090c906145e7565b80601f0160208091040260200160405190810160405280929190818152602001828054610938906145e7565b80156109855780601f1061095a57610100808354040283529160200191610985565b820191906000526020600020905b81548152906001019060200180831161096857829003601f168201915b5050505050905090565b600061099a82611ff7565b6109d9576040517f08c379a00000000000000000000000000000000000000000000000000000000081526004016109d0906141ff565b60405180910390fd5b6004600083815260200190815260200160002060009054906101000a900473ffffffffffffffffffffffffffffffffffffffff169050919050565b6000610a1f82610d02565b90508073ffffffffffffffffffffffffffffffffffffffff168373ffffffffffffffffffffffffffffffffffffffff161415610a90576040517f08c379a0000000000000000000000000000000000000000000000000000000008152600401610a879061427f565b60405180910390fd5b8073ffffffffffffffffffffffffffffffffffffffff16610aaf612063565b73ffffffffffffffffffffffffffffffffffffffff161480610ade5750610add81610ad8612063565b6113ea565b5b610b1d576040517f08c379a0000000000000000000000000000000000000000000000000000000008152600401610b149061413f565b60405180910390fd5b610b27838361206b565b505050565b610b3d610b37612063565b82612124565b610b7c576040517f08c379a0000000000000000000000000000000000000000000000000000000008152600401610b739061429f565b60405180910390fd5b610b87838383612202565b505050565b610b94612063565b73ffffffffffffffffffffffffffffffffffffffff16610bb2611114565b73ffffffffffffffffffffffffffffffffffffffff1614610c08576040517f08c379a0000000000000000000000000000000000000000000000000000000008152600401610bff9061421f565b60405180910390fd5b610c34600a60019054906101000a900473ffffffffffffffffffffffffffffffffffffffff164761245e565b565b610c3e612063565b73ffffffffffffffffffffffffffffffffffffffff16610c5c611114565b73ffffffffffffffffffffffffffffffffffffffff1614610cb2576040517f08c379a0000000000000000000000000000000000000000000000000000000008152600401610ca99061421f565b60405180910390fd5b6000600a60006101000a81548160ff021916908315150217905550565b610cea838383604051806020016040528060008152506112a5565b505050565b600a60009054906101000a900460ff1681565b6000806002600084815260200190815260200160002060009054906101000a900473ffffffffffffffffffffffffffffffffffffffff169050600073ffffffffffffffffffffffffffffffffffffffff168173ffffffffffffffffffffffffffffffffffffffff161415610dab576040517f08c379a0000000000000000000000000000000000000000000000000000000008152600401610da29061417f565b60405180910390fd5b80915050919050565b600a60009054906101000a900460ff1615610e04576040517f08c379a0000000000000000000000000000000000000000000000000000000008152600401610dfb906142bf565b60405180910390fd5b6000610e106008612552565b9050606f600182610e2191906143f3565b1115610e62576040517f08c379a0000000000000000000000000000000000000000000000000000000008152600401610e599061401f565b60405180910390fd5b600954341015610ea7576040517f08c379a0000000000000000000000000000000000000000000000000000000008152600401610e9e906142ff565b60405180910390fd5b610eb18282612560565b610ebb428261257e565b600b60008381526020019081526020016000209080519060200190610ee1929190612f64565b50610ef481610eef83610693565b6125d0565b7f30385c845b448a36257a6a1716e6ad2e1bc2cbe333cde1e69fe849ad6511adfe8282604051610f25929190613fb9565b60405180910390a1610f376008612644565b5050565b60008073ffffffffffffffffffffffffffffffffffffffff168273ffffffffffffffffffffffffffffffffffffffff161415610fac576040517f08c379a0000000000000000000000000000000000000000000000000000000008152600401610fa39061415f565b60405180910390fd5b600360008373ffffffffffffffffffffffffffffffffffffffff1673ffffffffffffffffffffffffffffffffffffffff168152602001908152602001600020549050919050565b610ffb612063565b73ffffffffffffffffffffffffffffffffffffffff16611019611114565b73ffffffffffffffffffffffffffffffffffffffff161461106f576040517f08c379a00000000000000000000000000000000000000000000000000000000081526004016110669061421f565b60405180910390fd5b611079600061265a565b565b611083612063565b73ffffffffffffffffffffffffffffffffffffffff166110a1611114565b73ffffffffffffffffffffffffffffffffffffffff16146110f7576040517f08c379a00000000000000000000000000000000000000000000000000000000081526004016110ee9061421f565b60405180910390fd5b6001600a60006101000a81548160ff021916908315150217905550565b6000600760009054906101000a900473ffffffffffffffffffffffffffffffffffffffff16905090565b600a60019054906101000a900473ffffffffffffffffffffffffffffffffffffffff1681565b61116c612063565b73ffffffffffffffffffffffffffffffffffffffff1661118a611114565b73ffffffffffffffffffffffffffffffffffffffff16146111e0576040517f08c379a00000000000000000000000000000000000000000000000000000000081526004016111d79061421f565b60405180910390fd5b600081116111ed57600080fd5b8060098190555050565b606060018054611206906145e7565b80601f0160208091040260200160405190810160405280929190818152602001828054611232906145e7565b801561127f5780601f106112545761010080835404028352916020019161127f565b820191906000526020600020905b81548152906001019060200180831161126257829003601f168201915b5050505050905090565b60095481565b6112a161129a612063565b8383612720565b5050565b6112b66112b0612063565b83612124565b6112f5576040517f08c379a00000000000000000000000000000000000000000000000000000000081526004016112ec9061429f565b60405180910390fd5b6113018484848461288d565b50505050565b606060006113af600b6000858152602001908152602001600020805461132c906145e7565b80601f0160208091040260200160405190810160405280929190818152602001828054611358906145e7565b80156113a55780601f1061137a576101008083540402835291602001916113a5565b820191906000526020600020905b81548152906001019060200180831161138857829003601f168201915b5050505050611723565b90506113ba816117b7565b915050919050565b60006113ce6008612552565b905090565b60606113de826128e9565b9050919050565b606f81565b6000600560008473ffffffffffffffffffffffffffffffffffffffff1673ffffffffffffffffffffffffffffffffffffffff16815260200190815260200160002060008373ffffffffffffffffffffffffffffffffffffffff1673ffffffffffffffffffffffffffffffffffffffff16815260200190815260200160002060009054906101000a900460ff16905092915050565b611486612063565b73ffffffffffffffffffffffffffffffffffffffff166114a4611114565b73ffffffffffffffffffffffffffffffffffffffff16146114fa576040517f08c379a00000000000000000000000000000000000000000000000000000000081526004016114f19061421f565b60405180910390fd5b600073ffffffffffffffffffffffffffffffffffffffff168173ffffffffffffffffffffffffffffffffffffffff16141561156a576040517f08c379a00000000000000000000000000000000000000000000000000000000081526004016115619061405f565b60405180910390fd5b6115738161265a565b50565b606060008214156115be576040518060400160405280600181526020017f3000000000000000000000000000000000000000000000000000000000000000815250905061171e565b600082905060005b600082146115f05780806115d99061464a565b915050600a826115e99190614449565b91506115c6565b60008167ffffffffffffffff811115611632577f4e487b7100000000000000000000000000000000000000000000000000000000600052604160045260246000fd5b6040519080825280601f01601f1916602001820160405280156116645781602001600182028036833780820191505090505b5090505b600085146117175760018261167d91906144d4565b9150600a8561168c91906146a7565b603061169891906143f3565b60f81b8183815181106116d4577f4e487b7100000000000000000000000000000000000000000000000000000000600052603260045260246000fd5b60200101907effffffffffffffffffffffffffffffffffffffffffffffffffffffffffffff1916908160001a905350600a856117109190614449565b9450611668565b8093505050505b919050565b61172b612fea565b611733612fea565b60005b60068110156117ad57600961174b8583612a3b565b61175591906146d8565b60ff16828260068110611791577f4e487b7100000000000000000000000000000000000000000000000000000000600052603260045260246000fd5b60200201818152505080806117a59061464a565b915050611736565b5080915050919050565b6060611abb600c836000600681106117f8577f4e487b7100000000000000000000000000000000000000000000000000000000600052603260045260246000fd5b602002015160098110611834577f4e487b7100000000000000000000000000000000000000000000000000000000600052603260045260246000fd5b01600c84600160068110611871577f4e487b7100000000000000000000000000000000000000000000000000000000600052603260045260246000fd5b6020020151600981106118ad577f4e487b7100000000000000000000000000000000000000000000000000000000600052603260045260246000fd5b01600c856002600681106118ea577f4e487b7100000000000000000000000000000000000000000000000000000000600052603260045260246000fd5b602002015160098110611926577f4e487b7100000000000000000000000000000000000000000000000000000000600052603260045260246000fd5b01600c86600360068110611963577f4e487b7100000000000000000000000000000000000000000000000000000000600052603260045260246000fd5b60200201516009811061199f577f4e487b7100000000000000000000000000000000000000000000000000000000600052603260045260246000fd5b01600c876004600681106119dc577f4e487b7100000000000000000000000000000000000000000000000000000000600052603260045260246000fd5b602002015160098110611a18577f4e487b7100000000000000000000000000000000000000000000000000000000600052603260045260246000fd5b01600c88600560068110611a55577f4e487b7100000000000000000000000000000000000000000000000000000000600052603260045260246000fd5b602002015160098110611a91577f4e487b7100000000000000000000000000000000000000000000000000000000600052603260045260246000fd5b01604051602001611aa796959493929190613dd5565b604051602081830303815290604052611de2565b604051602001611acb9190613ee9565b6040516020818303038152906040529050919050565b6060611aeb61300c565b60005b6006811015611ba0576000848260068110611b32577f4e487b7100000000000000000000000000000000000000000000000000000000600052603260045260246000fd5b602002015190506001838260098110611b74577f4e487b7100000000000000000000000000000000000000000000000000000000600052603260045260246000fd5b60200201818151611b8591906143f3565b91508181525050508080611b989061464a565b915050611aee565b5060606000805b6009811015611d4d576000848260098110611beb577f4e487b7100000000000000000000000000000000000000000000000000000000600052603260045260246000fd5b60200201511115611d3a578180611c019061464a565b92505082611d1760158360098110611c42577f4e487b7100000000000000000000000000000000000000000000000000000000600052603260045260246000fd5b018054611c4e906145e7565b80601f0160208091040260200160405190810160405280929190818152602001828054611c7a906145e7565b8015611cc75780601f10611c9c57610100808354040283529160200191611cc7565b820191906000526020600020905b815481529060010190602001808311611caa57829003601f168201915b5050505050611d12878560098110611d08577f4e487b7100000000000000000000000000000000000000000000000000000000600052603260045260246000fd5b6020020151611576565b612aa2565b604051602001611d28929190613c66565b60405160208183030381529060405292505b8080611d459061464a565b915050611ba7565b5081611d966040518060400160405280600681526020017f436f6c6f72730000000000000000000000000000000000000000000000000000815250611d9184611576565b612aa2565b604051602001611da7929190613c42565b604051602081830303815290604052915081604051602001611dc99190613d71565b6040516020818303038152906040529350505050919050565b6060600082511415611e0557604051806020016040528060008152509050611f88565b60006040518060600160405280604081526020016154116040913990506000600360028551611e3491906143f3565b611e3e9190614449565b6004611e4a919061447a565b90506000602082611e5b91906143f3565b67ffffffffffffffff811115611e9a577f4e487b7100000000000000000000000000000000000000000000000000000000600052604160045260246000fd5b6040519080825280601f01601f191660200182016040528015611ecc5781602001600182028036833780820191505090505b509050818152600183018586518101602084015b81831015611f47576003830192508251603f8160121c1685015160f81b8252600182019150603f81600c1c1685015160f81b8252600182019150603f8160061c1685015160f81b8252600182019150603f811685015160f81b825260018201915050611ee0565b600389510660018114611f615760028114611f7157611f7c565b613d3d60f01b6002830352611f7c565b603d60f81b60018303525b50505050508093505050505b919050565b60007f01ffc9a7000000000000000000000000000000000000000000000000000000007bffffffffffffffffffffffffffffffffffffffffffffffffffffffff1916827bffffffffffffffffffffffffffffffffffffffffffffffffffffffff1916149050919050565b60008073ffffffffffffffffffffffffffffffffffffffff166002600084815260200190815260200160002060009054906101000a900473ffffffffffffffffffffffffffffffffffffffff1673ffffffffffffffffffffffffffffffffffffffff1614159050919050565b600033905090565b816004600083815260200190815260200160002060006101000a81548173ffffffffffffffffffffffffffffffffffffffff021916908373ffffffffffffffffffffffffffffffffffffffff160217905550808273ffffffffffffffffffffffffffffffffffffffff166120de83610d02565b73ffffffffffffffffffffffffffffffffffffffff167f8c5be1e5ebec7d5bd14f71427d1e84f3dd0314c0f7b2291e5b200ac8c7c3b92560405160405180910390a45050565b600061212f82611ff7565b61216e576040517f08c379a00000000000000000000000000000000000000000000000000000000081526004016121659061411f565b60405180910390fd5b600061217983610d02565b90508073ffffffffffffffffffffffffffffffffffffffff168473ffffffffffffffffffffffffffffffffffffffff1614806121e857508373ffffffffffffffffffffffffffffffffffffffff166121d08461098f565b73ffffffffffffffffffffffffffffffffffffffff16145b806121f957506121f881856113ea565b5b91505092915050565b8273ffffffffffffffffffffffffffffffffffffffff1661222282610d02565b73ffffffffffffffffffffffffffffffffffffffff1614612278576040517f08c379a000000000000000000000000000000000000000000000000000000000815260040161226f9061423f565b60405180910390fd5b600073ffffffffffffffffffffffffffffffffffffffff168273ffffffffffffffffffffffffffffffffffffffff1614156122e8576040517f08c379a00000000000000000000000000000000000000000000000000000000081526004016122df9061409f565b60405180910390fd5b6122f3838383612ace565b6122fe60008261206b565b6001600360008573ffffffffffffffffffffffffffffffffffffffff1673ffffffffffffffffffffffffffffffffffffffff168152602001908152602001600020600082825461234e91906144d4565b925050819055506001600360008473ffffffffffffffffffffffffffffffffffffffff1673ffffffffffffffffffffffffffffffffffffffff16815260200190815260200160002060008282546123a591906143f3565b92505081905550816002600083815260200190815260200160002060006101000a81548173ffffffffffffffffffffffffffffffffffffffff021916908373ffffffffffffffffffffffffffffffffffffffff160217905550808273ffffffffffffffffffffffffffffffffffffffff168473ffffffffffffffffffffffffffffffffffffffff167fddf252ad1be2c89b69c2b068fc378daa952ba7f163c4a11628f55a4df523b3ef60405160405180910390a4505050565b804710156124a1576040517f08c379a0000000000000000000000000000000000000000000000000000000008152600401612498906140ff565b60405180910390fd5b60008273ffffffffffffffffffffffffffffffffffffffff16826040516124c790613dc0565b60006040518083038185875af1925050503d8060008114612504576040519150601f19603f3d011682016040523d82523d6000602084013e612509565b606091505b505090508061254d576040517f08c379a0000000000000000000000000000000000000000000000000000000008152600401612544906140df565b60405180910390fd5b505050565b600081600001549050919050565b61257a828260405180602001604052806000815250612ad3565b5050565b60608282604051602001612593929190613f0b565b604051602081830303815290604052805190602001206040516020016125b99190613c27565b604051602081830303815290604052905092915050565b6125d982611ff7565b612618576040517f08c379a000000000000000000000000000000000000000000000000000000000815260040161260f9061419f565b60405180910390fd5b8060066000848152602001908152602001600020908051906020019061263f92919061302f565b505050565b6001816000016000828254019250508190555050565b6000600760009054906101000a900473ffffffffffffffffffffffffffffffffffffffff16905081600760006101000a81548173ffffffffffffffffffffffffffffffffffffffff021916908373ffffffffffffffffffffffffffffffffffffffff1602179055508173ffffffffffffffffffffffffffffffffffffffff168173ffffffffffffffffffffffffffffffffffffffff167f8be0079c531659141344cd1fd0a4f28419497f9722a3daafe3b4186f6b6457e060405160405180910390a35050565b8173ffffffffffffffffffffffffffffffffffffffff168373ffffffffffffffffffffffffffffffffffffffff16141561278f576040517f08c379a0000000000000000000000000000000000000000000000000000000008152600401612786906140bf565b60405180910390fd5b80600560008573ffffffffffffffffffffffffffffffffffffffff1673ffffffffffffffffffffffffffffffffffffffff16815260200190815260200160002060008473ffffffffffffffffffffffffffffffffffffffff1673ffffffffffffffffffffffffffffffffffffffff16815260200190815260200160002060006101000a81548160ff0219169083151502179055508173ffffffffffffffffffffffffffffffffffffffff168373ffffffffffffffffffffffffffffffffffffffff167f17307eab39ab6107e8899845ad3d59bd9653f200f220920489ca2b5937696c31836040516128809190613fe2565b60405180910390a3505050565b612898848484612202565b6128a484848484612b2e565b6128e3576040517f08c379a00000000000000000000000000000000000000000000000000000000081526004016128da9061403f565b60405180910390fd5b50505050565b60606128f482611ff7565b612933576040517f08c379a000000000000000000000000000000000000000000000000000000000815260040161292a906141df565b60405180910390fd5b6000600660008481526020019081526020016000208054612953906145e7565b80601f016020809104026020016040519081016040528092919081815260200182805461297f906145e7565b80156129cc5780601f106129a1576101008083540402835291602001916129cc565b820191906000526020600020905b8154815290600101906020018083116129af57829003601f168201915b5050505050905060006129dd612cc5565b90506000815114156129f3578192505050612a36565b600082511115612a28578082604051602001612a10929190613c42565b60405160208183030381529060405292505050612a36565b612a3184612cdc565b925050505b919050565b6000600182612a4a91906143f3565b83511015612a8d576040517f08c379a0000000000000000000000000000000000000000000000000000000008152600401612a84906142df565b60405180910390fd5b60008260018501015190508091505092915050565b60608282604051602001612ab7929190613d2c565b604051602081830303815290604052905092915050565b505050565b612add8383612d83565b612aea6000848484612b2e565b612b29576040517f08c379a0000000000000000000000000000000000000000000000000000000008152600401612b209061403f565b60405180910390fd5b505050565b6000612b4f8473ffffffffffffffffffffffffffffffffffffffff16612f51565b15612cb8578373ffffffffffffffffffffffffffffffffffffffff1663150b7a02612b78612063565b8786866040518563ffffffff1660e01b8152600401612b9a9493929190613f6d565b602060405180830381600087803b158015612bb457600080fd5b505af1925050508015612be557506040513d601f19601f82011682018060405250810190612be29190613373565b60015b612c68573d8060008114612c15576040519150601f19603f3d011682016040523d82523d6000602084013e612c1a565b606091505b50600081511415612c60576040517f08c379a0000000000000000000000000000000000000000000000000000000008152600401612c579061403f565b60405180910390fd5b805181602001fd5b63150b7a0260e01b7bffffffffffffffffffffffffffffffffffffffffffffffffffffffff1916817bffffffffffffffffffffffffffffffffffffffffffffffffffffffff191614915050612cbd565b600190505b949350505050565b606060405180602001604052806000815250905090565b6060612ce782611ff7565b612d26576040517f08c379a0000000000000000000000000000000000000000000000000000000008152600401612d1d9061425f565b60405180910390fd5b6000612d30612cc5565b90506000815111612d505760405180602001604052806000815250612d7b565b80612d5a84611576565b604051602001612d6b929190613c42565b6040516020818303038152906040525b915050919050565b600073ffffffffffffffffffffffffffffffffffffffff168273ffffffffffffffffffffffffffffffffffffffff161415612df3576040517f08c379a0000000000000000000000000000000000000000000000000000000008152600401612dea906141bf565b60405180910390fd5b612dfc81611ff7565b15612e3c576040517f08c379a0000000000000000000000000000000000000000000000000000000008152600401612e339061407f565b60405180910390fd5b612e4860008383612ace565b6001600360008473ffffffffffffffffffffffffffffffffffffffff1673ffffffffffffffffffffffffffffffffffffffff1681526020019081526020016000206000828254612e9891906143f3565b92505081905550816002600083815260200190815260200160002060006101000a81548173ffffffffffffffffffffffffffffffffffffffff021916908373ffffffffffffffffffffffffffffffffffffffff160217905550808273ffffffffffffffffffffffffffffffffffffffff16600073ffffffffffffffffffffffffffffffffffffffff167fddf252ad1be2c89b69c2b068fc378daa952ba7f163c4a11628f55a4df523b3ef60405160405180910390a45050565b600080823b905060008111915050919050565b828054612f70906145e7565b90600052602060002090601f016020900481019282612f925760008555612fd9565b82601f10612fab57805160ff1916838001178555612fd9565b82800160010185558215612fd9579182015b82811115612fd8578251825591602001919060010190612fbd565b5b509050612fe691906130b5565b5090565b6040518060c00160405280600690602082028036833780820191505090505090565b604051806101200160405280600990602082028036833780820191505090505090565b82805461303b906145e7565b90600052602060002090601f01602090048101928261305d57600085556130a4565b82601f1061307657805160ff19168380011785556130a4565b828001600101855582156130a4579182015b828111156130a3578251825591602001919060010190613088565b5b5090506130b191906130b5565b5090565b5b808211156130ce5760008160009055506001016130b6565b5090565b60006130e56130e08461435f565b61433a565b9050828152602081018484840111156130fd57600080fd5b6131088482856145a5565b509392505050565b60008135905061311f816153b4565b92915050565b600081359050613134816153cb565b92915050565b600081359050613149816153e2565b92915050565b60008151905061315e816153e2565b92915050565b600082601f83011261317557600080fd5b81356131858482602086016130d2565b91505092915050565b60008135905061319d816153f9565b92915050565b6000602082840312156131b557600080fd5b60006131c384828501613110565b91505092915050565b600080604083850312156131df57600080fd5b60006131ed85828601613110565b92505060206131fe85828601613110565b9150509250929050565b60008060006060848603121561321d57600080fd5b600061322b86828701613110565b935050602061323c86828701613110565b925050604061324d8682870161318e565b9150509250925092565b6000806000806080858703121561326d57600080fd5b600061327b87828801613110565b945050602061328c87828801613110565b935050604061329d8782880161318e565b925050606085013567ffffffffffffffff8111156132ba57600080fd5b6132c687828801613164565b91505092959194509250565b600080604083850312156132e557600080fd5b60006132f385828601613110565b925050602061330485828601613125565b9150509250929050565b6000806040838503121561332157600080fd5b600061332f85828601613110565b92505060206133408582860161318e565b9150509250929050565b60006020828403121561335c57600080fd5b600061336a8482850161313a565b91505092915050565b60006020828403121561338557600080fd5b60006133938482850161314f565b91505092915050565b6000602082840312156133ae57600080fd5b60006133bc8482850161318e565b91505092915050565b6133ce8161451a565b82525050565b6133dd81614508565b82525050565b6133ec8161452c565b82525050565b6134036133fe82614538565b614693565b82525050565b6000613414826143a5565b61341e81856143bb565b935061342e8185602086016145b4565b613437816147c5565b840191505092915050565b600061344d826143b0565b61345781856143d7565b93506134678185602086016145b4565b613470816147c5565b840191505092915050565b6000613486826143b0565b61349081856143e8565b93506134a08185602086016145b4565b80840191505092915050565b600081546134b9816145e7565b6134c381866143e8565b945060018216600081146134de57600181146134ef57613522565b60ff19831686528186019350613522565b6134f885614390565b60005b8381101561351a578154818901526001820191506020810190506134fb565b838801955050505b50505092915050565b6000613538603c836143e8565b9150613543826147d6565b603c82019050919050565b600061355b6011836143d7565b915061356682614825565b602082019050919050565b600061357e6009836143e8565b91506135898261484e565b600982019050919050565b60006135a16032836143d7565b91506135ac82614877565b604082019050919050565b60006135c46026836143d7565b91506135cf826148c6565b604082019050919050565b60006135e7600c836143e8565b91506135f282614915565b600c82019050919050565b600061360a601c836143d7565b91506136158261493e565b602082019050919050565b600061362d6007836143e8565b915061363882614967565b600782019050919050565b60006136506048836143e8565b915061365b82614990565b604882019050919050565b60006136736001836143e8565b915061367e82614a05565b600182019050919050565b60006136966007836143e8565b91506136a182614a2e565b600782019050919050565b60006136b96024836143d7565b91506136c482614a57565b604082019050919050565b60006136dc6019836143d7565b91506136e782614aa6565b602082019050919050565b60006136ff603a836143d7565b915061370a82614acf565b604082019050919050565b6000613722601d836143d7565b915061372d82614b1e565b602082019050919050565b6000613745600f836143e8565b915061375082614b47565b600f82019050919050565b6000613768602c836143d7565b915061377382614b70565b604082019050919050565b600061378b6038836143d7565b915061379682614bbf565b604082019050919050565b60006137ae6045836143e8565b91506137b982614c0e565b604582019050919050565b60006137d16004836143e8565b91506137dc82614c83565b600482019050919050565b60006137f4602a836143d7565b91506137ff82614cac565b604082019050919050565b60006138176029836143d7565b915061382282614cfb565b604082019050919050565b600061383a602e836143d7565b915061384582614d4a565b604082019050919050565b600061385d6002836143e8565b915061386882614d99565b600282019050919050565b60006138806010836143e8565b915061388b82614dc2565b601082019050919050565b60006138a36020836143d7565b91506138ae82614deb565b602082019050919050565b60006138c6605e836143e8565b91506138d182614e14565b605e82019050919050565b60006138e9600d836143e8565b91506138f482614e89565b600d82019050919050565b600061390c6001836143e8565b915061391782614eb2565b600182019050919050565b600061392f6031836143d7565b915061393a82614edb565b604082019050919050565b6000613952602c836143d7565b915061395d82614f2a565b604082019050919050565b6000613975603f836143e8565b915061398082614f79565b603f82019050919050565b60006139986012836143e8565b91506139a382614fc8565b601282019050919050565b60006139bb6020836143d7565b91506139c682614ff1565b602082019050919050565b60006139de6001836143e8565b91506139e98261501a565b600182019050919050565b6000613a016029836143d7565b9150613a0c82615043565b604082019050919050565b6000613a24602f836143d7565b9150613a2f82615092565b604082019050919050565b6000613a476043836143e8565b9150613a52826150e1565b604382019050919050565b6000613a6a6001836143e8565b9150613a7582615156565b600182019050919050565b6000613a8d6021836143d7565b9150613a988261517f565b604082019050919050565b6000613ab0601d836143e8565b9150613abb826151ce565b601d82019050919050565b6000613ad36000836143cc565b9150613ade826151f7565b600082019050919050565b6000613af66031836143d7565b9150613b01826151fa565b604082019050919050565b6000613b196011836143d7565b9150613b2482615249565b602082019050919050565b6000613b3c6013836143d7565b9150613b4782615272565b602082019050919050565b6000613b5f603e836143e8565b9150613b6a8261529b565b603e82019050919050565b6000613b826006836143e8565b9150613b8d826152ea565b600682019050919050565b6000613ba5601b836143d7565b9150613bb082615313565b602082019050919050565b6000613bc8602d836143e8565b9150613bd38261533c565b602d82019050919050565b6000613beb601a836143e8565b9150613bf68261538b565b601a82019050919050565b613c0a8161458e565b82525050565b613c21613c1c8261458e565b61469d565b82525050565b6000613c3382846133f2565b60208201915081905092915050565b6000613c4e828561347b565b9150613c5a828461347b565b91508190509392505050565b6000613c72828561347b565b9150613c7e828461347b565b9150613c8982613666565b91508190509392505050565b6000613ca082613571565b9150613cac828761347b565b9150613cb78261398b565b9150613cc3828661347b565b9150613cce826138dc565b9150613cda828561347b565b9150613ce582613873565b9150613cf1828461347b565b9150613cfc826138ff565b915081905095945050505050565b6000613d1582613689565b9150613d21828461347b565b915081905092915050565b6000613d3782613738565b9150613d43828561347b565b9150613d4e826135da565b9150613d5a828461347b565b9150613d6582613850565b91508190509392505050565b6000613d7c826139d1565b9150613d88828461347b565b9150613d9382613a5d565b915081905092915050565b6000613da982613aa3565b9150613db5828461347b565b915081905092915050565b6000613dcb82613ac6565b9150819050919050565b6000613de082613b52565b9150613deb8261352b565b9150613df782896134ac565b9150613e0282613a3a565b9150613e0e82886134ac565b9150613e19826137c4565b9150613e24826137a1565b9150613e3082876134ac565b9150613e3b826137c4565b9150613e4682613968565b9150613e5282866134ac565b9150613e5d826137c4565b9150613e68826138b9565b9150613e7482856134ac565b9150613e7f826137c4565b9150613e8a82613643565b9150613e9682846134ac565b9150613ea1826137c4565b9150613eac82613b75565b9150819050979650505050505050565b6000613ec782613bbb565b9150613ed3828461347b565b9150613ede82613620565b915081905092915050565b6000613ef482613bde565b9150613f00828461347b565b915081905092915050565b6000613f178285613c10565b602082019150613f278284613c10565b6020820191508190509392505050565b6000602082019050613f4c60008301846133d4565b92915050565b6000602082019050613f6760008301846133c5565b92915050565b6000608082019050613f8260008301876133d4565b613f8f60208301866133d4565b613f9c6040830185613c01565b8181036060830152613fae8184613409565b905095945050505050565b6000604082019050613fce60008301856133d4565b613fdb6020830184613c01565b9392505050565b6000602082019050613ff760008301846133e3565b92915050565b600060208201905081810360008301526140178184613442565b905092915050565b600060208201905081810360008301526140388161354e565b9050919050565b6000602082019050818103600083015261405881613594565b9050919050565b60006020820190508181036000830152614078816135b7565b9050919050565b60006020820190508181036000830152614098816135fd565b9050919050565b600060208201905081810360008301526140b8816136ac565b9050919050565b600060208201905081810360008301526140d8816136cf565b9050919050565b600060208201905081810360008301526140f8816136f2565b9050919050565b6000602082019050818103600083015261411881613715565b9050919050565b600060208201905081810360008301526141388161375b565b9050919050565b600060208201905081810360008301526141588161377e565b9050919050565b60006020820190508181036000830152614178816137e7565b9050919050565b600060208201905081810360008301526141988161380a565b9050919050565b600060208201905081810360008301526141b88161382d565b9050919050565b600060208201905081810360008301526141d881613896565b9050919050565b600060208201905081810360008301526141f881613922565b9050919050565b6000602082019050818103600083015261421881613945565b9050919050565b60006020820190508181036000830152614238816139ae565b9050919050565b60006020820190508181036000830152614258816139f4565b9050919050565b6000602082019050818103600083015261427881613a17565b9050919050565b6000602082019050818103600083015261429881613a80565b9050919050565b600060208201905081810360008301526142b881613ae9565b9050919050565b600060208201905081810360008301526142d881613b0c565b9050919050565b600060208201905081810360008301526142f881613b2f565b9050919050565b6000602082019050818103600083015261431881613b98565b9050919050565b60006020820190506143346000830184613c01565b92915050565b6000614344614355565b90506143508282614619565b919050565b6000604051905090565b600067ffffffffffffffff82111561437a57614379614796565b5b614383826147c5565b9050602081019050919050565b60008190508160005260206000209050919050565b600081519050919050565b600081519050919050565b600082825260208201905092915050565b600081905092915050565b600082825260208201905092915050565b600081905092915050565b60006143fe8261458e565b91506144098361458e565b9250827fffffffffffffffffffffffffffffffffffffffffffffffffffffffffffffffff0382111561443e5761443d614709565b5b828201905092915050565b60006144548261458e565b915061445f8361458e565b92508261446f5761446e614738565b5b828204905092915050565b60006144858261458e565b91506144908361458e565b9250817fffffffffffffffffffffffffffffffffffffffffffffffffffffffffffffffff04831182151516156144c9576144c8614709565b5b828202905092915050565b60006144df8261458e565b91506144ea8361458e565b9250828210156144fd576144fc614709565b5b828203905092915050565b60006145138261456e565b9050919050565b60006145258261456e565b9050919050565b60008115159050919050565b6000819050919050565b60007fffffffff0000000000000000000000000000000000000000000000000000000082169050919050565b600073ffffffffffffffffffffffffffffffffffffffff82169050919050565b6000819050919050565b600060ff82169050919050565b82818337600083830152505050565b60005b838110156145d25780820151818401526020810190506145b7565b838111156145e1576000848401525b50505050565b600060028204905060018216806145ff57607f821691505b6020821081141561461357614612614767565b5b50919050565b614622826147c5565b810181811067ffffffffffffffff8211171561464157614640614796565b5b80604052505050565b60006146558261458e565b91507fffffffffffffffffffffffffffffffffffffffffffffffffffffffffffffffff82141561468857614687614709565b5b600182019050919050565b6000819050919050565b6000819050919050565b60006146b28261458e565b91506146bd8361458e565b9250826146cd576146cc614738565b5b828206905092915050565b60006146e382614598565b91506146ee83614598565b9250826146fe576146fd614738565b5b828206905092915050565b7f4e487b7100000000000000000000000000000000000000000000000000000000600052601160045260246000fd5b7f4e487b7100000000000000000000000000000000000000000000000000000000600052601260045260246000fd5b7f4e487b7100000000000000000000000000000000000000000000000000000000600052602260045260246000fd5b7f4e487b7100000000000000000000000000000000000000000000000000000000600052604160045260246000fd5b6000601f19601f8301169050919050565b7f3c7061746820643d224d302030683139347633383848307a222073686170655260008201527f656e646572696e673d2263726973704564676573222066696c6c3d2200000000602082015250565b7f4d617820737570706c79206d696e746564000000000000000000000000000000600082015250565b7f7b226e616d65223a220000000000000000000000000000000000000000000000600082015250565b7f4552433732313a207472616e7366657220746f206e6f6e20455243373231526560008201527f63656976657220696d706c656d656e7465720000000000000000000000000000602082015250565b7f4f776e61626c653a206e6577206f776e657220697320746865207a65726f206160008201527f6464726573730000000000000000000000000000000000000000000000000000602082015250565b7f222c202276616c7565223a220000000000000000000000000000000000000000600082015250565b7f4552433732313a20746f6b656e20616c7265616479206d696e74656400000000600082015250565b7f2073686170657300000000000000000000000000000000000000000000000000600082015250565b7f3c7061746820643d224d313934203239302e35563139346834387639362e356860008201527f2d34385a2220736861706552656e646572696e673d226372697370456467657360208201527f222066696c6c3d22000000000000000000000000000000000000000000000000604082015250565b7f2c00000000000000000000000000000000000000000000000000000000000000600082015250565b7f5368616570202300000000000000000000000000000000000000000000000000600082015250565b7f4552433732313a207472616e7366657220746f20746865207a65726f2061646460008201527f7265737300000000000000000000000000000000000000000000000000000000602082015250565b7f4552433732313a20617070726f766520746f2063616c6c657200000000000000600082015250565b7f416464726573733a20756e61626c6520746f2073656e642076616c75652c207260008201527f6563697069656e74206d61792068617665207265766572746564000000000000602082015250565b7f416464726573733a20696e73756666696369656e742062616c616e6365000000600082015250565b7f7b2274726169745f74797065223a220000000000000000000000000000000000600082015250565b7f4552433732313a206f70657261746f7220717565727920666f72206e6f6e657860008201527f697374656e7420746f6b656e0000000000000000000000000000000000000000602082015250565b7f4552433732313a20617070726f76652063616c6c6572206973206e6f74206f7760008201527f6e6572206e6f7220617070726f76656420666f7220616c6c0000000000000000602082015250565b7f3c7061746820643d224d3937203139332e373563302035332e3433342034332e60008201527f3536362039362e37352039372039362e3735762d39362e37354839375a22206660208201527f696c6c3d22000000000000000000000000000000000000000000000000000000604082015250565b7f22202f3e00000000000000000000000000000000000000000000000000000000600082015250565b7f4552433732313a2062616c616e636520717565727920666f7220746865207a6560008201527f726f206164647265737300000000000000000000000000000000000000000000602082015250565b7f4552433732313a206f776e657220717565727920666f72206e6f6e657869737460008201527f656e7420746f6b656e0000000000000000000000000000000000000000000000602082015250565b7f45524337323155524953746f726167653a2055524920736574206f66206e6f6e60008201527f6578697374656e7420746f6b656e000000000000000000000000000000000000602082015250565b7f227d000000000000000000000000000000000000000000000000000000000000600082015250565b7f222c202261747472696275746573223a00000000000000000000000000000000600082015250565b7f4552433732313a206d696e7420746f20746865207a65726f2061646472657373600082015250565b7f3c7061746820643d224d393720313934762d2e3235433937203134302e33313660008201527f203134302e333136203937203139332e37352039377339362e37352034332e3360208201527f31362039362e37352039362e3735762e32354839375a222066696c6c3d220000604082015250565b7f222c2022696d616765223a202200000000000000000000000000000000000000600082015250565b7f7d00000000000000000000000000000000000000000000000000000000000000600082015250565b7f45524337323155524953746f726167653a2055524920717565727920666f722060008201527f6e6f6e6578697374656e7420746f6b656e000000000000000000000000000000602082015250565b7f4552433732313a20617070726f76656420717565727920666f72206e6f6e657860008201527f697374656e7420746f6b656e0000000000000000000000000000000000000000602082015250565b7f3c7061746820643d224d363920363968313235763132354836397a222073686160008201527f706552656e646572696e673d2263726973704564676573222066696c6c3d2200602082015250565b7f222c20226465736372697074696f6e223a220000000000000000000000000000600082015250565b7f4f776e61626c653a2063616c6c6572206973206e6f7420746865206f776e6572600082015250565b7f5b00000000000000000000000000000000000000000000000000000000000000600082015250565b7f4552433732313a207472616e73666572206f6620746f6b656e2074686174206960008201527f73206e6f74206f776e0000000000000000000000000000000000000000000000602082015250565b7f4552433732314d657461646174613a2055524920717565727920666f72206e6f60008201527f6e6578697374656e7420746f6b656e0000000000000000000000000000000000602082015250565b7f222f3e3c7061746820643d224d31393420306831393476333838483139347a2260008201527f20736861706552656e646572696e673d2263726973704564676573222066696c60208201527f6c3d220000000000000000000000000000000000000000000000000000000000604082015250565b7f5d00000000000000000000000000000000000000000000000000000000000000600082015250565b7f4552433732313a20617070726f76616c20746f2063757272656e74206f776e6560008201527f7200000000000000000000000000000000000000000000000000000000000000602082015250565b7f646174613a6170706c69636174696f6e2f6a736f6e3b6261736536342c000000600082015250565b50565b7f4552433732313a207472616e736665722063616c6c6572206973206e6f74206f60008201527f776e6572206e6f7220617070726f766564000000000000000000000000000000602082015250565b7f4d696e74696e6720697320706175736564000000000000000000000000000000600082015250565b7f746f55696e74385f6f75744f66426f756e647300000000000000000000000000600082015250565b7f3c7376672076696577426f783d2230203020333838203338382220786d6c6e7360008201527f3d22687474703a2f2f7777772e77332e6f72672f323030302f737667223e0000602082015250565b7f3c2f7376673e0000000000000000000000000000000000000000000000000000600082015250565b7f496e73756666696369656e742066756e64732070726f76696465640000000000600082015250565b7f6120636f6c6c656374696f6e206f66206c696e657320616e6420636f6c6f727360008201527f20636f6d706f73656420746f2000000000000000000000000000000000000000602082015250565b7f646174613a696d6167652f7376672b786d6c3b6261736536342c000000000000600082015250565b6153bd81614508565b81146153c857600080fd5b50565b6153d48161452c565b81146153df57600080fd5b50565b6153eb81614542565b81146153f657600080fd5b50565b6154028161458e565b811461540d57600080fd5b5056fe4142434445464748494a4b4c4d4e4f505152535455565758595a6162636465666768696a6b6c6d6e6f707172737475767778797a303132333435363738392b2fa26469706673582212205912e31ddb52ebb648144ccdb047b99cc8346658edfe2bccee4f0acb864b4ebe64736f6c63430008040033",
  "linkReferences": {},
  "deployedLinkReferences": {}
}