{
  "_format": "hh-sol-artifact-1",
  "contractName": "Shaeps",
  "sourceName": "contracts/Shaeps.sol",
  "abi": [
    {
      "inputs": [
        {
          "internalType": "string",
          "name": "_name",
          "type": "string"
        },
        {
          "internalType": "string",
          "name": "_symbol",
          "type": "string"
        },
        {
          "internalType": "address payable",
          "name": "_collector",
          "type": "address"
        }
      ],
      "stateMutability": "nonpayable",
      "type": "constructor"
    },
    {
      "anonymous": false,
      "inputs": [
        {
          "indexed": true,
          "internalType": "address",
          "name": "owner",
          "type": "address"
        },
        {
          "indexed": true,
          "internalType": "address",
          "name": "approved",
          "type": "address"
        },
        {
          "indexed": true,
          "internalType": "uint256",
          "name": "tokenId",
          "type": "uint256"
        }
      ],
      "name": "Approval",
      "type": "event"
    },
    {
      "anonymous": false,
      "inputs": [
        {
          "indexed": true,
          "internalType": "address",
          "name": "owner",
          "type": "address"
        },
        {
          "indexed": true,
          "internalType": "address",
          "name": "operator",
          "type": "address"
        },
        {
          "indexed": false,
          "internalType": "bool",
          "name": "approved",
          "type": "bool"
        }
      ],
      "name": "ApprovalForAll",
      "type": "event"
    },
    {
      "anonymous": false,
      "inputs": [
        {
          "indexed": true,
          "internalType": "address",
          "name": "previousOwner",
          "type": "address"
        },
        {
          "indexed": true,
          "internalType": "address",
          "name": "newOwner",
          "type": "address"
        }
      ],
      "name": "OwnershipTransferred",
      "type": "event"
    },
    {
      "anonymous": false,
      "inputs": [
        {
          "indexed": true,
          "internalType": "address",
          "name": "from",
          "type": "address"
        },
        {
          "indexed": true,
          "internalType": "address",
          "name": "to",
          "type": "address"
        },
        {
          "indexed": true,
          "internalType": "uint256",
          "name": "tokenId",
          "type": "uint256"
        }
      ],
      "name": "Transfer",
      "type": "event"
    },
    {
      "inputs": [
        {
          "internalType": "address",
          "name": "to",
          "type": "address"
        },
        {
          "internalType": "uint256",
          "name": "tokenId",
          "type": "uint256"
        }
      ],
      "name": "approve",
      "outputs": [],
      "stateMutability": "nonpayable",
      "type": "function"
    },
    {
      "inputs": [
        {
          "internalType": "address",
          "name": "owner",
          "type": "address"
        }
      ],
      "name": "balanceOf",
      "outputs": [
        {
          "internalType": "uint256",
          "name": "",
          "type": "uint256"
        }
      ],
      "stateMutability": "view",
      "type": "function"
    },
    {
      "inputs": [],
      "name": "collector",
      "outputs": [
        {
          "internalType": "address payable",
          "name": "",
          "type": "address"
        }
      ],
      "stateMutability": "view",
      "type": "function"
    },
    {
      "inputs": [
        {
          "internalType": "uint256",
          "name": "tokenId",
          "type": "uint256"
        }
      ],
      "name": "generateMetadata",
      "outputs": [
        {
          "internalType": "string",
          "name": "",
          "type": "string"
        }
      ],
      "stateMutability": "view",
      "type": "function"
    },
    {
      "inputs": [
        {
          "internalType": "uint256",
          "name": "tokenId",
          "type": "uint256"
        }
      ],
      "name": "generateSvg",
      "outputs": [
        {
          "internalType": "string",
          "name": "",
          "type": "string"
        }
      ],
      "stateMutability": "view",
      "type": "function"
    },
    {
      "inputs": [
        {
          "internalType": "uint256",
          "name": "tokenId",
          "type": "uint256"
        }
      ],
      "name": "getApproved",
      "outputs": [
        {
          "internalType": "address",
          "name": "",
          "type": "address"
        }
      ],
      "stateMutability": "view",
      "type": "function"
    },
    {
      "inputs": [],
      "name": "getMintedSupply",
      "outputs": [
        {
          "internalType": "uint256",
          "name": "",
          "type": "uint256"
        }
      ],
      "stateMutability": "view",
      "type": "function"
    },
    {
      "inputs": [],
      "name": "getPrice",
      "outputs": [
        {
          "internalType": "uint256",
          "name": "",
          "type": "uint256"
        }
      ],
      "stateMutability": "pure",
      "type": "function"
    },
    {
      "inputs": [],
      "name": "getTotalSupply",
      "outputs": [
        {
          "internalType": "uint256",
          "name": "",
          "type": "uint256"
        }
      ],
      "stateMutability": "pure",
      "type": "function"
    },
    {
      "inputs": [
        {
          "internalType": "address",
          "name": "owner",
          "type": "address"
        },
        {
          "internalType": "address",
          "name": "operator",
          "type": "address"
        }
      ],
      "name": "isApprovedForAll",
      "outputs": [
        {
          "internalType": "bool",
          "name": "",
          "type": "bool"
        }
      ],
      "stateMutability": "view",
      "type": "function"
    },
    {
      "inputs": [
        {
          "internalType": "address",
          "name": "to",
          "type": "address"
        }
      ],
      "name": "mint",
      "outputs": [],
      "stateMutability": "payable",
      "type": "function"
    },
    {
      "inputs": [],
      "name": "name",
      "outputs": [
        {
          "internalType": "string",
          "name": "",
          "type": "string"
        }
      ],
      "stateMutability": "view",
      "type": "function"
    },
    {
      "inputs": [],
      "name": "owner",
      "outputs": [
        {
          "internalType": "address",
          "name": "",
          "type": "address"
        }
      ],
      "stateMutability": "view",
      "type": "function"
    },
    {
      "inputs": [
        {
          "internalType": "uint256",
          "name": "tokenId",
          "type": "uint256"
        }
      ],
      "name": "ownerOf",
      "outputs": [
        {
          "internalType": "address",
          "name": "",
          "type": "address"
        }
      ],
      "stateMutability": "view",
      "type": "function"
    },
    {
      "inputs": [],
      "name": "renounceOwnership",
      "outputs": [],
      "stateMutability": "nonpayable",
      "type": "function"
    },
    {
      "inputs": [
        {
          "internalType": "address",
          "name": "from",
          "type": "address"
        },
        {
          "internalType": "address",
          "name": "to",
          "type": "address"
        },
        {
          "internalType": "uint256",
          "name": "tokenId",
          "type": "uint256"
        }
      ],
      "name": "safeTransferFrom",
      "outputs": [],
      "stateMutability": "nonpayable",
      "type": "function"
    },
    {
      "inputs": [
        {
          "internalType": "address",
          "name": "from",
          "type": "address"
        },
        {
          "internalType": "address",
          "name": "to",
          "type": "address"
        },
        {
          "internalType": "uint256",
          "name": "tokenId",
          "type": "uint256"
        },
        {
          "internalType": "bytes",
          "name": "_data",
          "type": "bytes"
        }
      ],
      "name": "safeTransferFrom",
      "outputs": [],
      "stateMutability": "nonpayable",
      "type": "function"
    },
    {
      "inputs": [
        {
          "internalType": "address",
          "name": "operator",
          "type": "address"
        },
        {
          "internalType": "bool",
          "name": "approved",
          "type": "bool"
        }
      ],
      "name": "setApprovalForAll",
      "outputs": [],
      "stateMutability": "nonpayable",
      "type": "function"
    },
    {
      "inputs": [
        {
          "internalType": "bytes4",
          "name": "interfaceId",
          "type": "bytes4"
        }
      ],
      "name": "supportsInterface",
      "outputs": [
        {
          "internalType": "bool",
          "name": "",
          "type": "bool"
        }
      ],
      "stateMutability": "view",
      "type": "function"
    },
    {
      "inputs": [],
      "name": "symbol",
      "outputs": [
        {
          "internalType": "string",
          "name": "",
          "type": "string"
        }
      ],
      "stateMutability": "view",
      "type": "function"
    },
    {
      "inputs": [
        {
          "internalType": "uint256",
          "name": "tokenId",
          "type": "uint256"
        }
      ],
      "name": "tokenURI",
      "outputs": [
        {
          "internalType": "string",
          "name": "",
          "type": "string"
        }
      ],
      "stateMutability": "view",
      "type": "function"
    },
    {
      "inputs": [
        {
          "internalType": "address",
          "name": "from",
          "type": "address"
        },
        {
          "internalType": "address",
          "name": "to",
          "type": "address"
        },
        {
          "internalType": "uint256",
          "name": "tokenId",
          "type": "uint256"
        }
      ],
      "name": "transferFrom",
      "outputs": [],
      "stateMutability": "nonpayable",
      "type": "function"
    },
    {
      "inputs": [
        {
          "internalType": "address",
          "name": "newOwner",
          "type": "address"
        }
      ],
      "name": "transferOwnership",
      "outputs": [],
      "stateMutability": "nonpayable",
      "type": "function"
    },
    {
      "inputs": [],
      "name": "withdraw",
      "outputs": [],
      "stateMutability": "nonpayable",
      "type": "function"
    }
  ],
  "bytecode": "0x60806040526040518061012001604052806040518060400160405280600781526020017f234542353735370000000000000000000000000000000000000000000000000081525081526020016040518060400160405280600781526020017f234632393934410000000000000000000000000000000000000000000000000081525081526020016040518060400160405280600781526020017f234632433934430000000000000000000000000000000000000000000000000081525081526020016040518060400160405280600781526020017f233646434639370000000000000000000000000000000000000000000000000081525081526020016040518060400160405280600781526020017f233536434346320000000000000000000000000000000000000000000000000081525081526020016040518060400160405280600781526020017f233246383045440000000000000000000000000000000000000000000000000081525081526020016040518060400160405280600781526020017f233942353145300000000000000000000000000000000000000000000000000081525081526020016040518060400160405280600481526020017f234646460000000000000000000000000000000000000000000000000000000081525081526020016040518060400160405280600481526020017f2331313100000000000000000000000000000000000000000000000000000000815250815250600a9060096200023392919062000402565b503480156200024157600080fd5b5060405162004fcd38038062004fcd833981810160405281019062000267919062000603565b82828160009080519060200190620002819291906200045c565b5080600190805190602001906200029a9291906200045c565b505050620002bd620002b16200031e60201b60201c565b6200032660201b60201c565b80600960006101000a81548173ffffffffffffffffffffffffffffffffffffffff021916908373ffffffffffffffffffffffffffffffffffffffff160217905550620003156008620003ec60201b620014141760201c565b50505062000849565b600033905090565b6000600760009054906101000a900473ffffffffffffffffffffffffffffffffffffffff16905081600760006101000a81548173ffffffffffffffffffffffffffffffffffffffff021916908373ffffffffffffffffffffffffffffffffffffffff1602179055508173ffffffffffffffffffffffffffffffffffffffff168173ffffffffffffffffffffffffffffffffffffffff167f8be0079c531659141344cd1fd0a4f28419497f9722a3daafe3b4186f6b6457e060405160405180910390a35050565b6001816000016000828254019250508190555050565b826009810192821562000449579160200282015b8281111562000448578251829080519060200190620004379291906200045c565b509160200191906001019062000416565b5b509050620004589190620004ed565b5090565b8280546200046a9062000754565b90600052602060002090601f0160209004810192826200048e5760008555620004da565b82601f10620004a957805160ff1916838001178555620004da565b82800160010185558215620004da579182015b82811115620004d9578251825591602001919060010190620004bc565b5b509050620004e9919062000515565b5090565b5b8082111562000511576000818162000507919062000534565b50600101620004ee565b5090565b5b808211156200053057600081600090555060010162000516565b5090565b508054620005429062000754565b6000825580601f1062000556575062000577565b601f01602090049060005260206000209081019062000576919062000515565b5b50565b6000620005916200058b84620006b4565b6200068b565b905082815260208101848484011115620005aa57600080fd5b620005b78482856200071e565b509392505050565b600081519050620005d0816200082f565b92915050565b600082601f830112620005e857600080fd5b8151620005fa8482602086016200057a565b91505092915050565b6000806000606084860312156200061957600080fd5b600084015167ffffffffffffffff8111156200063457600080fd5b6200064286828701620005d6565b935050602084015167ffffffffffffffff8111156200066057600080fd5b6200066e86828701620005d6565b92505060406200068186828701620005bf565b9150509250925092565b600062000697620006aa565b9050620006a582826200078a565b919050565b6000604051905090565b600067ffffffffffffffff821115620006d257620006d1620007ef565b5b620006dd826200081e565b9050602081019050919050565b6000620006f782620006fe565b9050919050565b600073ffffffffffffffffffffffffffffffffffffffff82169050919050565b60005b838110156200073e57808201518184015260208101905062000721565b838111156200074e576000848401525b50505050565b600060028204905060018216806200076d57607f821691505b60208210811415620007845762000783620007c0565b5b50919050565b62000795826200081e565b810181811067ffffffffffffffff82111715620007b757620007b6620007ef565b5b80604052505050565b7f4e487b7100000000000000000000000000000000000000000000000000000000600052602260045260246000fd5b7f4e487b7100000000000000000000000000000000000000000000000000000000600052604160045260246000fd5b6000601f19601f8301169050919050565b6200083a81620006ea565b81146200084657600080fd5b50565b61477480620008596000396000f3fe60806040526004361061014b5760003560e01c80638da5cb5b116100b6578063bc921dc21161006f578063bc921dc21461046f578063c4e41b22146104ac578063c87b56dd146104d7578063e985e9c514610514578063f2113b5a14610551578063f2fde38b1461057c5761014b565b80638da5cb5b14610371578063913e77ad1461039c57806395d89b41146103c757806398d5fdca146103f2578063a22cb4651461041d578063b88d4fde146104465761014b565b80633ccfd60b116101085780633ccfd60b1461028457806342842e0e1461029b5780636352211e146102c45780636a6278421461030157806370a082311461031d578063715018a61461035a5761014b565b8063015e1a0b1461015057806301ffc9a71461018d57806306fdde03146101ca578063081812fc146101f5578063095ea7b31461023257806323b872dd1461025b575b600080fd5b34801561015c57600080fd5b5061017760048036038101906101729190612ae8565b6105a5565b60405161018491906134cb565b60405180910390f35b34801561019957600080fd5b506101b460048036038101906101af9190612a96565b61066f565b6040516101c191906134b0565b60405180910390f35b3480156101d657600080fd5b506101df610751565b6040516101ec91906134cb565b60405180910390f35b34801561020157600080fd5b5061021c60048036038101906102179190612ae8565b6107e3565b604051610229919061342e565b60405180910390f35b34801561023e57600080fd5b5061025960048036038101906102549190612a5a565b610868565b005b34801561026757600080fd5b50610282600480360381019061027d9190612954565b610980565b005b34801561029057600080fd5b506102996109e0565b005b3480156102a757600080fd5b506102c260048036038101906102bd9190612954565b610a8a565b005b3480156102d057600080fd5b506102eb60048036038101906102e69190612ae8565b610aaa565b6040516102f8919061342e565b60405180910390f35b61031b600480360381019061031691906128ef565b610b5c565b005b34801561032957600080fd5b50610344600480360381019061033f91906128ef565b610c2f565b60405161035191906137cd565b60405180910390f35b34801561036657600080fd5b5061036f610ce7565b005b34801561037d57600080fd5b50610386610d6f565b604051610393919061342e565b60405180910390f35b3480156103a857600080fd5b506103b1610d99565b6040516103be9190613449565b60405180910390f35b3480156103d357600080fd5b506103dc610dbf565b6040516103e991906134cb565b60405180910390f35b3480156103fe57600080fd5b50610407610e51565b60405161041491906137cd565b60405180910390f35b34801561042957600080fd5b50610444600480360381019061043f9190612a1e565b610e60565b005b34801561045257600080fd5b5061046d600480360381019061046891906129a3565b610e76565b005b34801561047b57600080fd5b5061049660048036038101906104919190612ae8565b610ed8565b6040516104a391906134cb565b60405180910390f35b3480156104b857600080fd5b506104c161125b565b6040516104ce91906137cd565b60405180910390f35b3480156104e357600080fd5b506104fe60048036038101906104f99190612ae8565b611265565b60405161050b91906134cb565b60405180910390f35b34801561052057600080fd5b5061053b60048036038101906105369190612918565b611277565b60405161054891906134b0565b60405180910390f35b34801561055d57600080fd5b5061056661130b565b60405161057391906137cd565b60405180910390f35b34801561058857600080fd5b506105a3600480360381019061059e91906128ef565b61131c565b005b606060006105b28361142a565b6040516020016105c291906132b1565b604051602081830303815290604052905060006040518060400160405280601681526020017f72656374616e676c657320616e6420636972636c6573000000000000000000008152509050600061061885610ed8565b905061064683838360405160200161063293929190613254565b6040516020818303038152906040526115d7565b60405160200161065691906132d3565b6040516020818303038152906040529350505050919050565b60007f80ac58cd000000000000000000000000000000000000000000000000000000007bffffffffffffffffffffffffffffffffffffffffffffffffffffffff1916827bffffffffffffffffffffffffffffffffffffffffffffffffffffffff1916148061073a57507f5b5e139f000000000000000000000000000000000000000000000000000000007bffffffffffffffffffffffffffffffffffffffffffffffffffffffff1916827bffffffffffffffffffffffffffffffffffffffffffffffffffffffff1916145b8061074a575061074982611782565b5b9050919050565b60606000805461076090613a95565b80601f016020809104026020016040519081016040528092919081815260200182805461078c90613a95565b80156107d95780601f106107ae576101008083540402835291602001916107d9565b820191906000526020600020905b8154815290600101906020018083116107bc57829003601f168201915b5050505050905090565b60006107ee826117ec565b61082d576040517f08c379a0000000000000000000000000000000000000000000000000000000008152600401610824906136ed565b60405180910390fd5b6004600083815260200190815260200160002060009054906101000a900473ffffffffffffffffffffffffffffffffffffffff169050919050565b600061087382610aaa565b90508073ffffffffffffffffffffffffffffffffffffffff168373ffffffffffffffffffffffffffffffffffffffff1614156108e4576040517f08c379a00000000000000000000000000000000000000000000000000000000081526004016108db9061376d565b60405180910390fd5b8073ffffffffffffffffffffffffffffffffffffffff16610903611858565b73ffffffffffffffffffffffffffffffffffffffff16148061093257506109318161092c611858565b611277565b5b610971576040517f08c379a00000000000000000000000000000000000000000000000000000000081526004016109689061362d565b60405180910390fd5b61097b8383611860565b505050565b61099161098b611858565b82611919565b6109d0576040517f08c379a00000000000000000000000000000000000000000000000000000000081526004016109c79061378d565b60405180910390fd5b6109db8383836119f7565b505050565b6109e8611858565b73ffffffffffffffffffffffffffffffffffffffff16610a06610d6f565b73ffffffffffffffffffffffffffffffffffffffff1614610a5c576040517f08c379a0000000000000000000000000000000000000000000000000000000008152600401610a539061370d565b60405180910390fd5b610a88600960009054906101000a900473ffffffffffffffffffffffffffffffffffffffff1647611c53565b565b610aa583838360405180602001604052806000815250610e76565b505050565b6000806002600084815260200190815260200160002060009054906101000a900473ffffffffffffffffffffffffffffffffffffffff169050600073ffffffffffffffffffffffffffffffffffffffff168173ffffffffffffffffffffffffffffffffffffffff161415610b53576040517f08c379a0000000000000000000000000000000000000000000000000000000008152600401610b4a9061366d565b60405180910390fd5b80915050919050565b6000610b686008611d47565b9050612710600182610b7a91906138a1565b1115610bbb576040517f08c379a0000000000000000000000000000000000000000000000000000000008152600401610bb29061356d565b60405180910390fd5b66038d7ea4c68000341015610c05576040517f08c379a0000000000000000000000000000000000000000000000000000000008152600401610bfc906134ed565b60405180910390fd5b610c0f8282611d55565b610c2181610c1c836105a5565b611d73565b610c2b6008611414565b5050565b60008073ffffffffffffffffffffffffffffffffffffffff168273ffffffffffffffffffffffffffffffffffffffff161415610ca0576040517f08c379a0000000000000000000000000000000000000000000000000000000008152600401610c979061364d565b60405180910390fd5b600360008373ffffffffffffffffffffffffffffffffffffffff1673ffffffffffffffffffffffffffffffffffffffff168152602001908152602001600020549050919050565b610cef611858565b73ffffffffffffffffffffffffffffffffffffffff16610d0d610d6f565b73ffffffffffffffffffffffffffffffffffffffff1614610d63576040517f08c379a0000000000000000000000000000000000000000000000000000000008152600401610d5a9061370d565b60405180910390fd5b610d6d6000611de7565b565b6000600760009054906101000a900473ffffffffffffffffffffffffffffffffffffffff16905090565b600960009054906101000a900473ffffffffffffffffffffffffffffffffffffffff1681565b606060018054610dce90613a95565b80601f0160208091040260200160405190810160405280929190818152602001828054610dfa90613a95565b8015610e475780601f10610e1c57610100808354040283529160200191610e47565b820191906000526020600020905b815481529060010190602001808311610e2a57829003601f168201915b5050505050905090565b600066038d7ea4c68000905090565b610e72610e6b611858565b8383611ead565b5050565b610e87610e81611858565b83611919565b610ec6576040517f08c379a0000000000000000000000000000000000000000000000000000000008152600401610ebd9061378d565b60405180910390fd5b610ed28484848461201a565b50505050565b6060600082604051602001610eed9190613413565b60405160208183030381529060405280519060200120604051602001610f139190613215565b60405160208183030381529060405290506000610f2f82612076565b9050611233600a82600060068110610f70577f4e487b7100000000000000000000000000000000000000000000000000000000600052603260045260246000fd5b602002015160098110610fac577f4e487b7100000000000000000000000000000000000000000000000000000000600052603260045260246000fd5b01600a83600160068110610fe9577f4e487b7100000000000000000000000000000000000000000000000000000000600052603260045260246000fd5b602002015160098110611025577f4e487b7100000000000000000000000000000000000000000000000000000000600052603260045260246000fd5b01600a84600260068110611062577f4e487b7100000000000000000000000000000000000000000000000000000000600052603260045260246000fd5b60200201516009811061109e577f4e487b7100000000000000000000000000000000000000000000000000000000600052603260045260246000fd5b01600a856003600681106110db577f4e487b7100000000000000000000000000000000000000000000000000000000600052603260045260246000fd5b602002015160098110611117577f4e487b7100000000000000000000000000000000000000000000000000000000600052603260045260246000fd5b01600a86600460068110611154577f4e487b7100000000000000000000000000000000000000000000000000000000600052603260045260246000fd5b602002015160098110611190577f4e487b7100000000000000000000000000000000000000000000000000000000600052603260045260246000fd5b01600a876005600681106111cd577f4e487b7100000000000000000000000000000000000000000000000000000000600052603260045260246000fd5b602002015160098110611209577f4e487b7100000000000000000000000000000000000000000000000000000000600052603260045260246000fd5b0160405160200161121f9695949392919061330a565b6040516020818303038152906040526115d7565b60405160200161124391906133f1565b60405160208183030381529060405292505050919050565b6000612710905090565b60606112708261210a565b9050919050565b6000600560008473ffffffffffffffffffffffffffffffffffffffff1673ffffffffffffffffffffffffffffffffffffffff16815260200190815260200160002060008373ffffffffffffffffffffffffffffffffffffffff1673ffffffffffffffffffffffffffffffffffffffff16815260200190815260200160002060009054906101000a900460ff16905092915050565b60006113176008611d47565b905090565b611324611858565b73ffffffffffffffffffffffffffffffffffffffff16611342610d6f565b73ffffffffffffffffffffffffffffffffffffffff1614611398576040517f08c379a000000000000000000000000000000000000000000000000000000000815260040161138f9061370d565b60405180910390fd5b600073ffffffffffffffffffffffffffffffffffffffff168173ffffffffffffffffffffffffffffffffffffffff161415611408576040517f08c379a00000000000000000000000000000000000000000000000000000000081526004016113ff9061352d565b60405180910390fd5b61141181611de7565b50565b6001816000016000828254019250508190555050565b60606000821415611472576040518060400160405280600181526020017f300000000000000000000000000000000000000000000000000000000000000081525090506115d2565b600082905060005b600082146114a457808061148d90613af8565b915050600a8261149d91906138f7565b915061147a565b60008167ffffffffffffffff8111156114e6577f4e487b7100000000000000000000000000000000000000000000000000000000600052604160045260246000fd5b6040519080825280601f01601f1916602001820160405280156115185781602001600182028036833780820191505090505b5090505b600085146115cb576001826115319190613982565b9150600a856115409190613b55565b603061154c91906138a1565b60f81b818381518110611588577f4e487b7100000000000000000000000000000000000000000000000000000000600052603260045260246000fd5b60200101907effffffffffffffffffffffffffffffffffffffffffffffffffffffffffffff1916908160001a905350600a856115c491906138f7565b945061151c565b8093505050505b919050565b60606000825114156115fa5760405180602001604052806000815250905061177d565b60006040518060600160405280604081526020016146ff604091399050600060036002855161162991906138a1565b61163391906138f7565b600461163f9190613928565b9050600060208261165091906138a1565b67ffffffffffffffff81111561168f577f4e487b7100000000000000000000000000000000000000000000000000000000600052604160045260246000fd5b6040519080825280601f01601f1916602001820160405280156116c15781602001600182028036833780820191505090505b509050818152600183018586518101602084015b8183101561173c576003830192508251603f8160121c1685015160f81b8252600182019150603f81600c1c1685015160f81b8252600182019150603f8160061c1685015160f81b8252600182019150603f811685015160f81b8252600182019150506116d5565b600389510660018114611756576002811461176657611771565b613d3d60f01b6002830352611771565b603d60f81b60018303525b50505050508093505050505b919050565b60007f01ffc9a7000000000000000000000000000000000000000000000000000000007bffffffffffffffffffffffffffffffffffffffffffffffffffffffff1916827bffffffffffffffffffffffffffffffffffffffffffffffffffffffff1916149050919050565b60008073ffffffffffffffffffffffffffffffffffffffff166002600084815260200190815260200160002060009054906101000a900473ffffffffffffffffffffffffffffffffffffffff1673ffffffffffffffffffffffffffffffffffffffff1614159050919050565b600033905090565b816004600083815260200190815260200160002060006101000a81548173ffffffffffffffffffffffffffffffffffffffff021916908373ffffffffffffffffffffffffffffffffffffffff160217905550808273ffffffffffffffffffffffffffffffffffffffff166118d383610aaa565b73ffffffffffffffffffffffffffffffffffffffff167f8c5be1e5ebec7d5bd14f71427d1e84f3dd0314c0f7b2291e5b200ac8c7c3b92560405160405180910390a45050565b6000611924826117ec565b611963576040517f08c379a000000000000000000000000000000000000000000000000000000000815260040161195a9061360d565b60405180910390fd5b600061196e83610aaa565b90508073ffffffffffffffffffffffffffffffffffffffff168473ffffffffffffffffffffffffffffffffffffffff1614806119dd57508373ffffffffffffffffffffffffffffffffffffffff166119c5846107e3565b73ffffffffffffffffffffffffffffffffffffffff16145b806119ee57506119ed8185611277565b5b91505092915050565b8273ffffffffffffffffffffffffffffffffffffffff16611a1782610aaa565b73ffffffffffffffffffffffffffffffffffffffff1614611a6d576040517f08c379a0000000000000000000000000000000000000000000000000000000008152600401611a649061372d565b60405180910390fd5b600073ffffffffffffffffffffffffffffffffffffffff168273ffffffffffffffffffffffffffffffffffffffff161415611add576040517f08c379a0000000000000000000000000000000000000000000000000000000008152600401611ad49061358d565b60405180910390fd5b611ae883838361225c565b611af3600082611860565b6001600360008573ffffffffffffffffffffffffffffffffffffffff1673ffffffffffffffffffffffffffffffffffffffff1681526020019081526020016000206000828254611b439190613982565b925050819055506001600360008473ffffffffffffffffffffffffffffffffffffffff1673ffffffffffffffffffffffffffffffffffffffff1681526020019081526020016000206000828254611b9a91906138a1565b92505081905550816002600083815260200190815260200160002060006101000a81548173ffffffffffffffffffffffffffffffffffffffff021916908373ffffffffffffffffffffffffffffffffffffffff160217905550808273ffffffffffffffffffffffffffffffffffffffff168473ffffffffffffffffffffffffffffffffffffffff167fddf252ad1be2c89b69c2b068fc378daa952ba7f163c4a11628f55a4df523b3ef60405160405180910390a4505050565b80471015611c96576040517f08c379a0000000000000000000000000000000000000000000000000000000008152600401611c8d906135ed565b60405180910390fd5b60008273ffffffffffffffffffffffffffffffffffffffff1682604051611cbc906132f5565b60006040518083038185875af1925050503d8060008114611cf9576040519150601f19603f3d011682016040523d82523d6000602084013e611cfe565b606091505b5050905080611d42576040517f08c379a0000000000000000000000000000000000000000000000000000000008152600401611d39906135cd565b60405180910390fd5b505050565b600081600001549050919050565b611d6f828260405180602001604052806000815250612261565b5050565b611d7c826117ec565b611dbb576040517f08c379a0000000000000000000000000000000000000000000000000000000008152600401611db29061368d565b60405180910390fd5b80600660008481526020019081526020016000209080519060200190611de2929190612759565b505050565b6000600760009054906101000a900473ffffffffffffffffffffffffffffffffffffffff16905081600760006101000a81548173ffffffffffffffffffffffffffffffffffffffff021916908373ffffffffffffffffffffffffffffffffffffffff1602179055508173ffffffffffffffffffffffffffffffffffffffff168173ffffffffffffffffffffffffffffffffffffffff167f8be0079c531659141344cd1fd0a4f28419497f9722a3daafe3b4186f6b6457e060405160405180910390a35050565b8173ffffffffffffffffffffffffffffffffffffffff168373ffffffffffffffffffffffffffffffffffffffff161415611f1c576040517f08c379a0000000000000000000000000000000000000000000000000000000008152600401611f13906135ad565b60405180910390fd5b80600560008573ffffffffffffffffffffffffffffffffffffffff1673ffffffffffffffffffffffffffffffffffffffff16815260200190815260200160002060008473ffffffffffffffffffffffffffffffffffffffff1673ffffffffffffffffffffffffffffffffffffffff16815260200190815260200160002060006101000a81548160ff0219169083151502179055508173ffffffffffffffffffffffffffffffffffffffff168373ffffffffffffffffffffffffffffffffffffffff167f17307eab39ab6107e8899845ad3d59bd9653f200f220920489ca2b5937696c318360405161200d91906134b0565b60405180910390a3505050565b6120258484846119f7565b612031848484846122bc565b612070576040517f08c379a00000000000000000000000000000000000000000000000000000000081526004016120679061350d565b60405180910390fd5b50505050565b61207e6127df565b6120866127df565b60005b600681101561210057600961209e8583612453565b6120a89190613b86565b60ff168282600681106120e4577f4e487b7100000000000000000000000000000000000000000000000000000000600052603260045260246000fd5b60200201818152505080806120f890613af8565b915050612089565b5080915050919050565b6060612115826117ec565b612154576040517f08c379a000000000000000000000000000000000000000000000000000000000815260040161214b906136cd565b60405180910390fd5b600060066000848152602001908152602001600020805461217490613a95565b80601f01602080910402602001604051908101604052809291908181526020018280546121a090613a95565b80156121ed5780601f106121c2576101008083540402835291602001916121ed565b820191906000526020600020905b8154815290600101906020018083116121d057829003601f168201915b5050505050905060006121fe6124ba565b9050600081511415612214578192505050612257565b600082511115612249578082604051602001612231929190613230565b60405160208183030381529060405292505050612257565b612252846124d1565b925050505b919050565b505050565b61226b8383612578565b61227860008484846122bc565b6122b7576040517f08c379a00000000000000000000000000000000000000000000000000000000081526004016122ae9061350d565b60405180910390fd5b505050565b60006122dd8473ffffffffffffffffffffffffffffffffffffffff16612746565b15612446578373ffffffffffffffffffffffffffffffffffffffff1663150b7a02612306611858565b8786866040518563ffffffff1660e01b81526004016123289493929190613464565b602060405180830381600087803b15801561234257600080fd5b505af192505050801561237357506040513d601f19601f820116820180604052508101906123709190612abf565b60015b6123f6573d80600081146123a3576040519150601f19603f3d011682016040523d82523d6000602084013e6123a8565b606091505b506000815114156123ee576040517f08c379a00000000000000000000000000000000000000000000000000000000081526004016123e59061350d565b60405180910390fd5b805181602001fd5b63150b7a0260e01b7bffffffffffffffffffffffffffffffffffffffffffffffffffffffff1916817bffffffffffffffffffffffffffffffffffffffffffffffffffffffff19161491505061244b565b600190505b949350505050565b600060018261246291906138a1565b835110156124a5576040517f08c379a000000000000000000000000000000000000000000000000000000000815260040161249c906137ad565b60405180910390fd5b60008260018501015190508091505092915050565b606060405180602001604052806000815250905090565b60606124dc826117ec565b61251b576040517f08c379a00000000000000000000000000000000000000000000000000000000081526004016125129061374d565b60405180910390fd5b60006125256124ba565b905060008151116125455760405180602001604052806000815250612570565b8061254f8461142a565b604051602001612560929190613230565b6040516020818303038152906040525b915050919050565b600073ffffffffffffffffffffffffffffffffffffffff168273ffffffffffffffffffffffffffffffffffffffff1614156125e8576040517f08c379a00000000000000000000000000000000000000000000000000000000081526004016125df906136ad565b60405180910390fd5b6125f1816117ec565b15612631576040517f08c379a00000000000000000000000000000000000000000000000000000000081526004016126289061354d565b60405180910390fd5b61263d6000838361225c565b6001600360008473ffffffffffffffffffffffffffffffffffffffff1673ffffffffffffffffffffffffffffffffffffffff168152602001908152602001600020600082825461268d91906138a1565b92505081905550816002600083815260200190815260200160002060006101000a81548173ffffffffffffffffffffffffffffffffffffffff021916908373ffffffffffffffffffffffffffffffffffffffff160217905550808273ffffffffffffffffffffffffffffffffffffffff16600073ffffffffffffffffffffffffffffffffffffffff167fddf252ad1be2c89b69c2b068fc378daa952ba7f163c4a11628f55a4df523b3ef60405160405180910390a45050565b600080823b905060008111915050919050565b82805461276590613a95565b90600052602060002090601f01602090048101928261278757600085556127ce565b82601f106127a057805160ff19168380011785556127ce565b828001600101855582156127ce579182015b828111156127cd5782518255916020019190600101906127b2565b5b5090506127db9190612801565b5090565b6040518060c00160405280600690602082028036833780820191505090505090565b5b8082111561281a576000816000905550600101612802565b5090565b600061283161282c8461380d565b6137e8565b90508281526020810184848401111561284957600080fd5b612854848285613a53565b509392505050565b60008135905061286b816146a2565b92915050565b600081359050612880816146b9565b92915050565b600081359050612895816146d0565b92915050565b6000815190506128aa816146d0565b92915050565b600082601f8301126128c157600080fd5b81356128d184826020860161281e565b91505092915050565b6000813590506128e9816146e7565b92915050565b60006020828403121561290157600080fd5b600061290f8482850161285c565b91505092915050565b6000806040838503121561292b57600080fd5b60006129398582860161285c565b925050602061294a8582860161285c565b9150509250929050565b60008060006060848603121561296957600080fd5b60006129778682870161285c565b93505060206129888682870161285c565b9250506040612999868287016128da565b9150509250925092565b600080600080608085870312156129b957600080fd5b60006129c78782880161285c565b94505060206129d88782880161285c565b93505060406129e9878288016128da565b925050606085013567ffffffffffffffff811115612a0657600080fd5b612a12878288016128b0565b91505092959194509250565b60008060408385031215612a3157600080fd5b6000612a3f8582860161285c565b9250506020612a5085828601612871565b9150509250929050565b60008060408385031215612a6d57600080fd5b6000612a7b8582860161285c565b9250506020612a8c858286016128da565b9150509250929050565b600060208284031215612aa857600080fd5b6000612ab684828501612886565b91505092915050565b600060208284031215612ad157600080fd5b6000612adf8482850161289b565b91505092915050565b600060208284031215612afa57600080fd5b6000612b08848285016128da565b91505092915050565b612b1a816139c8565b82525050565b612b29816139b6565b82525050565b612b38816139da565b82525050565b612b4f612b4a826139e6565b613b41565b82525050565b6000612b6082613853565b612b6a8185613869565b9350612b7a818560208601613a62565b612b8381613c73565b840191505092915050565b6000612b998261385e565b612ba38185613885565b9350612bb3818560208601613a62565b612bbc81613c73565b840191505092915050565b6000612bd28261385e565b612bdc8185613896565b9350612bec818560208601613a62565b80840191505092915050565b60008154612c0581613a95565b612c0f8186613896565b94506001821660008114612c2a5760018114612c3b57612c6e565b60ff19831686528186019350612c6e565b612c448561383e565b60005b83811015612c6657815481890152600182019150602081019050612c47565b838801955050505b50505092915050565b6000612c84603c83613896565b9150612c8f82613c84565b603c82019050919050565b6000612ca7600983613896565b9150612cb282613cd3565b600982019050919050565b6000612cca601583613885565b9150612cd582613cfc565b602082019050919050565b6000612ced603283613885565b9150612cf882613d25565b604082019050919050565b6000612d10602683613885565b9150612d1b82613d74565b604082019050919050565b6000612d33601c83613885565b9150612d3e82613dc3565b602082019050919050565b6000612d56604883613896565b9150612d6182613dec565b604882019050919050565b6000612d79600783613896565b9150612d8482613e61565b600782019050919050565b6000612d9c601383613885565b9150612da782613e8a565b602082019050919050565b6000612dbf602483613885565b9150612dca82613eb3565b604082019050919050565b6000612de2601983613885565b9150612ded82613f02565b602082019050919050565b6000612e05603a83613885565b9150612e1082613f2b565b604082019050919050565b6000612e28601d83613885565b9150612e3382613f7a565b602082019050919050565b6000612e4b602c83613885565b9150612e5682613fa3565b604082019050919050565b6000612e6e603883613885565b9150612e7982613ff2565b604082019050919050565b6000612e91604583613896565b9150612e9c82614041565b604582019050919050565b6000612eb4600483613896565b9150612ebf826140b6565b600482019050919050565b6000612ed7602a83613885565b9150612ee2826140df565b604082019050919050565b6000612efa602983613885565b9150612f058261412e565b604082019050919050565b6000612f1d602e83613885565b9150612f288261417d565b604082019050919050565b6000612f40600283613896565b9150612f4b826141cc565b600282019050919050565b6000612f63602083613885565b9150612f6e826141f5565b602082019050919050565b6000612f86605e83613896565b9150612f918261421e565b605e82019050919050565b6000612fa9600d83613896565b9150612fb482614293565b600d82019050919050565b6000612fcc603183613885565b9150612fd7826142bc565b604082019050919050565b6000612fef602c83613885565b9150612ffa8261430b565b604082019050919050565b6000613012603f83613896565b915061301d8261435a565b603f82019050919050565b6000613035601283613896565b9150613040826143a9565b601282019050919050565b6000613058602083613885565b9150613063826143d2565b602082019050919050565b600061307b602983613885565b9150613086826143fb565b604082019050919050565b600061309e602f83613885565b91506130a98261444a565b604082019050919050565b60006130c1604383613896565b91506130cc82614499565b604382019050919050565b60006130e4602183613885565b91506130ef8261450e565b604082019050919050565b6000613107601d83613896565b91506131128261455d565b601d82019050919050565b600061312a60008361387a565b915061313582614586565b600082019050919050565b600061314d603183613885565b915061315882614589565b604082019050919050565b6000613170601383613885565b915061317b826145d8565b602082019050919050565b6000613193603e83613896565b915061319e82614601565b603e82019050919050565b60006131b6600683613896565b91506131c182614650565b600682019050919050565b60006131d9601a83613896565b91506131e482614679565b601a82019050919050565b6131f881613a3c565b82525050565b61320f61320a82613a3c565b613b4b565b82525050565b60006132218284612b3e565b60208201915081905092915050565b600061323c8285612bc7565b91506132488284612bc7565b91508190509392505050565b600061325f82612c9a565b915061326b8286612bc7565b915061327682613028565b91506132828285612bc7565b915061328d82612f9c565b91506132998284612bc7565b91506132a482612f33565b9150819050949350505050565b60006132bc82612d6c565b91506132c88284612bc7565b915081905092915050565b60006132de826130fa565b91506132ea8284612bc7565b915081905092915050565b60006133008261311d565b9150819050919050565b600061331582613186565b915061332082612c77565b915061332c8289612bf8565b9150613337826130b4565b91506133438288612bf8565b915061334e82612ea7565b915061335982612e84565b91506133658287612bf8565b915061337082612ea7565b915061337b82613005565b91506133878286612bf8565b915061339282612ea7565b915061339d82612f79565b91506133a98285612bf8565b91506133b482612ea7565b91506133bf82612d49565b91506133cb8284612bf8565b91506133d682612ea7565b91506133e1826131a9565b9150819050979650505050505050565b60006133fc826131cc565b91506134088284612bc7565b915081905092915050565b600061341f82846131fe565b60208201915081905092915050565b60006020820190506134436000830184612b20565b92915050565b600060208201905061345e6000830184612b11565b92915050565b60006080820190506134796000830187612b20565b6134866020830186612b20565b61349360408301856131ef565b81810360608301526134a58184612b55565b905095945050505050565b60006020820190506134c56000830184612b2f565b92915050565b600060208201905081810360008301526134e58184612b8e565b905092915050565b6000602082019050818103600083015261350681612cbd565b9050919050565b6000602082019050818103600083015261352681612ce0565b9050919050565b6000602082019050818103600083015261354681612d03565b9050919050565b6000602082019050818103600083015261356681612d26565b9050919050565b6000602082019050818103600083015261358681612d8f565b9050919050565b600060208201905081810360008301526135a681612db2565b9050919050565b600060208201905081810360008301526135c681612dd5565b9050919050565b600060208201905081810360008301526135e681612df8565b9050919050565b6000602082019050818103600083015261360681612e1b565b9050919050565b6000602082019050818103600083015261362681612e3e565b9050919050565b6000602082019050818103600083015261364681612e61565b9050919050565b6000602082019050818103600083015261366681612eca565b9050919050565b6000602082019050818103600083015261368681612eed565b9050919050565b600060208201905081810360008301526136a681612f10565b9050919050565b600060208201905081810360008301526136c681612f56565b9050919050565b600060208201905081810360008301526136e681612fbf565b9050919050565b6000602082019050818103600083015261370681612fe2565b9050919050565b600060208201905081810360008301526137268161304b565b9050919050565b600060208201905081810360008301526137468161306e565b9050919050565b6000602082019050818103600083015261376681613091565b9050919050565b60006020820190508181036000830152613786816130d7565b9050919050565b600060208201905081810360008301526137a681613140565b9050919050565b600060208201905081810360008301526137c681613163565b9050919050565b60006020820190506137e260008301846131ef565b92915050565b60006137f2613803565b90506137fe8282613ac7565b919050565b6000604051905090565b600067ffffffffffffffff82111561382857613827613c44565b5b61383182613c73565b9050602081019050919050565b60008190508160005260206000209050919050565b600081519050919050565b600081519050919050565b600082825260208201905092915050565b600081905092915050565b600082825260208201905092915050565b600081905092915050565b60006138ac82613a3c565b91506138b783613a3c565b9250827fffffffffffffffffffffffffffffffffffffffffffffffffffffffffffffffff038211156138ec576138eb613bb7565b5b828201905092915050565b600061390282613a3c565b915061390d83613a3c565b92508261391d5761391c613be6565b5b828204905092915050565b600061393382613a3c565b915061393e83613a3c565b9250817fffffffffffffffffffffffffffffffffffffffffffffffffffffffffffffffff048311821515161561397757613976613bb7565b5b828202905092915050565b600061398d82613a3c565b915061399883613a3c565b9250828210156139ab576139aa613bb7565b5b828203905092915050565b60006139c182613a1c565b9050919050565b60006139d382613a1c565b9050919050565b60008115159050919050565b6000819050919050565b60007fffffffff0000000000000000000000000000000000000000000000000000000082169050919050565b600073ffffffffffffffffffffffffffffffffffffffff82169050919050565b6000819050919050565b600060ff82169050919050565b82818337600083830152505050565b60005b83811015613a80578082015181840152602081019050613a65565b83811115613a8f576000848401525b50505050565b60006002820490506001821680613aad57607f821691505b60208210811415613ac157613ac0613c15565b5b50919050565b613ad082613c73565b810181811067ffffffffffffffff82111715613aef57613aee613c44565b5b80604052505050565b6000613b0382613a3c565b91507fffffffffffffffffffffffffffffffffffffffffffffffffffffffffffffffff821415613b3657613b35613bb7565b5b600182019050919050565b6000819050919050565b6000819050919050565b6000613b6082613a3c565b9150613b6b83613a3c565b925082613b7b57613b7a613be6565b5b828206905092915050565b6000613b9182613a46565b9150613b9c83613a46565b925082613bac57613bab613be6565b5b828206905092915050565b7f4e487b7100000000000000000000000000000000000000000000000000000000600052601160045260246000fd5b7f4e487b7100000000000000000000000000000000000000000000000000000000600052601260045260246000fd5b7f4e487b7100000000000000000000000000000000000000000000000000000000600052602260045260246000fd5b7f4e487b7100000000000000000000000000000000000000000000000000000000600052604160045260246000fd5b6000601f19601f8301169050919050565b7f3c7061746820643d224d302030683139347633383848307a222073686170655260008201527f656e646572696e673d2263726973704564676573222066696c6c3d2200000000602082015250565b7f7b226e616d65223a220000000000000000000000000000000000000000000000600082015250565b7f4e6f7420656e6f7567682066756e64732073656e740000000000000000000000600082015250565b7f4552433732313a207472616e7366657220746f206e6f6e20455243373231526560008201527f63656976657220696d706c656d656e7465720000000000000000000000000000602082015250565b7f4f776e61626c653a206e6577206f776e657220697320746865207a65726f206160008201527f6464726573730000000000000000000000000000000000000000000000000000602082015250565b7f4552433732313a20746f6b656e20616c7265616479206d696e74656400000000600082015250565b7f3c7061746820643d224d313934203239302e35563139346834387639362e356860008201527f2d34385a2220736861706552656e646572696e673d226372697370456467657360208201527f222066696c6c3d22000000000000000000000000000000000000000000000000604082015250565b7f5368616570202300000000000000000000000000000000000000000000000000600082015250565b7f546f74616c20737570706c79206d696e74656400000000000000000000000000600082015250565b7f4552433732313a207472616e7366657220746f20746865207a65726f2061646460008201527f7265737300000000000000000000000000000000000000000000000000000000602082015250565b7f4552433732313a20617070726f766520746f2063616c6c657200000000000000600082015250565b7f416464726573733a20756e61626c6520746f2073656e642076616c75652c207260008201527f6563697069656e74206d61792068617665207265766572746564000000000000602082015250565b7f416464726573733a20696e73756666696369656e742062616c616e6365000000600082015250565b7f4552433732313a206f70657261746f7220717565727920666f72206e6f6e657860008201527f697374656e7420746f6b656e0000000000000000000000000000000000000000602082015250565b7f4552433732313a20617070726f76652063616c6c6572206973206e6f74206f7760008201527f6e6572206e6f7220617070726f76656420666f7220616c6c0000000000000000602082015250565b7f3c7061746820643d224d3937203139332e373563302035332e3433342034332e60008201527f3536362039362e37352039372039362e3735762d39362e37354839375a22206660208201527f696c6c3d22000000000000000000000000000000000000000000000000000000604082015250565b7f22202f3e00000000000000000000000000000000000000000000000000000000600082015250565b7f4552433732313a2062616c616e636520717565727920666f7220746865207a6560008201527f726f206164647265737300000000000000000000000000000000000000000000602082015250565b7f4552433732313a206f776e657220717565727920666f72206e6f6e657869737460008201527f656e7420746f6b656e0000000000000000000000000000000000000000000000602082015250565b7f45524337323155524953746f726167653a2055524920736574206f66206e6f6e60008201527f6578697374656e7420746f6b656e000000000000000000000000000000000000602082015250565b7f227d000000000000000000000000000000000000000000000000000000000000600082015250565b7f4552433732313a206d696e7420746f20746865207a65726f2061646472657373600082015250565b7f3c7061746820643d224d393720313934762d2e3235433937203134302e33313660008201527f203134302e333136203937203139332e37352039377339362e37352034332e3360208201527f31362039362e37352039362e3735762e32354839375a222066696c6c3d220000604082015250565b7f222c2022696d616765223a202200000000000000000000000000000000000000600082015250565b7f45524337323155524953746f726167653a2055524920717565727920666f722060008201527f6e6f6e6578697374656e7420746f6b656e000000000000000000000000000000602082015250565b7f4552433732313a20617070726f76656420717565727920666f72206e6f6e657860008201527f697374656e7420746f6b656e0000000000000000000000000000000000000000602082015250565b7f3c7061746820643d224d363920363968313235763132354836397a222073686160008201527f706552656e646572696e673d2263726973704564676573222066696c6c3d2200602082015250565b7f222c20226465736372697074696f6e223a220000000000000000000000000000600082015250565b7f4f776e61626c653a2063616c6c6572206973206e6f7420746865206f776e6572600082015250565b7f4552433732313a207472616e73666572206f6620746f6b656e2074686174206960008201527f73206e6f74206f776e0000000000000000000000000000000000000000000000602082015250565b7f4552433732314d657461646174613a2055524920717565727920666f72206e6f60008201527f6e6578697374656e7420746f6b656e0000000000000000000000000000000000602082015250565b7f222f3e3c7061746820643d224d31393420306831393476333838483139347a2260008201527f20736861706552656e646572696e673d2263726973704564676573222066696c60208201527f6c3d220000000000000000000000000000000000000000000000000000000000604082015250565b7f4552433732313a20617070726f76616c20746f2063757272656e74206f776e6560008201527f7200000000000000000000000000000000000000000000000000000000000000602082015250565b7f646174613a6170706c69636174696f6e2f6a736f6e3b6261736536342c000000600082015250565b50565b7f4552433732313a207472616e736665722063616c6c6572206973206e6f74206f60008201527f776e6572206e6f7220617070726f766564000000000000000000000000000000602082015250565b7f746f55696e74385f6f75744f66426f756e647300000000000000000000000000600082015250565b7f3c7376672076696577426f783d2230203020333838203338382220786d6c6e7360008201527f3d22687474703a2f2f7777772e77332e6f72672f323030302f737667223e0000602082015250565b7f3c2f7376673e0000000000000000000000000000000000000000000000000000600082015250565b7f646174613a696d6167652f7376672b786d6c3b6261736536342c000000000000600082015250565b6146ab816139b6565b81146146b657600080fd5b50565b6146c2816139da565b81146146cd57600080fd5b50565b6146d9816139f0565b81146146e457600080fd5b50565b6146f081613a3c565b81146146fb57600080fd5b5056fe4142434445464748494a4b4c4d4e4f505152535455565758595a6162636465666768696a6b6c6d6e6f707172737475767778797a303132333435363738392b2fa264697066735822122015e8010683a104fab596197fcde14f75dd47f29eb00fe105a2a78c0b890f9e6064736f6c63430008040033",
  "linkReferences": {},
  "deployedLinkReferences": {}
}