{
  "_format": "hh-sol-artifact-1",
  "contractName": "Shaeps",
  "sourceName": "contracts/Shaeps.sol",
  "abi": [
    {
      "inputs": [
        {
          "internalType": "string",
          "name": "_name",
          "type": "string"
        },
        {
          "internalType": "string",
          "name": "_symbol",
          "type": "string"
        },
        {
          "internalType": "address payable",
          "name": "_collector",
          "type": "address"
        }
      ],
      "stateMutability": "nonpayable",
      "type": "constructor"
    },
    {
      "anonymous": false,
      "inputs": [
        {
          "indexed": true,
          "internalType": "address",
          "name": "owner",
          "type": "address"
        },
        {
          "indexed": true,
          "internalType": "address",
          "name": "approved",
          "type": "address"
        },
        {
          "indexed": true,
          "internalType": "uint256",
          "name": "tokenId",
          "type": "uint256"
        }
      ],
      "name": "Approval",
      "type": "event"
    },
    {
      "anonymous": false,
      "inputs": [
        {
          "indexed": true,
          "internalType": "address",
          "name": "owner",
          "type": "address"
        },
        {
          "indexed": true,
          "internalType": "address",
          "name": "operator",
          "type": "address"
        },
        {
          "indexed": false,
          "internalType": "bool",
          "name": "approved",
          "type": "bool"
        }
      ],
      "name": "ApprovalForAll",
      "type": "event"
    },
    {
      "anonymous": false,
      "inputs": [
        {
          "indexed": true,
          "internalType": "address",
          "name": "previousOwner",
          "type": "address"
        },
        {
          "indexed": true,
          "internalType": "address",
          "name": "newOwner",
          "type": "address"
        }
      ],
      "name": "OwnershipTransferred",
      "type": "event"
    },
    {
      "anonymous": false,
      "inputs": [
        {
          "indexed": true,
          "internalType": "address",
          "name": "from",
          "type": "address"
        },
        {
          "indexed": true,
          "internalType": "address",
          "name": "to",
          "type": "address"
        },
        {
          "indexed": true,
          "internalType": "uint256",
          "name": "tokenId",
          "type": "uint256"
        }
      ],
      "name": "Transfer",
      "type": "event"
    },
    {
      "inputs": [
        {
          "internalType": "address",
          "name": "to",
          "type": "address"
        },
        {
          "internalType": "uint256",
          "name": "tokenId",
          "type": "uint256"
        }
      ],
      "name": "approve",
      "outputs": [],
      "stateMutability": "nonpayable",
      "type": "function"
    },
    {
      "inputs": [
        {
          "internalType": "address",
          "name": "owner",
          "type": "address"
        }
      ],
      "name": "balanceOf",
      "outputs": [
        {
          "internalType": "uint256",
          "name": "",
          "type": "uint256"
        }
      ],
      "stateMutability": "view",
      "type": "function"
    },
    {
      "inputs": [
        {
          "internalType": "uint256",
          "name": "tokenId",
          "type": "uint256"
        }
      ],
      "name": "burn",
      "outputs": [],
      "stateMutability": "nonpayable",
      "type": "function"
    },
    {
      "inputs": [],
      "name": "collector",
      "outputs": [
        {
          "internalType": "address payable",
          "name": "",
          "type": "address"
        }
      ],
      "stateMutability": "view",
      "type": "function"
    },
    {
      "inputs": [
        {
          "internalType": "uint256",
          "name": "tokenId",
          "type": "uint256"
        }
      ],
      "name": "generateMetadata",
      "outputs": [
        {
          "internalType": "string",
          "name": "",
          "type": "string"
        }
      ],
      "stateMutability": "view",
      "type": "function"
    },
    {
      "inputs": [
        {
          "internalType": "uint256",
          "name": "tokenId",
          "type": "uint256"
        }
      ],
      "name": "generateSvg",
      "outputs": [
        {
          "internalType": "string",
          "name": "",
          "type": "string"
        }
      ],
      "stateMutability": "view",
      "type": "function"
    },
    {
      "inputs": [
        {
          "internalType": "uint256",
          "name": "tokenId",
          "type": "uint256"
        }
      ],
      "name": "getApproved",
      "outputs": [
        {
          "internalType": "address",
          "name": "",
          "type": "address"
        }
      ],
      "stateMutability": "view",
      "type": "function"
    },
    {
      "inputs": [
        {
          "internalType": "address",
          "name": "owner",
          "type": "address"
        },
        {
          "internalType": "address",
          "name": "operator",
          "type": "address"
        }
      ],
      "name": "isApprovedForAll",
      "outputs": [
        {
          "internalType": "bool",
          "name": "",
          "type": "bool"
        }
      ],
      "stateMutability": "view",
      "type": "function"
    },
    {
      "inputs": [],
      "name": "maxSupply",
      "outputs": [
        {
          "internalType": "uint256",
          "name": "",
          "type": "uint256"
        }
      ],
      "stateMutability": "view",
      "type": "function"
    },
    {
      "inputs": [
        {
          "internalType": "address",
          "name": "to",
          "type": "address"
        }
      ],
      "name": "mint",
      "outputs": [],
      "stateMutability": "payable",
      "type": "function"
    },
    {
      "inputs": [],
      "name": "mintedSupply",
      "outputs": [
        {
          "internalType": "uint256",
          "name": "",
          "type": "uint256"
        }
      ],
      "stateMutability": "view",
      "type": "function"
    },
    {
      "inputs": [],
      "name": "name",
      "outputs": [
        {
          "internalType": "string",
          "name": "",
          "type": "string"
        }
      ],
      "stateMutability": "view",
      "type": "function"
    },
    {
      "inputs": [],
      "name": "owner",
      "outputs": [
        {
          "internalType": "address",
          "name": "",
          "type": "address"
        }
      ],
      "stateMutability": "view",
      "type": "function"
    },
    {
      "inputs": [
        {
          "internalType": "uint256",
          "name": "tokenId",
          "type": "uint256"
        }
      ],
      "name": "ownerOf",
      "outputs": [
        {
          "internalType": "address",
          "name": "",
          "type": "address"
        }
      ],
      "stateMutability": "view",
      "type": "function"
    },
    {
      "inputs": [],
      "name": "price",
      "outputs": [
        {
          "internalType": "uint256",
          "name": "",
          "type": "uint256"
        }
      ],
      "stateMutability": "view",
      "type": "function"
    },
    {
      "inputs": [],
      "name": "renounceOwnership",
      "outputs": [],
      "stateMutability": "nonpayable",
      "type": "function"
    },
    {
      "inputs": [
        {
          "internalType": "address",
          "name": "from",
          "type": "address"
        },
        {
          "internalType": "address",
          "name": "to",
          "type": "address"
        },
        {
          "internalType": "uint256",
          "name": "tokenId",
          "type": "uint256"
        }
      ],
      "name": "safeTransferFrom",
      "outputs": [],
      "stateMutability": "nonpayable",
      "type": "function"
    },
    {
      "inputs": [
        {
          "internalType": "address",
          "name": "from",
          "type": "address"
        },
        {
          "internalType": "address",
          "name": "to",
          "type": "address"
        },
        {
          "internalType": "uint256",
          "name": "tokenId",
          "type": "uint256"
        },
        {
          "internalType": "bytes",
          "name": "_data",
          "type": "bytes"
        }
      ],
      "name": "safeTransferFrom",
      "outputs": [],
      "stateMutability": "nonpayable",
      "type": "function"
    },
    {
      "inputs": [
        {
          "internalType": "address",
          "name": "operator",
          "type": "address"
        },
        {
          "internalType": "bool",
          "name": "approved",
          "type": "bool"
        }
      ],
      "name": "setApprovalForAll",
      "outputs": [],
      "stateMutability": "nonpayable",
      "type": "function"
    },
    {
      "inputs": [
        {
          "internalType": "bytes4",
          "name": "interfaceId",
          "type": "bytes4"
        }
      ],
      "name": "supportsInterface",
      "outputs": [
        {
          "internalType": "bool",
          "name": "",
          "type": "bool"
        }
      ],
      "stateMutability": "view",
      "type": "function"
    },
    {
      "inputs": [],
      "name": "symbol",
      "outputs": [
        {
          "internalType": "string",
          "name": "",
          "type": "string"
        }
      ],
      "stateMutability": "view",
      "type": "function"
    },
    {
      "inputs": [
        {
          "internalType": "uint256",
          "name": "tokenId",
          "type": "uint256"
        }
      ],
      "name": "tokenURI",
      "outputs": [
        {
          "internalType": "string",
          "name": "",
          "type": "string"
        }
      ],
      "stateMutability": "view",
      "type": "function"
    },
    {
      "inputs": [
        {
          "internalType": "address",
          "name": "from",
          "type": "address"
        },
        {
          "internalType": "address",
          "name": "to",
          "type": "address"
        },
        {
          "internalType": "uint256",
          "name": "tokenId",
          "type": "uint256"
        }
      ],
      "name": "transferFrom",
      "outputs": [],
      "stateMutability": "nonpayable",
      "type": "function"
    },
    {
      "inputs": [
        {
          "internalType": "address",
          "name": "newOwner",
          "type": "address"
        }
      ],
      "name": "transferOwnership",
      "outputs": [],
      "stateMutability": "nonpayable",
      "type": "function"
    },
    {
      "inputs": [],
      "name": "withdraw",
      "outputs": [],
      "stateMutability": "nonpayable",
      "type": "function"
    }
  ],
  "bytecode": "0x60806040526040518061012001604052806040518060400160405280600781526020017f234542353735370000000000000000000000000000000000000000000000000081525081526020016040518060400160405280600781526020017f234632393934410000000000000000000000000000000000000000000000000081525081526020016040518060400160405280600781526020017f234632433934430000000000000000000000000000000000000000000000000081525081526020016040518060400160405280600781526020017f233646434639370000000000000000000000000000000000000000000000000081525081526020016040518060400160405280600781526020017f233536434346320000000000000000000000000000000000000000000000000081525081526020016040518060400160405280600781526020017f233246383045440000000000000000000000000000000000000000000000000081525081526020016040518060400160405280600781526020017f233942353145300000000000000000000000000000000000000000000000000081525081526020016040518060400160405280600481526020017f234646460000000000000000000000000000000000000000000000000000000081525081526020016040518060400160405280600481526020017f2331313100000000000000000000000000000000000000000000000000000000815250815250600b9060096200023392919062000605565b506040518061012001604052806040518060400160405280600381526020017f526564000000000000000000000000000000000000000000000000000000000081525081526020016040518060400160405280600681526020017f4f72616e6765000000000000000000000000000000000000000000000000000081525081526020016040518060400160405280600681526020017f59656c6c6f77000000000000000000000000000000000000000000000000000081525081526020016040518060400160405280600581526020017f477265656e00000000000000000000000000000000000000000000000000000081525081526020016040518060400160405280600a81526020017f4c6967687420426c75650000000000000000000000000000000000000000000081525081526020016040518060400160405280600481526020017f426c75650000000000000000000000000000000000000000000000000000000081525081526020016040518060400160405280600681526020017f507572706c65000000000000000000000000000000000000000000000000000081525081526020016040518060400160405280600581526020017f576869746500000000000000000000000000000000000000000000000000000081525081526020016040518060400160405280600581526020017f426c61636b00000000000000000000000000000000000000000000000000000081525081525060149060096200046392919062000605565b503480156200047157600080fd5b5060405162005d5d38038062005d5d833981810160405281019062000497919062000806565b82828160009080519060200190620004b19291906200065f565b508060019080519060200190620004ca9291906200065f565b505050620004ed620004e16200053760201b60201c565b6200053f60201b60201c565b80600960006101000a81548173ffffffffffffffffffffffffffffffffffffffff021916908373ffffffffffffffffffffffffffffffffffffffff16021790555050505062000a4c565b600033905090565b6000600760009054906101000a900473ffffffffffffffffffffffffffffffffffffffff16905081600760006101000a81548173ffffffffffffffffffffffffffffffffffffffff021916908373ffffffffffffffffffffffffffffffffffffffff1602179055508173ffffffffffffffffffffffffffffffffffffffff168173ffffffffffffffffffffffffffffffffffffffff167f8be0079c531659141344cd1fd0a4f28419497f9722a3daafe3b4186f6b6457e060405160405180910390a35050565b82600981019282156200064c579160200282015b828111156200064b5782518290805190602001906200063a9291906200065f565b509160200191906001019062000619565b5b5090506200065b9190620006f0565b5090565b8280546200066d9062000957565b90600052602060002090601f016020900481019282620006915760008555620006dd565b82601f10620006ac57805160ff1916838001178555620006dd565b82800160010185558215620006dd579182015b82811115620006dc578251825591602001919060010190620006bf565b5b509050620006ec919062000718565b5090565b5b808211156200071457600081816200070a919062000737565b50600101620006f1565b5090565b5b808211156200073357600081600090555060010162000719565b5090565b508054620007459062000957565b6000825580601f106200075957506200077a565b601f01602090049060005260206000209081019062000779919062000718565b5b50565b6000620007946200078e84620008b7565b6200088e565b905082815260208101848484011115620007ad57600080fd5b620007ba84828562000921565b509392505050565b600081519050620007d38162000a32565b92915050565b600082601f830112620007eb57600080fd5b8151620007fd8482602086016200077d565b91505092915050565b6000806000606084860312156200081c57600080fd5b600084015167ffffffffffffffff8111156200083757600080fd5b6200084586828701620007d9565b935050602084015167ffffffffffffffff8111156200086357600080fd5b6200087186828701620007d9565b92505060406200088486828701620007c2565b9150509250925092565b60006200089a620008ad565b9050620008a882826200098d565b919050565b6000604051905090565b600067ffffffffffffffff821115620008d557620008d4620009f2565b5b620008e08262000a21565b9050602081019050919050565b6000620008fa8262000901565b9050919050565b600073ffffffffffffffffffffffffffffffffffffffff82169050919050565b60005b838110156200094157808201518184015260208101905062000924565b8381111562000951576000848401525b50505050565b600060028204905060018216806200097057607f821691505b60208210811415620009875762000986620009c3565b5b50919050565b620009988262000a21565b810181811067ffffffffffffffff82111715620009ba57620009b9620009f2565b5b80604052505050565b7f4e487b7100000000000000000000000000000000000000000000000000000000600052602260045260246000fd5b7f4e487b7100000000000000000000000000000000000000000000000000000000600052604160045260246000fd5b6000601f19601f8301169050919050565b62000a3d81620008ed565b811462000a4957600080fd5b50565b6153018062000a5c6000396000f3fe6080604052600436106101665760003560e01c8063715018a6116100d1578063b88d4fde1161008a578063c87b56dd11610064578063c87b56dd1461051b578063d5abeb0114610558578063e985e9c514610583578063f2fde38b146105c057610166565b8063b88d4fde1461048a578063bc921dc2146104b3578063c1bd8cf9146104f057610166565b8063715018a61461039e5780638da5cb5b146103b5578063913e77ad146103e057806395d89b411461040b578063a035b1fe14610436578063a22cb4651461046157610166565b80633ccfd60b116101235780633ccfd60b1461029f57806342842e0e146102b657806342966c68146102df5780636352211e146103085780636a6278421461034557806370a082311461036157610166565b8063015e1a0b1461016b57806301ffc9a7146101a857806306fdde03146101e5578063081812fc14610210578063095ea7b31461024d57806323b872dd14610276575b600080fd5b34801561017757600080fd5b50610192600480360381019061018d91906132ac565b6105e9565b60405161019f9190613e99565b60405180910390f35b3480156101b457600080fd5b506101cf60048036038101906101ca919061325a565b610772565b6040516101dc9190613e7e565b60405180910390f35b3480156101f157600080fd5b506101fa610854565b6040516102079190613e99565b60405180910390f35b34801561021c57600080fd5b50610237600480360381019061023291906132ac565b6108e6565b6040516102449190613dfc565b60405180910390f35b34801561025957600080fd5b50610274600480360381019061026f919061321e565b61096b565b005b34801561028257600080fd5b5061029d60048036038101906102989190613118565b610a83565b005b3480156102ab57600080fd5b506102b4610ae3565b005b3480156102c257600080fd5b506102dd60048036038101906102d89190613118565b610b8d565b005b3480156102eb57600080fd5b50610306600480360381019061030191906132ac565b610bad565b005b34801561031457600080fd5b5061032f600480360381019061032a91906132ac565b610c09565b60405161033c9190613dfc565b60405180910390f35b61035f600480360381019061035a91906130b3565b610cbb565b005b34801561036d57600080fd5b50610388600480360381019061038391906130b3565b610dbf565b60405161039591906141bb565b60405180910390f35b3480156103aa57600080fd5b506103b3610e77565b005b3480156103c157600080fd5b506103ca610eff565b6040516103d79190613dfc565b60405180910390f35b3480156103ec57600080fd5b506103f5610f29565b6040516104029190613e17565b60405180910390f35b34801561041757600080fd5b50610420610f4f565b60405161042d9190613e99565b60405180910390f35b34801561044257600080fd5b5061044b610fe1565b60405161045891906141bb565b60405180910390f35b34801561046d57600080fd5b50610488600480360381019061048391906131e2565b610fec565b005b34801561049657600080fd5b506104b160048036038101906104ac9190613167565b611002565b005b3480156104bf57600080fd5b506104da60048036038101906104d591906132ac565b611064565b6040516104e79190613e99565b60405180910390f35b3480156104fc57600080fd5b5061050561111f565b60405161051291906141bb565b60405180910390f35b34801561052757600080fd5b50610542600480360381019061053d91906132ac565b611130565b60405161054f9190613e99565b60405180910390f35b34801561056457600080fd5b5061056d611142565b60405161057a91906141bb565b60405180910390f35b34801561058f57600080fd5b506105aa60048036038101906105a591906130dc565b611147565b6040516105b79190613e7e565b60405180910390f35b3480156105cc57600080fd5b506105e760048036038101906105e291906130b3565b6111db565b005b606060006105f6836112d3565b6040516020016106069190613c28565b604051602081830303815290604052905060006040518060400160405280601081526020017f6c696e657320616e6420636f6c6f72730000000000000000000000000000000081525090506000600a6000868152602001908152602001600020805461067190614483565b80601f016020809104026020016040519081016040528092919081815260200182805461069d90614483565b80156106ea5780601f106106bf576101008083540402835291602001916106ea565b820191906000526020600020905b8154815290600101906020018083116106cd57829003601f168201915b5050505050905060006106fc82611480565b9050600061070982611514565b905060006107168361183e565b9050610746868684846040516020016107329493929190613bb3565b604051602081830303815290604052611b3f565b6040516020016107569190613cbc565b6040516020818303038152906040529650505050505050919050565b60007f80ac58cd000000000000000000000000000000000000000000000000000000007bffffffffffffffffffffffffffffffffffffffffffffffffffffffff1916827bffffffffffffffffffffffffffffffffffffffffffffffffffffffff1916148061083d57507f5b5e139f000000000000000000000000000000000000000000000000000000007bffffffffffffffffffffffffffffffffffffffffffffffffffffffff1916827bffffffffffffffffffffffffffffffffffffffffffffffffffffffff1916145b8061084d575061084c82611cea565b5b9050919050565b60606000805461086390614483565b80601f016020809104026020016040519081016040528092919081815260200182805461088f90614483565b80156108dc5780601f106108b1576101008083540402835291602001916108dc565b820191906000526020600020905b8154815290600101906020018083116108bf57829003601f168201915b5050505050905090565b60006108f182611d54565b610930576040517f08c379a0000000000000000000000000000000000000000000000000000000008152600401610927906140bb565b60405180910390fd5b6004600083815260200190815260200160002060009054906101000a900473ffffffffffffffffffffffffffffffffffffffff169050919050565b600061097682610c09565b90508073ffffffffffffffffffffffffffffffffffffffff168373ffffffffffffffffffffffffffffffffffffffff1614156109e7576040517f08c379a00000000000000000000000000000000000000000000000000000000081526004016109de9061413b565b60405180910390fd5b8073ffffffffffffffffffffffffffffffffffffffff16610a06611dc0565b73ffffffffffffffffffffffffffffffffffffffff161480610a355750610a3481610a2f611dc0565b611147565b5b610a74576040517f08c379a0000000000000000000000000000000000000000000000000000000008152600401610a6b90613ffb565b60405180910390fd5b610a7e8383611dc8565b505050565b610a94610a8e611dc0565b82611e81565b610ad3576040517f08c379a0000000000000000000000000000000000000000000000000000000008152600401610aca9061415b565b60405180910390fd5b610ade838383611f5f565b505050565b610aeb611dc0565b73ffffffffffffffffffffffffffffffffffffffff16610b09610eff565b73ffffffffffffffffffffffffffffffffffffffff1614610b5f576040517f08c379a0000000000000000000000000000000000000000000000000000000008152600401610b56906140db565b60405180910390fd5b610b8b600960009054906101000a900473ffffffffffffffffffffffffffffffffffffffff16476121bb565b565b610ba883838360405180602001604052806000815250611002565b505050565b610bbe610bb8611dc0565b82611e81565b610bfd576040517f08c379a0000000000000000000000000000000000000000000000000000000008152600401610bf49061419b565b60405180910390fd5b610c06816122af565b50565b6000806002600084815260200190815260200160002060009054906101000a900473ffffffffffffffffffffffffffffffffffffffff169050600073ffffffffffffffffffffffffffffffffffffffff168173ffffffffffffffffffffffffffffffffffffffff161415610cb2576040517f08c379a0000000000000000000000000000000000000000000000000000000008152600401610ca99061403b565b60405180910390fd5b80915050919050565b6000610cc760086122bb565b9050606f600182610cd8919061428f565b1115610d19576040517f08c379a0000000000000000000000000000000000000000000000000000000008152600401610d1090613ebb565b60405180910390fd5b66038d7ea4c68000341015610d63576040517f08c379a0000000000000000000000000000000000000000000000000000000008152600401610d5a90613edb565b60405180910390fd5b610d6d82826122c9565b610d788242836122e7565b600a60008381526020019081526020016000209080519060200190610d9e929190612e34565b50610db181610dac836105e9565b61233c565b610dbb60086123b0565b5050565b60008073ffffffffffffffffffffffffffffffffffffffff168273ffffffffffffffffffffffffffffffffffffffff161415610e30576040517f08c379a0000000000000000000000000000000000000000000000000000000008152600401610e279061401b565b60405180910390fd5b600360008373ffffffffffffffffffffffffffffffffffffffff1673ffffffffffffffffffffffffffffffffffffffff168152602001908152602001600020549050919050565b610e7f611dc0565b73ffffffffffffffffffffffffffffffffffffffff16610e9d610eff565b73ffffffffffffffffffffffffffffffffffffffff1614610ef3576040517f08c379a0000000000000000000000000000000000000000000000000000000008152600401610eea906140db565b60405180910390fd5b610efd60006123c6565b565b6000600760009054906101000a900473ffffffffffffffffffffffffffffffffffffffff16905090565b600960009054906101000a900473ffffffffffffffffffffffffffffffffffffffff1681565b606060018054610f5e90614483565b80601f0160208091040260200160405190810160405280929190818152602001828054610f8a90614483565b8015610fd75780601f10610fac57610100808354040283529160200191610fd7565b820191906000526020600020905b815481529060010190602001808311610fba57829003601f168201915b5050505050905090565b66038d7ea4c6800081565b610ffe610ff7611dc0565b838361248c565b5050565b61101361100d611dc0565b83611e81565b611052576040517f08c379a00000000000000000000000000000000000000000000000000000000081526004016110499061415b565b60405180910390fd5b61105e848484846125f9565b50505050565b6060600061110c600a6000858152602001908152602001600020805461108990614483565b80601f01602080910402602001604051908101604052809291908181526020018280546110b590614483565b80156111025780601f106110d757610100808354040283529160200191611102565b820191906000526020600020905b8154815290600101906020018083116110e557829003601f168201915b5050505050611480565b905061111781611514565b915050919050565b600061112b60086122bb565b905090565b606061113b82612655565b9050919050565b606f81565b6000600560008473ffffffffffffffffffffffffffffffffffffffff1673ffffffffffffffffffffffffffffffffffffffff16815260200190815260200160002060008373ffffffffffffffffffffffffffffffffffffffff1673ffffffffffffffffffffffffffffffffffffffff16815260200190815260200160002060009054906101000a900460ff16905092915050565b6111e3611dc0565b73ffffffffffffffffffffffffffffffffffffffff16611201610eff565b73ffffffffffffffffffffffffffffffffffffffff1614611257576040517f08c379a000000000000000000000000000000000000000000000000000000000815260040161124e906140db565b60405180910390fd5b600073ffffffffffffffffffffffffffffffffffffffff168173ffffffffffffffffffffffffffffffffffffffff1614156112c7576040517f08c379a00000000000000000000000000000000000000000000000000000000081526004016112be90613f1b565b60405180910390fd5b6112d0816123c6565b50565b6060600082141561131b576040518060400160405280600181526020017f3000000000000000000000000000000000000000000000000000000000000000815250905061147b565b600082905060005b6000821461134d578080611336906144e6565b915050600a8261134691906142e5565b9150611323565b60008167ffffffffffffffff81111561138f577f4e487b7100000000000000000000000000000000000000000000000000000000600052604160045260246000fd5b6040519080825280601f01601f1916602001820160405280156113c15781602001600182028036833780820191505090505b5090505b60008514611474576001826113da9190614370565b9150600a856113e99190614567565b60306113f5919061428f565b60f81b818381518110611431577f4e487b7100000000000000000000000000000000000000000000000000000000600052603260045260246000fd5b60200101907effffffffffffffffffffffffffffffffffffffffffffffffffffffffffffff1916908160001a905350600a8561146d91906142e5565b94506113c5565b8093505050505b919050565b611488612eba565b611490612eba565b60005b600681101561150a5760096114a885836127a7565b6114b29190614598565b60ff168282600681106114ee577f4e487b7100000000000000000000000000000000000000000000000000000000600052603260045260246000fd5b6020020181815250508080611502906144e6565b915050611493565b5080915050919050565b6060611818600b83600060068110611555577f4e487b7100000000000000000000000000000000000000000000000000000000600052603260045260246000fd5b602002015160098110611591577f4e487b7100000000000000000000000000000000000000000000000000000000600052603260045260246000fd5b01600b846001600681106115ce577f4e487b7100000000000000000000000000000000000000000000000000000000600052603260045260246000fd5b60200201516009811061160a577f4e487b7100000000000000000000000000000000000000000000000000000000600052603260045260246000fd5b01600b85600260068110611647577f4e487b7100000000000000000000000000000000000000000000000000000000600052603260045260246000fd5b602002015160098110611683577f4e487b7100000000000000000000000000000000000000000000000000000000600052603260045260246000fd5b01600b866003600681106116c0577f4e487b7100000000000000000000000000000000000000000000000000000000600052603260045260246000fd5b6020020151600981106116fc577f4e487b7100000000000000000000000000000000000000000000000000000000600052603260045260246000fd5b01600b87600460068110611739577f4e487b7100000000000000000000000000000000000000000000000000000000600052603260045260246000fd5b602002015160098110611775577f4e487b7100000000000000000000000000000000000000000000000000000000600052603260045260246000fd5b01600b886005600681106117b2577f4e487b7100000000000000000000000000000000000000000000000000000000600052603260045260246000fd5b6020020151600981106117ee577f4e487b7100000000000000000000000000000000000000000000000000000000600052603260045260246000fd5b0160405160200161180496959493929190613cf3565b604051602081830303815290604052611b3f565b6040516020016118289190613dda565b6040516020818303038152906040529050919050565b6060611848612edc565b60005b60068110156118fd57600084826006811061188f577f4e487b7100000000000000000000000000000000000000000000000000000000600052603260045260246000fd5b6020020151905060018382600981106118d1577f4e487b7100000000000000000000000000000000000000000000000000000000600052603260045260246000fd5b602002018181516118e2919061428f565b915081815250505080806118f5906144e6565b91505061184b565b5060606000805b6009811015611aaa576000848260098110611948577f4e487b7100000000000000000000000000000000000000000000000000000000600052603260045260246000fd5b60200201511115611a9757818061195e906144e6565b92505082611a746014836009811061199f577f4e487b7100000000000000000000000000000000000000000000000000000000600052603260045260246000fd5b0180546119ab90614483565b80601f01602080910402602001604051908101604052809291908181526020018280546119d790614483565b8015611a245780601f106119f957610100808354040283529160200191611a24565b820191906000526020600020905b815481529060010190602001808311611a0757829003601f168201915b5050505050611a6f878560098110611a65577f4e487b7100000000000000000000000000000000000000000000000000000000600052603260045260246000fd5b60200201516112d3565b61280e565b604051602001611a85929190613b84565b60405160208183030381529060405292505b8080611aa2906144e6565b915050611904565b5081611af36040518060400160405280600681526020017f436f6c6f72730000000000000000000000000000000000000000000000000000815250611aee846112d3565b61280e565b604051602001611b04929190613b60565b604051602081830303815290604052915081604051602001611b269190613c8f565b6040516020818303038152906040529350505050919050565b6060600082511415611b6257604051806020016040528060008152509050611ce5565b600060405180606001604052806040815260200161528c6040913990506000600360028551611b91919061428f565b611b9b91906142e5565b6004611ba79190614316565b90506000602082611bb8919061428f565b67ffffffffffffffff811115611bf7577f4e487b7100000000000000000000000000000000000000000000000000000000600052604160045260246000fd5b6040519080825280601f01601f191660200182016040528015611c295781602001600182028036833780820191505090505b509050818152600183018586518101602084015b81831015611ca4576003830192508251603f8160121c1685015160f81b8252600182019150603f81600c1c1685015160f81b8252600182019150603f8160061c1685015160f81b8252600182019150603f811685015160f81b825260018201915050611c3d565b600389510660018114611cbe5760028114611cce57611cd9565b613d3d60f01b6002830352611cd9565b603d60f81b60018303525b50505050508093505050505b919050565b60007f01ffc9a7000000000000000000000000000000000000000000000000000000007bffffffffffffffffffffffffffffffffffffffffffffffffffffffff1916827bffffffffffffffffffffffffffffffffffffffffffffffffffffffff1916149050919050565b60008073ffffffffffffffffffffffffffffffffffffffff166002600084815260200190815260200160002060009054906101000a900473ffffffffffffffffffffffffffffffffffffffff1673ffffffffffffffffffffffffffffffffffffffff1614159050919050565b600033905090565b816004600083815260200190815260200160002060006101000a81548173ffffffffffffffffffffffffffffffffffffffff021916908373ffffffffffffffffffffffffffffffffffffffff160217905550808273ffffffffffffffffffffffffffffffffffffffff16611e3b83610c09565b73ffffffffffffffffffffffffffffffffffffffff167f8c5be1e5ebec7d5bd14f71427d1e84f3dd0314c0f7b2291e5b200ac8c7c3b92560405160405180910390a45050565b6000611e8c82611d54565b611ecb576040517f08c379a0000000000000000000000000000000000000000000000000000000008152600401611ec290613fdb565b60405180910390fd5b6000611ed683610c09565b90508073ffffffffffffffffffffffffffffffffffffffff168473ffffffffffffffffffffffffffffffffffffffff161480611f4557508373ffffffffffffffffffffffffffffffffffffffff16611f2d846108e6565b73ffffffffffffffffffffffffffffffffffffffff16145b80611f565750611f558185611147565b5b91505092915050565b8273ffffffffffffffffffffffffffffffffffffffff16611f7f82610c09565b73ffffffffffffffffffffffffffffffffffffffff1614611fd5576040517f08c379a0000000000000000000000000000000000000000000000000000000008152600401611fcc906140fb565b60405180910390fd5b600073ffffffffffffffffffffffffffffffffffffffff168273ffffffffffffffffffffffffffffffffffffffff161415612045576040517f08c379a000000000000000000000000000000000000000000000000000000000815260040161203c90613f5b565b60405180910390fd5b61205083838361283a565b61205b600082611dc8565b6001600360008573ffffffffffffffffffffffffffffffffffffffff1673ffffffffffffffffffffffffffffffffffffffff16815260200190815260200160002060008282546120ab9190614370565b925050819055506001600360008473ffffffffffffffffffffffffffffffffffffffff1673ffffffffffffffffffffffffffffffffffffffff1681526020019081526020016000206000828254612102919061428f565b92505081905550816002600083815260200190815260200160002060006101000a81548173ffffffffffffffffffffffffffffffffffffffff021916908373ffffffffffffffffffffffffffffffffffffffff160217905550808273ffffffffffffffffffffffffffffffffffffffff168473ffffffffffffffffffffffffffffffffffffffff167fddf252ad1be2c89b69c2b068fc378daa952ba7f163c4a11628f55a4df523b3ef60405160405180910390a4505050565b804710156121fe576040517f08c379a00000000000000000000000000000000000000000000000000000000081526004016121f590613fbb565b60405180910390fd5b60008273ffffffffffffffffffffffffffffffffffffffff168260405161222490613cde565b60006040518083038185875af1925050503d8060008114612261576040519150601f19603f3d011682016040523d82523d6000602084013e612266565b606091505b50509050806122aa576040517f08c379a00000000000000000000000000000000000000000000000000000000081526004016122a190613f9b565b60405180910390fd5b505050565b6122b88161283f565b50565b600081600001549050919050565b6122e3828260405180602001604052806000815250612892565b5050565b60608383836040516020016122fe93929190613b08565b604051602081830303815290604052805190602001206040516020016123249190613b45565b60405160208183030381529060405290509392505050565b61234582611d54565b612384576040517f08c379a000000000000000000000000000000000000000000000000000000000815260040161237b9061405b565b60405180910390fd5b806006600084815260200190815260200160002090805190602001906123ab929190612eff565b505050565b6001816000016000828254019250508190555050565b6000600760009054906101000a900473ffffffffffffffffffffffffffffffffffffffff16905081600760006101000a81548173ffffffffffffffffffffffffffffffffffffffff021916908373ffffffffffffffffffffffffffffffffffffffff1602179055508173ffffffffffffffffffffffffffffffffffffffff168173ffffffffffffffffffffffffffffffffffffffff167f8be0079c531659141344cd1fd0a4f28419497f9722a3daafe3b4186f6b6457e060405160405180910390a35050565b8173ffffffffffffffffffffffffffffffffffffffff168373ffffffffffffffffffffffffffffffffffffffff1614156124fb576040517f08c379a00000000000000000000000000000000000000000000000000000000081526004016124f290613f7b565b60405180910390fd5b80600560008573ffffffffffffffffffffffffffffffffffffffff1673ffffffffffffffffffffffffffffffffffffffff16815260200190815260200160002060008473ffffffffffffffffffffffffffffffffffffffff1673ffffffffffffffffffffffffffffffffffffffff16815260200190815260200160002060006101000a81548160ff0219169083151502179055508173ffffffffffffffffffffffffffffffffffffffff168373ffffffffffffffffffffffffffffffffffffffff167f17307eab39ab6107e8899845ad3d59bd9653f200f220920489ca2b5937696c31836040516125ec9190613e7e565b60405180910390a3505050565b612604848484611f5f565b612610848484846128ed565b61264f576040517f08c379a000000000000000000000000000000000000000000000000000000000815260040161264690613efb565b60405180910390fd5b50505050565b606061266082611d54565b61269f576040517f08c379a00000000000000000000000000000000000000000000000000000000081526004016126969061409b565b60405180910390fd5b60006006600084815260200190815260200160002080546126bf90614483565b80601f01602080910402602001604051908101604052809291908181526020018280546126eb90614483565b80156127385780601f1061270d57610100808354040283529160200191612738565b820191906000526020600020905b81548152906001019060200180831161271b57829003601f168201915b505050505090506000612749612a84565b905060008151141561275f5781925050506127a2565b60008251111561279457808260405160200161277c929190613b60565b604051602081830303815290604052925050506127a2565b61279d84612a9b565b925050505b919050565b60006001826127b6919061428f565b835110156127f9576040517f08c379a00000000000000000000000000000000000000000000000000000000081526004016127f09061417b565b60405180910390fd5b60008260018501015190508091505092915050565b60608282604051602001612823929190613c4a565b604051602081830303815290604052905092915050565b505050565b61284881612b42565b600060066000838152602001908152602001600020805461286890614483565b90501461288f5760066000828152602001908152602001600020600061288e9190612f85565b5b50565b61289c8383612c53565b6128a960008484846128ed565b6128e8576040517f08c379a00000000000000000000000000000000000000000000000000000000081526004016128df90613efb565b60405180910390fd5b505050565b600061290e8473ffffffffffffffffffffffffffffffffffffffff16612e21565b15612a77578373ffffffffffffffffffffffffffffffffffffffff1663150b7a02612937611dc0565b8786866040518563ffffffff1660e01b81526004016129599493929190613e32565b602060405180830381600087803b15801561297357600080fd5b505af19250505080156129a457506040513d601f19601f820116820180604052508101906129a19190613283565b60015b612a27573d80600081146129d4576040519150601f19603f3d011682016040523d82523d6000602084013e6129d9565b606091505b50600081511415612a1f576040517f08c379a0000000000000000000000000000000000000000000000000000000008152600401612a1690613efb565b60405180910390fd5b805181602001fd5b63150b7a0260e01b7bffffffffffffffffffffffffffffffffffffffffffffffffffffffff1916817bffffffffffffffffffffffffffffffffffffffffffffffffffffffff191614915050612a7c565b600190505b949350505050565b606060405180602001604052806000815250905090565b6060612aa682611d54565b612ae5576040517f08c379a0000000000000000000000000000000000000000000000000000000008152600401612adc9061411b565b60405180910390fd5b6000612aef612a84565b90506000815111612b0f5760405180602001604052806000815250612b3a565b80612b19846112d3565b604051602001612b2a929190613b60565b6040516020818303038152906040525b915050919050565b6000612b4d82610c09565b9050612b5b8160008461283a565b612b66600083611dc8565b6001600360008373ffffffffffffffffffffffffffffffffffffffff1673ffffffffffffffffffffffffffffffffffffffff1681526020019081526020016000206000828254612bb69190614370565b925050819055506002600083815260200190815260200160002060006101000a81549073ffffffffffffffffffffffffffffffffffffffff021916905581600073ffffffffffffffffffffffffffffffffffffffff168273ffffffffffffffffffffffffffffffffffffffff167fddf252ad1be2c89b69c2b068fc378daa952ba7f163c4a11628f55a4df523b3ef60405160405180910390a45050565b600073ffffffffffffffffffffffffffffffffffffffff168273ffffffffffffffffffffffffffffffffffffffff161415612cc3576040517f08c379a0000000000000000000000000000000000000000000000000000000008152600401612cba9061407b565b60405180910390fd5b612ccc81611d54565b15612d0c576040517f08c379a0000000000000000000000000000000000000000000000000000000008152600401612d0390613f3b565b60405180910390fd5b612d186000838361283a565b6001600360008473ffffffffffffffffffffffffffffffffffffffff1673ffffffffffffffffffffffffffffffffffffffff1681526020019081526020016000206000828254612d68919061428f565b92505081905550816002600083815260200190815260200160002060006101000a81548173ffffffffffffffffffffffffffffffffffffffff021916908373ffffffffffffffffffffffffffffffffffffffff160217905550808273ffffffffffffffffffffffffffffffffffffffff16600073ffffffffffffffffffffffffffffffffffffffff167fddf252ad1be2c89b69c2b068fc378daa952ba7f163c4a11628f55a4df523b3ef60405160405180910390a45050565b600080823b905060008111915050919050565b828054612e4090614483565b90600052602060002090601f016020900481019282612e625760008555612ea9565b82601f10612e7b57805160ff1916838001178555612ea9565b82800160010185558215612ea9579182015b82811115612ea8578251825591602001919060010190612e8d565b5b509050612eb69190612fc5565b5090565b6040518060c00160405280600690602082028036833780820191505090505090565b604051806101200160405280600990602082028036833780820191505090505090565b828054612f0b90614483565b90600052602060002090601f016020900481019282612f2d5760008555612f74565b82601f10612f4657805160ff1916838001178555612f74565b82800160010185558215612f74579182015b82811115612f73578251825591602001919060010190612f58565b5b509050612f819190612fc5565b5090565b508054612f9190614483565b6000825580601f10612fa35750612fc2565b601f016020900490600052602060002090810190612fc19190612fc5565b5b50565b5b80821115612fde576000816000905550600101612fc6565b5090565b6000612ff5612ff0846141fb565b6141d6565b90508281526020810184848401111561300d57600080fd5b613018848285614441565b509392505050565b60008135905061302f8161522f565b92915050565b60008135905061304481615246565b92915050565b6000813590506130598161525d565b92915050565b60008151905061306e8161525d565b92915050565b600082601f83011261308557600080fd5b8135613095848260208601612fe2565b91505092915050565b6000813590506130ad81615274565b92915050565b6000602082840312156130c557600080fd5b60006130d384828501613020565b91505092915050565b600080604083850312156130ef57600080fd5b60006130fd85828601613020565b925050602061310e85828601613020565b9150509250929050565b60008060006060848603121561312d57600080fd5b600061313b86828701613020565b935050602061314c86828701613020565b925050604061315d8682870161309e565b9150509250925092565b6000806000806080858703121561317d57600080fd5b600061318b87828801613020565b945050602061319c87828801613020565b93505060406131ad8782880161309e565b925050606085013567ffffffffffffffff8111156131ca57600080fd5b6131d687828801613074565b91505092959194509250565b600080604083850312156131f557600080fd5b600061320385828601613020565b925050602061321485828601613035565b9150509250929050565b6000806040838503121561323157600080fd5b600061323f85828601613020565b92505060206132508582860161309e565b9150509250929050565b60006020828403121561326c57600080fd5b600061327a8482850161304a565b91505092915050565b60006020828403121561329557600080fd5b60006132a38482850161305f565b91505092915050565b6000602082840312156132be57600080fd5b60006132cc8482850161309e565b91505092915050565b6132de816143b6565b82525050565b6132ed816143a4565b82525050565b6133046132ff826143a4565b61452f565b82525050565b613313816143c8565b82525050565b61332a613325826143d4565b614541565b82525050565b600061333b82614241565b6133458185614257565b9350613355818560208601614450565b61335e81614685565b840191505092915050565b60006133748261424c565b61337e8185614273565b935061338e818560208601614450565b61339781614685565b840191505092915050565b60006133ad8261424c565b6133b78185614284565b93506133c7818560208601614450565b80840191505092915050565b600081546133e081614483565b6133ea8186614284565b94506001821660008114613405576001811461341657613449565b60ff19831686528186019350613449565b61341f8561422c565b60005b8381101561344157815481890152600182019150602081019050613422565b838801955050505b50505092915050565b600061345f603c83614284565b915061346a826146a3565b603c82019050919050565b6000613482601183614273565b915061348d826146f2565b602082019050919050565b60006134a5600983614284565b91506134b08261471b565b600982019050919050565b60006134c8601583614273565b91506134d382614744565b602082019050919050565b60006134eb603283614273565b91506134f68261476d565b604082019050919050565b600061350e602683614273565b9150613519826147bc565b604082019050919050565b6000613531600c83614284565b915061353c8261480b565b600c82019050919050565b6000613554601c83614273565b915061355f82614834565b602082019050919050565b6000613577604883614284565b91506135828261485d565b604882019050919050565b600061359a600183614284565b91506135a5826148d2565b600182019050919050565b60006135bd600783614284565b91506135c8826148fb565b600782019050919050565b60006135e0602483614273565b91506135eb82614924565b604082019050919050565b6000613603601983614273565b915061360e82614973565b602082019050919050565b6000613626603a83614273565b91506136318261499c565b604082019050919050565b6000613649601d83614273565b9150613654826149eb565b602082019050919050565b600061366c600f83614284565b915061367782614a14565b600f82019050919050565b600061368f602c83614273565b915061369a82614a3d565b604082019050919050565b60006136b2603883614273565b91506136bd82614a8c565b604082019050919050565b60006136d5604583614284565b91506136e082614adb565b604582019050919050565b60006136f8600483614284565b915061370382614b50565b600482019050919050565b600061371b602a83614273565b915061372682614b79565b604082019050919050565b600061373e602983614273565b915061374982614bc8565b604082019050919050565b6000613761602e83614273565b915061376c82614c17565b604082019050919050565b6000613784600283614284565b915061378f82614c66565b600282019050919050565b60006137a7601083614284565b91506137b282614c8f565b601082019050919050565b60006137ca602083614273565b91506137d582614cb8565b602082019050919050565b60006137ed605e83614284565b91506137f882614ce1565b605e82019050919050565b6000613810600d83614284565b915061381b82614d56565b600d82019050919050565b6000613833600183614284565b915061383e82614d7f565b600182019050919050565b6000613856603183614273565b915061386182614da8565b604082019050919050565b6000613879602c83614273565b915061388482614df7565b604082019050919050565b600061389c603f83614284565b91506138a782614e46565b603f82019050919050565b60006138bf601283614284565b91506138ca82614e95565b601282019050919050565b60006138e2602083614273565b91506138ed82614ebe565b602082019050919050565b6000613905600183614284565b915061391082614ee7565b600182019050919050565b6000613928602983614273565b915061393382614f10565b604082019050919050565b600061394b602f83614273565b915061395682614f5f565b604082019050919050565b600061396e604383614284565b915061397982614fae565b604382019050919050565b6000613991600183614284565b915061399c82615023565b600182019050919050565b60006139b4602183614273565b91506139bf8261504c565b604082019050919050565b60006139d7601d83614284565b91506139e28261509b565b601d82019050919050565b60006139fa600083614268565b9150613a05826150c4565b600082019050919050565b6000613a1d603183614273565b9150613a28826150c7565b604082019050919050565b6000613a40601383614273565b9150613a4b82615116565b602082019050919050565b6000613a63603e83614284565b9150613a6e8261513f565b603e82019050919050565b6000613a86600683614284565b9150613a918261518e565b600682019050919050565b6000613aa9603083614273565b9150613ab4826151b7565b604082019050919050565b6000613acc601a83614284565b9150613ad782615206565b601a82019050919050565b613aeb8161442a565b82525050565b613b02613afd8261442a565b61455d565b82525050565b6000613b1482866132f3565b601482019150613b248285613af1565b602082019150613b348284613af1565b602082019150819050949350505050565b6000613b518284613319565b60208201915081905092915050565b6000613b6c82856133a2565b9150613b7882846133a2565b91508190509392505050565b6000613b9082856133a2565b9150613b9c82846133a2565b9150613ba78261358d565b91508190509392505050565b6000613bbe82613498565b9150613bca82876133a2565b9150613bd5826138b2565b9150613be182866133a2565b9150613bec82613803565b9150613bf882856133a2565b9150613c038261379a565b9150613c0f82846133a2565b9150613c1a82613826565b915081905095945050505050565b6000613c33826135b0565b9150613c3f82846133a2565b915081905092915050565b6000613c558261365f565b9150613c6182856133a2565b9150613c6c82613524565b9150613c7882846133a2565b9150613c8382613777565b91508190509392505050565b6000613c9a826138f8565b9150613ca682846133a2565b9150613cb182613984565b915081905092915050565b6000613cc7826139ca565b9150613cd382846133a2565b915081905092915050565b6000613ce9826139ed565b9150819050919050565b6000613cfe82613a56565b9150613d0982613452565b9150613d1582896133d3565b9150613d2082613961565b9150613d2c82886133d3565b9150613d37826136eb565b9150613d42826136c8565b9150613d4e82876133d3565b9150613d59826136eb565b9150613d648261388f565b9150613d7082866133d3565b9150613d7b826136eb565b9150613d86826137e0565b9150613d9282856133d3565b9150613d9d826136eb565b9150613da88261356a565b9150613db482846133d3565b9150613dbf826136eb565b9150613dca82613a79565b9150819050979650505050505050565b6000613de582613abf565b9150613df182846133a2565b915081905092915050565b6000602082019050613e1160008301846132e4565b92915050565b6000602082019050613e2c60008301846132d5565b92915050565b6000608082019050613e4760008301876132e4565b613e5460208301866132e4565b613e616040830185613ae2565b8181036060830152613e738184613330565b905095945050505050565b6000602082019050613e93600083018461330a565b92915050565b60006020820190508181036000830152613eb38184613369565b905092915050565b60006020820190508181036000830152613ed481613475565b9050919050565b60006020820190508181036000830152613ef4816134bb565b9050919050565b60006020820190508181036000830152613f14816134de565b9050919050565b60006020820190508181036000830152613f3481613501565b9050919050565b60006020820190508181036000830152613f5481613547565b9050919050565b60006020820190508181036000830152613f74816135d3565b9050919050565b60006020820190508181036000830152613f94816135f6565b9050919050565b60006020820190508181036000830152613fb481613619565b9050919050565b60006020820190508181036000830152613fd48161363c565b9050919050565b60006020820190508181036000830152613ff481613682565b9050919050565b60006020820190508181036000830152614014816136a5565b9050919050565b600060208201905081810360008301526140348161370e565b9050919050565b6000602082019050818103600083015261405481613731565b9050919050565b6000602082019050818103600083015261407481613754565b9050919050565b60006020820190508181036000830152614094816137bd565b9050919050565b600060208201905081810360008301526140b481613849565b9050919050565b600060208201905081810360008301526140d48161386c565b9050919050565b600060208201905081810360008301526140f4816138d5565b9050919050565b600060208201905081810360008301526141148161391b565b9050919050565b600060208201905081810360008301526141348161393e565b9050919050565b60006020820190508181036000830152614154816139a7565b9050919050565b6000602082019050818103600083015261417481613a10565b9050919050565b6000602082019050818103600083015261419481613a33565b9050919050565b600060208201905081810360008301526141b481613a9c565b9050919050565b60006020820190506141d06000830184613ae2565b92915050565b60006141e06141f1565b90506141ec82826144b5565b919050565b6000604051905090565b600067ffffffffffffffff82111561421657614215614656565b5b61421f82614685565b9050602081019050919050565b60008190508160005260206000209050919050565b600081519050919050565b600081519050919050565b600082825260208201905092915050565b600081905092915050565b600082825260208201905092915050565b600081905092915050565b600061429a8261442a565b91506142a58361442a565b9250827fffffffffffffffffffffffffffffffffffffffffffffffffffffffffffffffff038211156142da576142d96145c9565b5b828201905092915050565b60006142f08261442a565b91506142fb8361442a565b92508261430b5761430a6145f8565b5b828204905092915050565b60006143218261442a565b915061432c8361442a565b9250817fffffffffffffffffffffffffffffffffffffffffffffffffffffffffffffffff0483118215151615614365576143646145c9565b5b828202905092915050565b600061437b8261442a565b91506143868361442a565b925082821015614399576143986145c9565b5b828203905092915050565b60006143af8261440a565b9050919050565b60006143c18261440a565b9050919050565b60008115159050919050565b6000819050919050565b60007fffffffff0000000000000000000000000000000000000000000000000000000082169050919050565b600073ffffffffffffffffffffffffffffffffffffffff82169050919050565b6000819050919050565b600060ff82169050919050565b82818337600083830152505050565b60005b8381101561446e578082015181840152602081019050614453565b8381111561447d576000848401525b50505050565b6000600282049050600182168061449b57607f821691505b602082108114156144af576144ae614627565b5b50919050565b6144be82614685565b810181811067ffffffffffffffff821117156144dd576144dc614656565b5b80604052505050565b60006144f18261442a565b91507fffffffffffffffffffffffffffffffffffffffffffffffffffffffffffffffff821415614524576145236145c9565b5b600182019050919050565b600061453a8261454b565b9050919050565b6000819050919050565b600061455682614696565b9050919050565b6000819050919050565b60006145728261442a565b915061457d8361442a565b92508261458d5761458c6145f8565b5b828206905092915050565b60006145a382614434565b91506145ae83614434565b9250826145be576145bd6145f8565b5b828206905092915050565b7f4e487b7100000000000000000000000000000000000000000000000000000000600052601160045260246000fd5b7f4e487b7100000000000000000000000000000000000000000000000000000000600052601260045260246000fd5b7f4e487b7100000000000000000000000000000000000000000000000000000000600052602260045260246000fd5b7f4e487b7100000000000000000000000000000000000000000000000000000000600052604160045260246000fd5b6000601f19601f8301169050919050565b60008160601b9050919050565b7f3c7061746820643d224d302030683139347633383848307a222073686170655260008201527f656e646572696e673d2263726973704564676573222066696c6c3d2200000000602082015250565b7f4d617820737570706c79206d696e746564000000000000000000000000000000600082015250565b7f7b226e616d65223a220000000000000000000000000000000000000000000000600082015250565b7f4e6f7420656e6f7567682066756e64732073656e740000000000000000000000600082015250565b7f4552433732313a207472616e7366657220746f206e6f6e20455243373231526560008201527f63656976657220696d706c656d656e7465720000000000000000000000000000602082015250565b7f4f776e61626c653a206e6577206f776e657220697320746865207a65726f206160008201527f6464726573730000000000000000000000000000000000000000000000000000602082015250565b7f222c202276616c7565223a220000000000000000000000000000000000000000600082015250565b7f4552433732313a20746f6b656e20616c7265616479206d696e74656400000000600082015250565b7f3c7061746820643d224d313934203239302e35563139346834387639362e356860008201527f2d34385a2220736861706552656e646572696e673d226372697370456467657360208201527f222066696c6c3d22000000000000000000000000000000000000000000000000604082015250565b7f2c00000000000000000000000000000000000000000000000000000000000000600082015250565b7f5368616570202300000000000000000000000000000000000000000000000000600082015250565b7f4552433732313a207472616e7366657220746f20746865207a65726f2061646460008201527f7265737300000000000000000000000000000000000000000000000000000000602082015250565b7f4552433732313a20617070726f766520746f2063616c6c657200000000000000600082015250565b7f416464726573733a20756e61626c6520746f2073656e642076616c75652c207260008201527f6563697069656e74206d61792068617665207265766572746564000000000000602082015250565b7f416464726573733a20696e73756666696369656e742062616c616e6365000000600082015250565b7f7b2274726169745f74797065223a220000000000000000000000000000000000600082015250565b7f4552433732313a206f70657261746f7220717565727920666f72206e6f6e657860008201527f697374656e7420746f6b656e0000000000000000000000000000000000000000602082015250565b7f4552433732313a20617070726f76652063616c6c6572206973206e6f74206f7760008201527f6e6572206e6f7220617070726f76656420666f7220616c6c0000000000000000602082015250565b7f3c7061746820643d224d3937203139332e373563302035332e3433342034332e60008201527f3536362039362e37352039372039362e3735762d39362e37354839375a22206660208201527f696c6c3d22000000000000000000000000000000000000000000000000000000604082015250565b7f22202f3e00000000000000000000000000000000000000000000000000000000600082015250565b7f4552433732313a2062616c616e636520717565727920666f7220746865207a6560008201527f726f206164647265737300000000000000000000000000000000000000000000602082015250565b7f4552433732313a206f776e657220717565727920666f72206e6f6e657869737460008201527f656e7420746f6b656e0000000000000000000000000000000000000000000000602082015250565b7f45524337323155524953746f726167653a2055524920736574206f66206e6f6e60008201527f6578697374656e7420746f6b656e000000000000000000000000000000000000602082015250565b7f227d000000000000000000000000000000000000000000000000000000000000600082015250565b7f222c202261747472696275746573223a00000000000000000000000000000000600082015250565b7f4552433732313a206d696e7420746f20746865207a65726f2061646472657373600082015250565b7f3c7061746820643d224d393720313934762d2e3235433937203134302e33313660008201527f203134302e333136203937203139332e37352039377339362e37352034332e3360208201527f31362039362e37352039362e3735762e32354839375a222066696c6c3d220000604082015250565b7f222c2022696d616765223a202200000000000000000000000000000000000000600082015250565b7f7d00000000000000000000000000000000000000000000000000000000000000600082015250565b7f45524337323155524953746f726167653a2055524920717565727920666f722060008201527f6e6f6e6578697374656e7420746f6b656e000000000000000000000000000000602082015250565b7f4552433732313a20617070726f76656420717565727920666f72206e6f6e657860008201527f697374656e7420746f6b656e0000000000000000000000000000000000000000602082015250565b7f3c7061746820643d224d363920363968313235763132354836397a222073686160008201527f706552656e646572696e673d2263726973704564676573222066696c6c3d2200602082015250565b7f222c20226465736372697074696f6e223a220000000000000000000000000000600082015250565b7f4f776e61626c653a2063616c6c6572206973206e6f7420746865206f776e6572600082015250565b7f5b00000000000000000000000000000000000000000000000000000000000000600082015250565b7f4552433732313a207472616e73666572206f6620746f6b656e2074686174206960008201527f73206e6f74206f776e0000000000000000000000000000000000000000000000602082015250565b7f4552433732314d657461646174613a2055524920717565727920666f72206e6f60008201527f6e6578697374656e7420746f6b656e0000000000000000000000000000000000602082015250565b7f222f3e3c7061746820643d224d31393420306831393476333838483139347a2260008201527f20736861706552656e646572696e673d2263726973704564676573222066696c60208201527f6c3d220000000000000000000000000000000000000000000000000000000000604082015250565b7f5d00000000000000000000000000000000000000000000000000000000000000600082015250565b7f4552433732313a20617070726f76616c20746f2063757272656e74206f776e6560008201527f7200000000000000000000000000000000000000000000000000000000000000602082015250565b7f646174613a6170706c69636174696f6e2f6a736f6e3b6261736536342c000000600082015250565b50565b7f4552433732313a207472616e736665722063616c6c6572206973206e6f74206f60008201527f776e6572206e6f7220617070726f766564000000000000000000000000000000602082015250565b7f746f55696e74385f6f75744f66426f756e647300000000000000000000000000600082015250565b7f3c7376672076696577426f783d2230203020333838203338382220786d6c6e7360008201527f3d22687474703a2f2f7777772e77332e6f72672f323030302f737667223e0000602082015250565b7f3c2f7376673e0000000000000000000000000000000000000000000000000000600082015250565b7f4552433732314275726e61626c653a2063616c6c6572206973206e6f74206f7760008201527f6e6572206e6f7220617070726f76656400000000000000000000000000000000602082015250565b7f646174613a696d6167652f7376672b786d6c3b6261736536342c000000000000600082015250565b615238816143a4565b811461524357600080fd5b50565b61524f816143c8565b811461525a57600080fd5b50565b615266816143de565b811461527157600080fd5b50565b61527d8161442a565b811461528857600080fd5b5056fe4142434445464748494a4b4c4d4e4f505152535455565758595a6162636465666768696a6b6c6d6e6f707172737475767778797a303132333435363738392b2fa264697066735822122055530d5286fae5b6583df09140eace27b77be1074aa6b2ae2dd4f9e38730625264736f6c63430008040033",
  "linkReferences": {},
  "deployedLinkReferences": {}
}